:040000000CEF00F011
:10000800FACF05F1FBCF06F1E9CF07F189EF06F04A
:1000180000EE00F010EE02F014EC00F036EF07F0FE
:0E002800EE6AE550E150FCE1E250FAE1120010
:100D000000F8F1E3C78F1F3E7CF8F1E3C78F1F3E69
:100D10007C00EACF08F1E1CF09F1E2CF0AF1D9CFA7
:100D20000BF1DACF0CF1F3CF0DF1F4CF0EF1F6CFDA
:100D30000FF1F7CF10F1F8CF11F1F5CF12F1F2A6C4
:100D4000A4EF06F0A6EF06F0E5EF06F0F2A0ABEF99
:100D500006F0ADEF06F0E5EF06F094CF01F19468F0
:100D6000BCEF06F082CF92FFE2EF06F082CF01F1F6
:100D7000E2EF06F0E2EF06F081CF02F1F00E0101A2
:100D8000021702C103F10101046B0101DCEF06F05F
:100D900001010351100AE6E0300AE8E0100AEAE037
:100DA000700AE8E0100AE6E0300AE4E0100AE2E047
:100DB000F00AE0E0E2EF06F001010451000AE8E089
:100DC000E2EF06F001C194FFF29012C1F5FF11C1EC
:100DD000F8FF10C1F7FF0FC1F6FF0EC1F4FF0DC100
:100DE000F3FF0CC1DAFF0BC1D9FF0AC1E2FF09C151
:100DF000E1FF08C1EAFF07C1E9FF06C1FBFF05C12A
:100E0000FAFF1100002A070E0016010E0024F66EEC
:100E1000F76A0D0EF722F86A000EF8220800F5CFE7
:100E200080FF00C000F1010E01010027010E010149
:100E30000025F66EF76A0D0EF722F86A000EF8220A
:100E40000800F5CF82FF00C000F1030E010100276A
:100E5000010E01010025F66EF76A0D0EF722F86A01
:100E6000000EF8220800F5CF84FF120048EC07F0CE
:100E70009EA03DEF07F03FEF07F044EF07F09E9094
:100E8000F00ECF6E02EC07F038EF07F00CEF00F039
:100E9000F28ED09E810ECD6E9D900F0EC16E000E13
:100EA000926E9368000E946EF19EF286F29012009C
:00000001FF
