:1000000000EE00F010EE41F008EC00F0ADEF93F0E0
:0E001000EE6AE550E150FCE1E250FAE1120028
:020000040001F9
:102712000101326F040E01010101306F01013251DA
:102722000101326FFA0E01010101316F01013251D3
:102732009DEF93F09DEF93F001010101312F9BEF8B
:1027420093F001010101302F91EF93F0010101019A
:102752002F2F89EF93F01200720ED312AF0E926EEA
:10276200120E936E800E946E000EC26E050EC16E36
:10277200800EC06E200EC06E000E2E6E000EB06E69
:10278200190EAF6E080EB86E900EAB6E200EAC6EC8
:102792008968800E8A6E0F0E8B6EEDEF93F0D2EF8A
:1027A20093F02F50D8B4D8EF93F0DAEF93F0D0EF44
:1027B20093F0D89028340101096F1A0E01010925FE
:1027C200E96EEA6A000EEA220101EECF05F101018B
:1027D200EDCF06F128C004F1000E01010101076FDF
:1027E200000E0101086F010101010851800A800FEA
:1027F2000D0ED8B4075DD8A001EF94F003EF94F06A
:1028020005EF94F029EF94F00101D890010107350A
:102812000101096F000E01010925E96EEA6A000E45
:10282200EA22000EEE6E000EED6E01010101074B71
:10283200082B010101010851800A800F0D0ED8B446
:10284200075DD8A027EF94F029EF94F005EF94F0FC
:102852002DEC94F000EF00F0000E010101010A6F6F
:10286200000E01010B6F010101010B51800A800F63
:10287200070ED8B40A5DD8A041EF94F043EF94F06C
:1028820045EF94F0BAEF94F0000E010101011C6FC4
:10289200000E01011D6F1A0E010101011C5D000EE7
:1028A20001011D59D8A058EF94F05AEF94F05CEF53
:1028B20094F07FEF94F00101D89001011C350101E1
:1028C2002E6F000E01012E25E96EEA6A000EEA2241
:1028D200000EEE6E000EED6E010101011C4B1D2B70
:1028E2001A0E010101011C5D000E01011D59D8A043
:1028F2007DEF94F07FEF94F05CEF94F0010E006EA8
:10290200000E016E010E026E000E036E0101D890E0
:1029120001010A3501012E6F0C0E01012E27000E56
:1029220001012E25E96EEA6A000EEA22010EEE6E20
:10293200000EED6E0BEC99F001012E6F880E010175
:1029420001012F6F01012E5189EC93F00101010168
:102952000A4B0B2B010101010B51800A800F070E5C
:10296200D8B40A5DD8A0B8EF94F0BAEF94F045EF6E
:1029720094F0000E010101010C6F000E01010D6FB8
:10298200010101010D51800A800F070ED8B40C5DC0
:10299200D8A0CEEF94F0D0EF94F0D2EF94F043EFC2
:1029A20095F0000E010101011E6F000E01011F6F63
:1029B2001A0E010101011E5D000E01011F59D8A06E
:1029C200E5EF94F0E7EF94F0E9EF94F00CEF95F077
:1029D2000101D89001011E3501012E6F000E010187
:1029E2002E25E96EEA6A000EEA22000EEE6E000E55
:1029F200ED6E010101011E4B1F2B1A0E0101010197
:102A02001E5D000E01011F59D8A00AEF95F00CEFD0
:102A120095F0E9EF94F0010E006E000E016E0101D7
:102A2200D89001010C3501012E6F0C0E01012E27E9
:102A3200000E01012E25E96EEA6A000EEA22010E5D
:102A4200EE6E000EED6E0BEC99F001012E6F880E0A
:102A5200010101012F6F01012E5189EC93F0010157
:102A620001010C4B0D2B010101010D51800A800F58
:102A7200070ED8B40C5DD8A041EF95F043EF95F066
:102A8200D2EF94F0000E010101010E6F000E010160
:102A92000F6F010101010F51800A800F070ED8B498
:102AA2000E5DD8A057EF95F059EF95F05BEF95F0DA
:102AB200CCEF95F0000E01010101206F000E010123
:102AC200216F1A0E01010101205D000E0101215941
:102AD200D8A06EEF95F070EF95F072EF95F095EF4C
:102AE20095F00101D8900101203501012E6F000EF1
:102AF20001012E25E96EEA6A000EEA22000EEE6E50
:102B0200000EED6E01010101204B212B1A0E010175
:102B12000101205D000E01012159D8A093EF95F02B
:102B220095EF95F072EF95F0010E026E000E036EB6
:102B32000101D89001010E3501012E6F0C0E010129
:102B42002E27000E01012E25E96EEA6A000EEA2206
:102B5200010EEE6E000EED6E0BEC99F001012E6F80
:102B6200880E010101012F6F01012E5189EC93F0B2
:102B7200010101010E4B0F2B010101010F51800ACE
:102B8200800F070ED8B40E5DD8A0CAEF95F0CCEF37
:102B920095F05BEF95F0000E01010101106F000E40
:102BA2000101116F010101011151800A800F070E0D
:102BB200D8B4105DD8A0E0EF95F0E2EF95F0E4EF25
:102BC20095F059EF96F0000E01010101226F000EFF
:102BD2000101236F1A0E01010101225D000E0101A4
:102BE2002359D8A0F7EF95F0F9EF95F0FBEF95F0A8
:102BF2001EEF96F00101D8900101223501012E6FDE
:102C0200000E01012E25E96EEA6A000EEA22000E8C
:102C1200EE6E000EED6E01010101224B232B1A0E06
:102C220001010101225D000E01012359D8A01CEF10
:102C320096F01EEF96F0FBEF95F0010E046E000E7B
:102C4200056E010E066E000E076E0101D89001019D
:102C5200103501012E6F0C0E01012E27000E01010D
:102C62002E25E96EEA6A000EEA22010EEE6E000ED1
:102C7200ED6E0BEC99F001012E6F880E010101013E
:102C82002F6F01012E5189EC93F001010101104BCC
:102C9200112B010101011151800A800F070ED8B4D6
:102CA200105DD8A057EF96F059EF96F0E4EF95F04B
:102CB200000E01010101126F000E0101136F0101EB
:102CC20001011351800A800F070ED8B4125DD8A0FB
:102CD2006DEF96F06FEF96F071EF96F0E2EF96F0EF
:102CE200000E01010101246F000E0101256F1A0E71
:102CF20001010101245D000E01012559D8A084EFD4
:102D020096F086EF96F088EF96F0ABEF96F0010121
:102D1200D8900101243501012E6F000E01012E25EC
:102D2200E96EEA6A000EEA22000EEE6E000EED6E09
:102D320001010101244B252B1A0E01010101245D21
:102D4200000E01012559D8A0A9EF96F0ABEF96F03D
:102D520088EF96F0010E046E000E056E0101D89008
:102D62000101123501012E6F0C0E01012E27000EFA
:102D720001012E25E96EEA6A000EEA22010EEE6ECC
:102D8200000EED6E0BEC99F001012E6F880E010121
:102D920001012F6F01012E5189EC93F00101010114
:102DA200124B132B010101011351800A800F070EF0
:102DB200D8B4125DD8A0E0EF96F0E2EF96F071EF92
:102DC20096F0000E01010101146F000E0101156F52
:102DD200010101011551800A800F070ED8B4145D5C
:102DE200D8A0F6EF96F0F8EF96F0FAEF96F06BEFC8
:102DF20097F0000E01010101266F000E0101276FFD
:102E02001A0E01010101265D000E01012759D8A009
:102E12000DEF97F00FEF97F011EF97F034EF97F077
:102E22000101D8900101263501012E6F000E01012A
:102E32002E25E96EEA6A000EEA22000EEE6E000E00
:102E4200ED6E01010101264B272B1A0E0101010132
:102E5200265D000E01012759D8A032EF97F034EF1A
:102E620097F011EF97F0010E066E000E076E01014A
:102E7200D8900101143501012E6F0C0E01012E278D
:102E8200000E01012E25E96EEA6A000EEA22010E09
:102E9200EE6E000EED6E0BEC99F001012E6F880EB6
:102EA200010101012F6F01012E5189EC93F0010103
:102EB2000101144B152B010101011551800A800FEC
:102EC200070ED8B4145DD8A069EF97F06BEF97F0B6
:102ED200FAEF96F0000E01010101166F000E0101DA
:102EE200176F010101011751800A800F070ED8B434
:102EF200165DD8A07FEF97F081EF97F083EF97F000
:102F0200F8EF97F0000E01010101286F000E010198
:102F1200296F1A0E01010101285D000E01012959D4
:102F2200D8A096EF97F098EF97F09AEF97F0BDEF51
:102F320097F00101D8900101283501012E6F000E92
:102F420001012E25E96EEA6A000EEA22000EEE6EFB
:102F5200000EED6E01010101284B292B1A0E010111
:102F62000101285D000E01012959D8A0BBEF97F09D
:102F7200BDEF97F09AEF97F0010E086E000E096E02
:102F8200010E0A6E000E0B6E0101D890010116357A
:102F920001012E6F0C0E01012E27000E01012E25BC
:102FA200E96EEA6A000EEA22010EEE6E000EED6E86
:102FB2000BEC99F001012E6F880E010101012F6FB8
:102FC20001012E5189EC93F001010101164B172BDF
:102FD200010101011751800A800F070ED8B4165D56
:102FE200D8A0F6EF97F0F8EF97F083EF97F0000E86
:102FF20001010101186F000E0101196F01010101A8
:103002001951800A800F070ED8B4185DD8A00CEFB2
:1030120098F00EEF98F010EF98F081EF98F0000E14
:10302200010101012A6F000E01012B6F1A0E01012D
:1030320001012A5D000E01012B59D8A023EF98F05F
:1030420025EF98F027EF98F04AEF98F00101D89019
:1030520001012A3501012E6F000E01012E25E96EB4
:10306200EA6A000EEA22000EEE6E000EED6E01011B
:1030720001012A4B2B2B1A0E010101012A5D000EC0
:1030820001012B59D8A048EF98F04AEF98F027EFAA
:1030920098F0010E086E000E096E0101D890010130
:1030A200183501012E6F0C0E01012E27000E0101B1
:1030B2002E25E96EEA6A000EEA22010EEE6E000E7D
:1030C200ED6E0BEC99F001012E6F880E01010101EA
:1030D2002F6F01012E5189EC93F001010101184B70
:1030E200192B010101011951800A800F070ED8B472
:1030F200185DD8A07FEF98F081EF98F010EF98F06C
:10310200000E010101011A6F000E01011B6F010186
:1031120001011B51800A800F070ED8B41A5DD8A096
:1031220095EF98F097EF98F099EF98F00AEF99F0F1
:10313200000E010101012C6F000E01012D6F1A0E0C
:10314200010101012C5D000E01012D59D8A0ACEF47
:1031520098F0AEEF98F0B0EF98F0D3EF98F001014D
:10316200D89001012C3501012E6F000E01012E2590
:10317200E96EEA6A000EEA22000EEE6E000EED6EB5
:10318200010101012C4B2D2B1A0E010101012C5DB5
:10319200000E01012D59D8A0D1EF98F0D3EF98F08D
:1031A200B0EF98F0010E0A6E000E0B6E0101D8907E
:1031B20001011A3501012E6F0C0E01012E27000E9E
:1031C20001012E25E96EEA6A000EEA22010EEE6E78
:1031D200000EED6E0BEC99F001012E6F880E0101CD
:1031E20001012F6F01012E5189EC93F001010101C0
:1031F2001A4B1B2B010101011B51800A800F070E84
:10320200D8B41A5DD8A008EF99F00AEF99F099EFB7
:1032120098F0120008040910D8A412EF99F014EFE4
:1032220099F02EEF99F00A040B10D8A41BEF99F035
:103232001DEF99F02EEF99F00C040D10D8A424EF95
:1032420099F026EF99F02EEF99F0EF0E896EE00ECD
:103252008A6E0F0E8B6EFFEF9FF008040910D8A440
:1032620035EF99F037EF99F051EF99F00A040B100E
:10327200D8A43EEF99F040EF99F051EF99F00E0487
:103282000F10D8A447EF99F049EF99F051EF99F058
:10329200BF0E896EE00E8A6E0F0E8B6EFFEF9FF0EF
:1032A20008040910D8A458EF99F05AEF99F073EF77
:1032B20099F00A040B10D8A461EF99F063EF99F02A
:1032C20073EF99F010041110D8A46AEF99F06CEF23
:1032D20099F073EF99F08968E00E8A6E0E0E8B6E8C
:1032E200FFEF9FF008040910D8A47AEF99F07CEF61
:1032F20099F095EF99F00A040B10D8A483EF99F096
:1033020085EF99F095EF99F012041310D8A48CEF81
:1033120099F08EEF99F095EF99F08968E00E8A6E38
:103322000D0E8B6EFFEF9FF008040910D8A49CEFDE
:1033320099F09EEF99F0B7EF99F00A040B10D8A418
:10334200A5EF99F0A7EF99F0B7EF99F014041510D3
:10335200D8A4AEEF99F0B0EF99F0B7EF99F0896881
:10336200600E8A6E0F0E8B6EFFEF9FF0080409103D
:10337200D8A4BEEF99F0C0EF99F0D9EF99F00A0402
:103382000B10D8A4C7EF99F0C9EF99F0D9EF99F0D3
:1033920016041710D8A4D0EF99F0D2EF99F0D9EF14
:1033A20099F08968E00E8A6E0B0E8B6EFFEF9FF02C
:1033B20008040910D8A4E0EF99F0E2EF99F0FBEFCE
:1033C20099F00A040B10D8A4E9EF99F0EBEF99F009
:1033D200FBEF99F018041910D8A4F2EF99F0F4EF6A
:1033E20099F0FBEF99F08968E00E8A6E070E8B6EFA
:1033F200FFEF9FF008040910D8A402EF9AF004EF3F
:103402009AF015EF9AF00C040D10D8A40BEF9AF075
:103412000DEF9AF015EF9AF0EF0E896EC00E8A6EDC
:103422000F0E8B6EFFEF9FF008040910D8A41CEF5B
:103432009AF01EEF9AF02FEF9AF00E040F10D8A414
:1034420025EF9AF027EF9AF02FEF9AF0BF0E896ED0
:10345200C00E8A6E0F0E8B6EFFEF9FF008040910EC
:10346200D8A436EF9AF038EF9AF048EF9AF01004A9
:103472001110D8A43FEF9AF041EF9AF048EF9AF07A
:103482008968C00E8A6E0E0E8B6EFFEF9FF00804E5
:103492000910D8A44FEF9AF051EF9AF061EF9AF029
:1034A20012041310D8A458EF9AF05AEF9AF061EF71
:1034B2009AF08968C00E8A6E0D0E8B6EFFEF9FF038
:1034C20008040910D8A468EF9AF06AEF9AF07AEF2C
:1034D2009AF014041510D8A471EF9AF073EF9AF0D1
:1034E2007AEF9AF08968400E8A6E0F0E8B6EFFEFAC
:1034F2009FF008040910D8A481EF9AF083EF9AF0A4
:1035020093EF9AF016041710D8A48AEF9AF08CEF72
:103512009AF093EF9AF08968C00E8A6E0B0E8B6E4A
:10352200FFEF9FF008040910D8A49AEF9AF09CEFDD
:103532009AF0ACEF9AF018041910D8A4A3EF9AF0FD
:10354200A5EF9AF0ACEF9AF08968C00E8A6E070E6A
:103552008B6EFFEF9FF00A040B10D8A4B3EF9AF022
:10356200B5EF9AF0C6EF9AF00C040D10D8A4BCEF98
:103572009AF0BEEF9AF0C6EF9AF0EF0E896EA00EA7
:103582008A6E0F0E8B6EFFEF9FF00A040B10D8A409
:10359200CDEF9AF0CFEF9AF0E0EF9AF00E040F1011
:1035A200D8A4D6EF9AF0D8EF9AF0E0EF9AF0BF0ED7
:1035B200896EA00E8A6E0F0E8B6EFFEF9FF00A04CB
:1035C2000B10D8A4E7EF9AF0E9EF9AF0F9EF9AF02E
:1035D20010041110D8A4F0EF9AF0F2EF9AF0F9EF7C
:1035E2009AF08968A00E8A6E0E0E8B6EFFEF9FF026
:1035F2000A040B10D8A400EF9BF002EF9BF012EF2D
:103602009BF012041310D8A409EF9BF00BEF9BF070
:1036120012EF9BF08968A00E8A6E0D0E8B6EFFEF83
:103622009FF00A040B10D8A419EF9BF01BEF9BF03C
:103632002BEF9BF014041510D8A422EF9BF024EF7B
:103642009BF02BEF9BF08968200E8A6E0F0E8B6E1B
:10365200FFEF9FF00A040B10D8A432EF9BF034EF77
:103662009BF044EF9BF016041710D8A43BEF9BF09D
:103672003DEF9BF044EF9BF08968A00E8A6E0B0E23
:103682008B6EFFEF9FF00A040B10D8A44BEF9BF058
:103692004DEF9BF05DEF9BF018041910D8A454EF86
:1036A2009BF056EF9BF05DEF9BF08968A00E8A6E4F
:1036B200070E8B6EFFEF9FF004040510D8A464EF91
:1036C2009BF066EF9BF080EF9BF006040710D8A4F6
:1036D2006DEF9BF06FEF9BF080EF9BF00C040D10F1
:1036E200D8A476EF9BF078EF9BF080EF9BF0EF0E83
:1036F200896E8C0E8A6E0F0E8B6EFFEF9FF00404A4
:103702000510D8A487EF9BF089EF9BF0A3EF9BF005
:1037120006040710D8A490EF9BF092EF9BF0A3EF62
:103722009BF00E040F10D8A499EF9BF09BEF9BF037
:10373200A3EF9BF0BF0E896E8C0E8A6E0F0E8B6EFE
:10374200FFEF9FF004040510D8A4AAEF9BF0ACEFA2
:103752009BF0C5EF9BF006040710D8A4B3EF9BF0D3
:10376200B5EF9BF0C5EF9BF010041110D8A4BCEF8D
:103772009BF0BEEF9BF0C5EF9BF089688C0E8A6EC2
:103782000E0E8B6EFFEF9FF004040510D8A4CCEF51
:103792009BF0CEEF9BF0E7EF9BF006040710D8A456
:1037A200D5EF9BF0D7EF9BF0E7EF9BF012041310DD
:1037B200D8A4DEEF9BF0E0EF9BF0E7EF9BF0896887
:1037C2008C0E8A6E0D0E8B6EFFEF9FF004040510B7
:1037D200D8A4EEEF9BF0F0EF9BF009EF9CF006040B
:1037E2000710D8A4F7EF9BF0F9EF9BF009EF9CF0DC
:1037F20014041510D8A400EF9CF002EF9CF009EF1E
:103802009CF089680C0E8A6E0F0E8B6EFFEF9FF094
:1038120004040510D8A410EF9CF012EF9CF02BEFDB
:103822009CF006040710D8A419EF9CF01BEF9CF043
:103832002BEF9CF016041710D8A422EF9CF024EF73
:103842009CF02BEF9CF089688C0E8A6E0B0E8B6EAF
:10385200FFEF9FF004040510D8A432EF9CF034EF80
:103862009CF04DEF9CF006040710D8A43BEF9CF0AF
:103872003DEF9CF04DEF9CF018041910D8A444EFD2
:103882009CF046EF9CF04DEF9CF089688C0E8A6E9E
:10389200070E8B6EFFEF9FF004040510D8A454EFBF
:1038A2009CF056EF9CF067EF9CF00C040D10D8A42E
:1038B2005DEF9CF05FEF9CF067EF9CF0EF0E896E7E
:1038C200840E8A6E0F0E8B6EFFEF9FF004040510BC
:1038D200D8A46EEF9CF070EF9CF081EF9CF00E0488
:1038E2000F10D8A477EF9CF079EF9CF081EF9CF059
:1038F200BF0E896E840E8A6E0F0E8B6EFFEF9FF0E5
:1039020004040510D8A488EF9CF08AEF9CF09AEF8B
:103912009CF010041110D8A491EF9CF093EF9CF04E
:103922009AEF9CF08968840E8A6E0E0E8B6EFFEF02
:103932009FF004040510D8A4A1EF9CF0A3EF9CF023
:10394200B3EF9CF012041310D8A4AAEF9CF0ACEFD2
:103952009CF0B3EF9CF08968840E8A6E0D0E8B6E1C
:10396200FFEF9FF004040510D8A4BAEF9CF0BCEF5F
:103972009CF0CCEF9CF014041510D8A4C3EF9CF07B
:10398200C5EF9CF0CCEF9CF08968040E8A6E0F0E96
:103992008B6EFFEF9FF004040510D8A4D3EF9CF0C8
:1039A200D5EF9CF0E5EF9CF016041710D8A4DCEFDD
:1039B2009CF0DEEF9CF0E5EF9CF08968840E8A6E45
:1039C2000B0E8B6EFFEF9FF004040510D8A4ECEFF2
:1039D2009CF0EEEF9CF0FEEF9CF018041910D8A4B6
:1039E200F5EF9CF0F7EF9CF0FEEF9CF08968840EF7
:1039F2008A6E070E8B6EFFEF9FF006040710D8A4A5
:103A020005EF9DF007EF9DF018EF9DF00C040D10EF
:103A1200D8A40EEF9DF010EF9DF018EF9DF0EF0E81
:103A2200896E880E8A6E0F0E8B6EFFEF9FF0060472
:103A32000710D8A41FEF9DF021EF9DF032EF9DF00B
:103A42000E040F10D8A428EF9DF02AEF9DF032EF5C
:103A52009DF0BF0E896E880E8A6E0F0E8B6EFFEF81
:103A62009FF006040710D8A439EF9DF03BEF9DF0BC
:103A72004BEF9DF010041110D8A442EF9DF044EFDB
:103A82009DF04BEF9DF08968880E8A6E0E0E8B6E4C
:103A9200FFEF9FF006040710D8A452EF9DF054EFF9
:103AA2009DF064EF9DF012041310D8A45BEF9DF01B
:103AB2005DEF9DF064EF9DF08968880E8A6E0D0EB1
:103AC2008B6EFFEF9FF006040710D8A46BEF9DF0FA
:103AD2006DEF9DF07DEF9DF014041510D8A474EFE6
:103AE2009DF076EF9DF07DEF9DF08968080E8A6E5D
:103AF2000F0E8B6EFFEF9FF006040710D8A484EF21
:103B02009DF086EF9DF096EF9DF016041710D8A455
:103B12008DEF9DF08FEF9DF096EF9DF08968880EF6
:103B22008A6E0B0E8B6EFFEF9FF006040710D8A46F
:103B32009DEF9DF09FEF9DF0AFEF9DF018041910DF
:103B4200D8A4A6EF9DF0A8EF9DF0AFEF9DF0896895
:103B5200880E8A6E070E8B6EFFEF9FF00004011035
:103B6200D8A4B6EF9DF0B8EF9DF0D2EF9DF002041D
:103B72000310D8A4BFEF9DF0C1EF9DF0D2EF9DF0EE
:103B82000C040D10D8A4C8EF9DF0CAEF9DF0D2EF3F
:103B92009DF0EF0E896E800E8A6E3F0E8B6EFFEFE8
:103BA2009FF000040110D8A4D9EF9DF0DBEF9DF047
:103BB200F5EF9DF002040310D8A4E2EF9DF0E4EFCC
:103BC2009DF0F5EF9DF00E040F10D8A4EBEF9DF0E1
:103BD200EDEF9DF0F5EF9DF0BF0E896E800E8A6EBF
:103BE2003F0E8B6EFFEF9FF000040110D8A4FCEF94
:103BF2009DF0FEEF9DF017EF9EF002040310D8A493
:103C020005EF9EF007EF9EF017EF9EF010041110E3
:103C1200D8A40EEF9EF010EF9EF017EF9EF0896889
:103C2200800E8A6E3E0E8B6EFFEF9FF00004011035
:103C3200D8A41EEF9EF020EF9EF039EF9EF0020412
:103C42000310D8A427EF9EF029EF9EF039EF9EF0E3
:103C520012041310D8A430EF9EF032EF9EF039EF29
:103C62009EF08968800E8A6E3D0E8B6EFFEF9FF08C
:103C720000040110D8A440EF9EF042EF9EF05BEFEB
:103C82009EF002040310D8A449EF9EF04BEF9EF081
:103C92005BEF9EF014041510D8A452EF9EF054EF7F
:103CA2009EF05BEF9EF08968000E8A6E3F0E8B6E6F
:103CB200FFEF9FF000040110D8A462EF9EF064EFC2
:103CC2009EF07DEF9EF002040310D8A46BEF9EF0ED
:103CD2006DEF9EF07DEF9EF016041710D8A474EFDE
:103CE2009EF076EF9EF07DEF9EF08968800E8A6EE0
:103CF2003B0E8B6EFFEF9FF000040110D8A484EFFF
:103D02009EF086EF9EF09FEF9EF002040310D8A46F
:103D12008DEF9EF08FEF9EF09FEF9EF0180419102A
:103D2200D8A496EF9EF098EF9EF09FEF9EF08968E0
:103D3200800E8A6E370E8B6EFFEF9FF0000401102B
:103D4200D8A4A6EF9EF0A8EF9EF0B9EF9EF00C0467
:103D52000D10D8A4AFEF9EF0B1EF9EF0B9EF9EF038
:103D6200EF0E896E800E8A6E1F0E8B6EFFEF9FF034
:103D720000040110D8A4C0EF9EF0C2EF9EF0D3EF72
:103D82009EF00E040F10D8A4C9EF9EF0CBEF9EF068
:103D9200D3EF9EF0BF0E896E800E8A6E1F0E8B6E61
:103DA200FFEF9FF000040110D8A4DAEF9EF0DCEFE1
:103DB2009EF0ECEF9EF010041110D8A4E3EF9EF0F9
:103DC200E5EF9EF0ECEF9EF08968800E8A6E1E0E83
:103DD2008B6EFFEF9FF000040110D8A4F3EF9EF06A
:103DE200F5EF9EF005EF9FF012041310D8A4FCEF3C
:103DF2009EF0FEEF9EF005EF9FF08968800E8A6EBE
:103E02001D0E8B6EFFEF9FF000040110D8A40CEF83
:103E12009FF00EEF9FF01EEF9FF014041510D8A430
:103E220015EF9FF017EF9FF01EEF9FF08968000ECD
:103E32008A6E1F0E8B6EFFEF9FF000040110D8A454
:103E420025EF9FF027EF9FF037EF9FF01604171032
:103E5200D8A42EEF9FF030EF9FF037EF9FF08968E4
:103E6200800E8A6E1B0E8B6EFFEF9FF00004011016
:103E7200D8A43EEF9FF040EF9FF050EF9FF0180460
:103E82001910D8A447EF9FF049EF9FF050EF9FF031
:103E92008968800E8A6E170E8B6EFFEF9FF0020408
:103EA2000310D8A457EF9FF059EF9FF06AEF9FF0ED
:103EB2000C040D10D8A460EF9FF062EF9FF06AEF40
:103EC2009FF0EF0E896E800E8A6E2F0E8B6EFFEFC3
:103ED2009FF002040310D8A471EF9FF073EF9FF0DC
:103EE20084EF9FF00E040F10D8A47AEF9FF07CEFBE
:103EF2009FF084EF9FF0BF0E896E800E8A6E2F0EA8
:103F02008B6EFFEF9FF002040310D8A48BEF9FF09B
:103F12008DEF9FF09DEF9FF010041110D8A494EF45
:103F22009FF096EF9FF09DEF9FF08968800E8A6E5A
:103F32002E0E8B6EFFEF9FF002040310D8A4A4EFA5
:103F42009FF0A6EF9FF0B6EF9FF012041310D8A4D3
:103F5200ADEF9FF0AFEF9FF0B6EF9FF08968800E54
:103F62008A6E2D0E8B6EFFEF9FF002040310D8A411
:103F7200BDEF9FF0BFEF9FF0CFEF9FF0140415103D
:103F8200D8A4C6EF9FF0C8EF9FF0CFEF9FF08968EB
:103F9200000E8A6E2F0E8B6EFFEF9FF0020403104D
:103FA200D8A4D6EF9FF0D8EF9FF0E8EF9FF0160469
:103FB2001710D8A4DFEF9FF0E1EF9FF0E8EF9FF03A
:103FC2008968800E8A6E2B0E8B6EFFEF9FF00204C3
:103FD2000310D8A4EFEF9FF0F1EF9FF0FFEF9FF0F7
:103FE20018041910D8A4F8EF9FF0FAEF9FF0FFEF32
:0E3FF2009FF08968800E8A6E270E8B6E12007B
:020000040030CA
:0E000000FF081F1EFF0281FF3FC03FE03F4090
:00000001FF
