:040000000CEF00F011
:10000800FACF0AF1FBCF0BF1E9CF0CF110EF0DF0AD
:1000180000EE00F010EE31F014EC00F05BEF0CF0A5
:10002800EE6AE550E150FCE1E250FAE11200000E00
:10003800010101011E6F000E01011F6F000E010179
:1000480001011E6F000E01011F6F010101011F5107
:10005800800A800F0D0ED8B41E5DD8A036EF00F0D0
:1000680038EF00F03AEF00F05EEF00F00101D890B1
:1000780001011E350101206F000E01012025E96EE6
:10008800EA6A000EEA22000EEE6E000EED6E010125
:1000980001011E4B1F2B010101011F51800A800F16
:1000A8000D0ED8B41E5DD8A05CEF00F05EEF00F036
:1000B8003AEF00F02A6663EF00F065EF00F018EF02
:1000C80002F0010101011B676CEF00F06EEF00F018
:1000D80078EF00F00101206F000E010101011D6F92
:1000E8000101205116EF02F0010101011B05D8A4FE
:1000F80080EF00F082EF00F002EF01F0BD0E010189
:1001080001011C658AEF00F08CEF00F0A8EF00F009
:10011800D30E010101011C6194EF00F096EF00F08D
:10012800A8EF00F00101206F510E010101011D6FC0
:1001380001012051010E026E000E036E010E166EB3
:10014800000E176E00EF01F0C20E010101011C65DF
:10015800B0EF00F0B2EF00F0D2EF00F0D90E0101DD
:1001680001011C61BAEF00F0BCEF00F0D2EF00F023
:100178000101206F410E010101011D6F0101205194
:10018800010E026E000E036E010E166E000E176E43
:10019800010E186E000E196E00EF01F07F0E0101BE
:1001A80001011C65DAEF00F0DCEF00F0F8EF00F079
:1001B8009B0E010101011C61E4EF00F0E6EF00F085
:1001C800F8EF00F00101206F490E010101011D6FD8
:1001D80001012051010E026E000E036E010E186E11
:1001E800000E196E00EF01F00101206F000E0101F1
:1001F80001011D6F0101205116EF02F001010101FB
:100208001B51020AD8A40BEF01F00DEF01F08DEF9E
:1002180001F0DD0E010101011C6515EF01F017EF7A
:1002280001F033EF01F0FD0E010101011C611FEF28
:1002380001F021EF01F033EF01F00101206F310EE1
:10024800010101011D6F01012051010E026E000E16
:10025800036E010E126E000E136E8BEF01F0680E26
:10026800010101011C653BEF01F03DEF01F05DEF7D
:1002780001F0B00E010101011C6145EF01F047EFEB
:1002880001F05DEF01F00101206F210E0101010174
:100298001D6F01012051010E026E000E036E010E4A
:1002A800126E000E136E010E146E000E156E8BEF9B
:1002B80001F0680E010101011C6565EF01F067EFAF
:1002C80001F083EF01F0950E010101011C616FEF50
:1002D80001F071EF01F083EF01F00101206F290EA9
:1002E800010101011D6F01012051010E026E000E76
:1002F800036E010E146E000E156E8BEF01F00101F6
:10030800206F000E010101011D6F0101205116EF40
:1003180002F0010101011B51030AD8A496EF01F074
:1003280098EF01F016EF02F00E0E010101011C65B5
:10033800A0EF01F0A2EF01F0BEEF01F06D0E010198
:1003480001011C61AAEF01F0ACEF01F0BEEF01F072
:100358000101206F110E010101011D6F01012051E2
:10036800010E026E000E036E010E0E6E000E0F6E71
:1003780016EF02F0730E010101011C65C6EF01F0D2
:10038800C8EF01F0E8EF01F0B80E010101011C61AE
:10039800D0EF01F0D2EF01F0E8EF01F00101206F9A
:1003A800010E010101011D6F01012051010E026EB4
:1003B800000E036E010E0E6E000E0F6E010E106E13
:1003C800000E116E16EF02F0BF0E010101011C654F
:1003D800F0EF01F0F2EF01F00EEF02F0E40E010190
:1003E80001011C61FAEF01F0FCEF01F00EEF02F0E1
:1003F8000101206F090E010101011D6F010120514A
:10040800010E026E000E036E010E106E000E116ECC
:1004180016EF02F00101206F000E010101011D6FAE
:100428000101205155EF0CF02A04D8A41EEF02F068
:1004380020EF02F0C9EF03F0010101011B6727EF6C
:1004480002F029EF02F033EF02F00101206F000EF5
:10045800010101011D6F01012051C7EF03F00101E6
:1004680001011B05D8A43BEF02F03DEF02F0BDEF00
:1004780002F0BA0E010101011C6545EF02F047EFD9
:1004880002F063EF02F0D60E010101011C614FEF8B
:1004980002F051EF02F063EF02F00101206F520EFB
:1004A800010101011D6F01012051010E006E000EB6
:1004B800016E010E166E000E176EBBEF02F0A00E55
:1004C800010101011C656BEF02F06DEF02F08DEF89
:1004D80002F0B70E010101011C6175EF02F077EF20
:1004E80002F08DEF02F00101206F420E01010101BF
:1004F8001D6F01012051010E006E000E016E010EEC
:10050800166E000E176E010E186E000E196EBBEFF8
:1005180002F0770E010101011C6595EF02F097EFDB
:1005280002F0B3EF02F0970E010101011C619FEF89
:1005380002F0A1EF02F0B3EF02F00101206F4A0EC2
:10054800010101011D6F01012051010E006E000E15
:10055800016E010E186E000E196EBBEF02F001015C
:10056800206F000E010101011D6F01012051C7EF2D
:1005780003F0010101011B51020AD8A4C6EF02F0E1
:10058800C8EF02F048EF03F0CD0E010101011C6530
:10059800D0EF02F0D2EF02F0EEEF02F0E90E010127
:1005A80001011C61DAEF02F0DCEF02F0EEEF02F07D
:1005B8000101206F320E010101011D6F010120515F
:1005C800010E006E000E016E010E126E000E136E0B
:1005D80046EF03F0A40E010101011C65F6EF02F0DD
:1005E800F8EF02F00CEF03F0EF0E010101011C61BE
:1005F80000EF03F002EF03F00CEF03F00101206FAE
:10060800220E010101011D6F0101205146EF03F087
:100618006C0E010101011C6514EF03F016EF03F0E5
:1006280036EF03F08D0E010101011C611EEF03F08E
:1006380020EF03F036EF03F00101206F2A0E0101CD
:1006480001011D6F01012051010E006E000E016EA7
:10065800010E126E000E136E010E146E000E156E52
:1006680046EF03F00101206F000E010101011D6F2B
:1006780001012051010E006E000E016E010E146E74
:10068800000E156EC7EF03F0010101011B51030AAB
:10069800D8A451EF03F053EF03F0C7EF03F0AF0E08
:1006A800010101011C615BEF03F05DEF03F06FEFE7
:1006B80003F00101206F120E010101011D6F0101FC
:1006C8002051010E006E000E016E010E0E6E000E1E
:1006D8000F6EC7EF03F0C00E010101011C6577EF33
:1006E80003F079EF03F099EF03F0D30E0101010154
:1006F8001C6181EF03F083EF03F099EF03F0010130
:10070800206F020E010101011D6F01012051010E30
:10071800006E000E016E010E0E6E000E0F6E010EC1
:10072800106E000E116EC7EF03F0DC0E010101011F
:100738001C65A1EF03F0A3EF03F0BFEF03F0E60E93
:10074800010101011C61ABEF03F0ADEF03F0BFEF56
:1007580003F00101206F0A0E010101011D6F010163
:100768002051010E006E000E016E010E106E000E7B
:10077800116EC7EF03F00101206F000E01010101A6
:100788001D6F0101205155EF0CF02A50020AD8A420
:10079800D0EF03F0D2EF03F085EF05F0010101017E
:1007A8001B67D9EF03F0DBEF03F0E5EF03F001017E
:1007B800206F000E010101011D6F0101205183EF1F
:1007C80005F0010101011B05D8A4EDEF03F0EFEFDF
:1007D80003F06FEF04F0D90E010101011C65F7EF7A
:1007E80003F0F9EF03F015EF04F0F30E0101010136
:1007F8001C6101EF04F003EF04F015EF04F00101B0
:10080800206F530E010101011D6F01012051010EDE
:100818000C6E000E0D6E010E166E000E176E6DEF4B
:1008280004F0A60E010101011C651DEF04F01FEF85
:1008380004F03FEF04F0C90E010101011C6127EF2C
:1008480004F029EF04F03FEF04F00101206F430E9C
:10085800010101011D6F01012051010E0C6E000EF6
:100868000D6E010E166E000E176E010E186E000E3C
:10087800196E6DEF04F0250E010101011C6547EFAB
:1008880004F049EF04F065EF04F0A10E0101010145
:100898001C6151EF04F053EF04F065EF04F001011F
:1008A800206F4B0E010101011D6F01012051010E46
:1008B8000C6E000E0D6E010E186E000E196E6DEFA7
:1008C80004F00101206F000E010101011D6F0101FB
:1008D800205183EF05F0010101011B51020AD8A440
:1008E80078EF04F07AEF04F0FAEF04F0C80E010193
:1008F80001011C6582EF04F084EF04F0A0EF04F01E
:10090800EC0E010101011C618CEF04F08EEF04F084
:10091800A0EF04F00101206F330E010101011D6FEA
:1009280001012051010E0C6E000E0D6E010E126EAB
:10093800000E136EF8EF04F07B0E010101011C6537
:10094800A8EF04F0AAEF04F0CAEF04F0B80E010112
:1009580001011C61B2EF04F0B4EF04F0CAEF04F037
:100968000101206F230E010101011D6F01012051BA
:10097800010E0C6E000E0D6E010E126E000E136E3F
:10098800010E146E000E156EF8EF04F0450E01010D
:1009980001011C65D2EF04F0D4EF04F0F0EF04F08D
:1009A8006F0E010101011C61DCEF04F0DEEF04F0C1
:1009B800F0EF04F00101206F2B0E010101011D6F02
:1009C80001012051010E0C6E000E0D6E010E146E09
:1009D800000E156EF8EF04F00101206F000E010102
:1009E80001011D6F0101205183EF05F00101010193
:1009F8001B51030AD8A403EF05F005EF05F083EFB8
:100A080005F03B0E010101011C650DEF05F00FEF2C
:100A180005F02BEF05F0580E010101011C6117EFDD
:100A280005F019EF05F02BEF05F00101206F130E0B
:100A3800010101011D6F01012051010E0C6E000E14
:100A48000D6E010E0E6E000E0F6E83EF05F0890E0F
:100A5800010101011C6533EF05F035EF05F055EF95
:100A680005F0C90E010101011C613DEF05F03FEFE2
:100A780005F055EF05F00101206F030E010101019A
:100A88001D6F01012051010E0C6E000E0D6E010E3E
:100A98000E6E000E0F6E010E106E000E116E83EFBB
:100AA80005F0D30E010101011C655DEF05F05FEF54
:100AB80005F07BEF05F0E90E010101011C6167EF0C
:100AC80005F069EF05F07BEF05F00101206F0B0ED3
:100AD800010101011D6F01012051010E0C6E000E74
:100AE8000D6E010E106E000E116E83EF05F0010100
:100AF800206F000E010101011D6F0101205155EF0A
:100B08000CF02A50030AD8A48CEF05F08EEF05F0FC
:100B180037EF07F0010101011B6795EF05F097EF2B
:100B280005F0A1EF05F00101206F000E01010101A0
:100B38001D6F0101205135EF07F0010101011B056F
:100B4800D8A4A9EF05F0ABEF05F02BEF06F0C70E20
:100B5800010101011C65B3EF05F0B5EF05F0D1EF18
:100B680005F0E70E010101011C61BDEF05F0BFEFC3
:100B780005F0D1EF05F00101206F540E01010101CC
:100B88001D6F01012051010E0A6E000E0B6E010E41
:100B9800166E000E176E29EF06F0810E0101010195
:100BA8001C65D9EF05F0DBEF05F0FBEF05F0B50E9E
:100BB800010101011C61E3EF05F0E5EF05F0FBEF32
:100BC80005F00101206F440E010101011D6F0101B3
:100BD8002051010E0A6E000E0B6E010E166E000EED
:100BE800176E010E186E000E196E29EF06F0590ED9
:100BF800010101011C6503EF06F005EF06F021EF86
:100C080006F0790E010101011C610DEF06F00FEFEE
:100C180006F021EF06F0010E0A6E000E0B6E010EB3
:100C2800186E000E196E0101206F4C0E01010101B2
:100C38001D6F0101205129EF06F00101206F000E00
:100C4800010101011D6F0101205135EF07F001017C
:100C580001011B51020AD8A434EF06F036EF06F062
:100C6800ACEF06F0CA0E010101011C653EEF06F06B
:100C780040EF06F052EF06F00101206F340E01013B
:100C880001011D6F01012051010E0A6E000E0B6E4D
:100C9800010E126E000E136EAAEF06F0810E01010E
:100CA80001011C655AEF06F05CEF06F07CEF06F0D8
:100CB800A80E010101011C6164EF06F066EF06F061
:100CC8007CEF06F00101206F240E010101011D6F68
:100CD80001012051010E0A6E000E0B6E010E126EFC
:100CE800000E136E010E146E000E156EAAEF06F0BC
:100CF800560E010101011C6584EF06F086EF06F02F
:100D0800A2EF06F07D0E010101011C618EEF06F0D5
:100D180090EF06F0A2EF06F00101206F2C0E010102
:100D280001011D6F01012051010E0A6E000E0B6EAC
:100D3800010E146E000E156EAAEF06F00101206F69
:100D4800000E010101011D6F0101205135EF07F06F
:100D5800010101011B51030AD8A4B5EF06F0B7EF52
:100D680006F035EF07F03B0E010101011C65BFEFEE
:100D780006F0C1EF06F0DDEF06F0A10E010101015A
:100D88001C61C9EF06F0CBEF06F0DDEF06F00101BC
:100D9800206F140E010101011D6F01012051010E88
:100DA8000A6E000E0B6E010E0E6E000E0F6E35EF02
:100DB80007F0900E010101011C65E5EF06F0E7EF71
:100DC80006F007EF07F0CE0E010101011C61EFEFFD
:100DD80006F0F1EF06F007EF07F00101206F040EAF
:100DE800010101011D6F01012051010E0A6E000E63
:100DF8000B6E010E0E6E000E0F6E010E106E000EC1
:100E0800116E35EF07F0E20E010101011C650FEFCD
:100E180007F011EF07F02DEF07F0F00E01010101C7
:100E28001C6119EF07F01BEF07F02DEF07F0010128
:100E3800206F0C0E010101011D6F01012051010EEF
:100E48000A6E000E0B6E010E106E000E116E35EF5D
:100E580007F00101206F000E010101011D6F010162
:100E6800205155EF0CF02A50040AD8A43EEF07F0A1
:100E780040EF07F0E9EF08F0010101011B6747EFB8
:100E880007F049EF07F053EF07F00101206F000E5C
:100E9800010101011D6F01012051E7EF08F0010177
:100EA80001011B05D8A45BEF07F05DEF07F0DDEF4C
:100EB80007F0070E010101011C6565EF07F067EFF8
:100EC80007F083EF07F0460E010101011C616FEF87
:100ED80007F071EF07F083EF07F00101206F550E5F
:100EE800010101011D6F01012051010E086E000E64
:100EF800096E010E166E000E176EDBEF07F05F0E1F
:100F0800010101011C658BEF07F08DEF07F0ADEFD4
:100F180007F0D30E010101011C6195EF07F097EF6F
:100F280007F0ADEF07F00101206F450E0101010147
:100F38001D6F01012051010E086E000E096E010E91
:100F4800166E000E176E010E186E000E196EDBEF8E
:100F580007F0D50E010101011C65B5EF07F0B7EFE9
:100F680007F0D3EF07F0E40E010101011C61BFEFA8
:100F780007F0C1EF07F0D3EF07F00101206F4D0E26
:100F8800010101011D6F01012051010E086E000EC3
:100F9800096E010E186E000E196EDBEF07F00101E5
:100FA800206F000E010101011D6F01012051E7EFC3
:100FB80008F0010101011B51020AD8A4E6EF07F06D
:100FC800E8EF07F05EEF08F0D80E010101011C659B
:100FD800F0EF07F0F2EF07F004EF08F00101206FDF
:100FE800350E010101011D6F01012051010E086E2E
:100FF800000E096E010E126E000E136E5CEF08F003
:10100800990E010101011C650CEF08F00EEF08F0C4
:101018002EEF08F0CB0E010101011C6116EF08F05C
:1010280018EF08F02EEF08F00101206F250E0101DE
:1010380001011D6F01012051010E086E000E096E9D
:10104800010E126E000E136E010E146E000E156E58
:101058005CEF08F0720E010101011C6536EF08F023
:1010680038EF08F054EF08F0920E010101011C61FD
:1010780040EF08F042EF08F054EF08F00101206F4C
:101088002D0E010101011D6F01012051010E086E95
:10109800000E096E010E146E000E156E5CEF08F05E
:1010A8000101206F000E010101011D6F0101205196
:1010B800E7EF08F0010101011B51030AD8A467EF0B
:1010C80008F069EF08F0E7EF08F0E20E010101010E
:1010D8001C6571EF08F073EF08F08FEF08F0F10E60
:1010E800010101011C617BEF08F07DEF08F08FEF33
:1010F80008F00101206F150E010101011D6F0101AA
:101108002051010E086E000E096E010E0E6E000EC3
:101118000F6EE7EF08F0B30E010101011C6597EFB0
:1011280008F099EF08F0B9EF08F0D30E01010101BA
:101138001C61A1EF08F0A3EF08F0B9EF08F0010176
:10114800206F050E010101011D6F01012051010EE3
:10115800086E000E096E010E0E6E000E0F6E010E67
:10116800106E000E116EE7EF08F0590E0101010133
:101178001C65C1EF08F0C3EF08F0DFEF08F0A60E1A
:10118800010101011C61CBEF08F0CDEF08F0DFEFA2
:1011980008F00101206F0D0E010101011D6F010111
:1011A8002051010E086E000E096E010E106E000E21
:1011B800116EE7EF08F00101206F000E0101010137
:1011C8001D6F0101205155EF0CF02A50050AD8A4D3
:1011D800F0EF08F0F2EF08F09BEF0AF001010101CF
:1011E8001B67F9EF08F0FBEF08F005EF09F00101C4
:1011F800206F000E010101011D6F0101205199EFBF
:101208000AF0010101011B05D8A40DEF09F00FEF49
:1012180009F08FEF09F0930E010101011C6517EF2A
:1012280009F019EF09F035EF09F0AF0E01010101DE
:101238001C6121EF09F023EF09F035EF09F00101F6
:10124800206F560E010101011D6F01012051010E91
:10125800066E000E076E010E166E000E176E8DEFED
:1012680009F0580E010101011C653DEF09F03FEF3F
:1012780009F05BEF09F0790E010101011C6147EFEC
:1012880009F049EF09F05BEF09F00101206F460E04
:10129800010101011D6F01012051010E066E000EB2
:1012A800076E010E186E000E196E8DEF09F0130E01
:1012B800010101011C6563EF09F065EF09F085EF95
:1012C80009F0490E010101011C616DEF09F06FEF92
:1012D80009F085EF09F00101206F4E0E01010101AF
:1012E8001D6F01012051010E066E000E076E010EE2
:1012F800166E000E176E010E186E000E196E8DEF29
:1013080009F00101206F000E010101011D6F0101AB
:10131800205199EF0AF0010101011B51020AD8A4DA
:1013280098EF09F09AEF09F010EF0AF0DE0E0101CC
:1013380001011C65A2EF09F0A4EF09F0B6EF09F06E
:101348000101206F360E010101011D6F01012051BD
:10135800010E066E000E076E010E126E000E136E61
:101368000EEF0AF0A40E010101011C65BEEF09F0A1
:10137800C0EF09F0E0EF09F0D00E010101011C6196
:10138800C8EF09F0CAEF09F0E0EF09F00101206F9A
:10139800260E010101011D6F01012051010E066E8B
:1013A800000E076E010E126E000E136E010E146E03
:1013B800000E156E0EEF0AF0830E010101011C6587
:1013C800E8EF09F0EAEF09F006EF0AF0A10E0101D3
:1013D80001011C61F2EF09F0F4EF09F006EF0AF0E1
:1013E8000101206F2E0E010101011D6F0101205125
:1013F800010E066E000E076E010E146E000E156EBD
:101408000EEF0AF00101206F000E010101011D6FAE
:101418000101205199EF0AF0010101011B51030A52
:10142800D8A419EF0AF01BEF0AF099EF0AF0930E0F
:10143800010101011C6523EF0AF025EF0AF041EFD5
:101448000AF0AF0E010101011C612DEF0AF02FEF28
:101458000AF041EF0AF00101206F160E01010101A7
:101468001D6F01012051010E066E000E076E010E60
:101478000E6E000E0F6E99EF0AF0580E0101010171
:101488001C6549EF0AF04BEF0AF06BEF0AF0790E92
:10149800010101011C6153EF0AF055EF0AF06BEFEF
:1014A8000AF00101206F060E010101011D6F010103
:1014B8002051010E066E000E076E010E0E6E000E14
:1014C8000F6E010E106E000E116E99EF0AF0130EDA
:1014D800010101011C6573EF0AF075EF0AF091EF45
:1014E8000AF0490E010101011C617DEF0AF07FEF4E
:1014F8000AF091EF0AF00101206F0E0E01010101BF
:101508001D6F01012051010E066E000E076E010EBF
:10151800106E000E116E99EF0AF00101206F000E97
:10152800010101011D6F0101205155EF0CF02A50F6
:10153800060AD8A4A2EF0AF0A4EF0AF055EF0CF0BF
:10154800010101011B67ABEF0AF0ADEF0AF0B7EF3D
:101558000AF00101206F000E010101011D6F010158
:10156800205155EF0CF0010101011B05D8A4BFEF74
:101578000AF0C1EF0AF041EF0BF0560E010101012C
:101588001C65C9EF0AF0CBEF0AF0E7EF0AF0A10EED
:10159800010101011C61D3EF0AF0D5EF0AF0E7EF72
:1015A8000AF00101206F570E010101011D6F0101B1
:1015B8002051010E046E000E056E010E166E000E0F
:1015C800176E3FEF0BF0AE0E010101011C65EFEF46
:1015D8000AF0F1EF0AF011EF0BF0D80E010101014A
:1015E8001C61F9EF0AF0FBEF0AF011EF0BF00101B3
:1015F800206F470E010101011D6F01012051010EED
:10160800046E000E056E010E166E000E176E010EAA
:10161800186E000E196E3FEF0BF0DF0E010101018D
:101628001C6519EF0BF01BEF0BF037EF0BF0E50E15
:10163800010101011C6123EF0BF025EF0BF037EFDF
:101648000BF00101206F4F0E010101011D6F010117
:101658002051010E046E000E056E010E186E000E6C
:10166800196E3FEF0BF00101206F000E010101011F
:101678001D6F0101205155EF0CF0010101011B51B3
:10168800020AD8A44AEF0BF04CEF0BF0CCEF0BF0AA
:10169800C70E010101011C6554EF0BF056EF0BF06A
:1016A80072EF0BF0E60E010101011C615EEF0BF019
:1016B80060EF0BF072EF0BF00101206F370E0101A4
:1016C80001011D6F01012051010E046E000E056E0F
:1016D800010E126E000E136ECAEF0BF08A0E010196
:1016E80001011C657AEF0BF07CEF0BF09CEF0BF01F
:1016F800C10E010101011C6184EF0BF086EF0BF0B4
:101708009CEF0BF00101206F270E010101011D6FF5
:1017180001012051010E046E000E056E010E126EBD
:10172800000E136E010E146E000E156ECAEF0BF04C
:101738006A0E010101011C65A4EF0BF0A6EF0BF086
:10174800C2EF0BF08D0E010101011C61AEEF0BF031
:10175800B0EF0BF0C2EF0BF00101206F2F0E01016B
:1017680001011D6F01012051010E046E000E056E6E
:10177800010E146E000E156ECAEF0BF00101206FFA
:10178800000E010101011D6F0101205155EF0CF000
:10179800010101011B51030AD8A4D5EF0BF0D7EFC3
:1017A8000BF055EF0CF0A40E010101011C65DFEFF1
:1017B8000BF0E1EF0BF0FDEF0BF0BF0E01010101A3
:1017C8001C61E9EF0BF0EBEF0BF0FDEF0BF0010103
:1017D800206F170E010101011D6F01012051010E3B
:1017E800046E000E056E010E0E6E000E0F6E55EFA4
:1017F8000CF0810E010101011C6505EF0CF007EFEB
:101808000CF027EF0CF0A10E010101011C610FEF94
:101818000CF011EF0CF027EF0CF00101206F070E10
:10182800010101011D6F01012051010E046E000E1E
:10183800056E010E0E6E000E0F6E010E106E000E7C
:10184800116E55EF0CF06A0E010101011C652FEFB6
:101858000CF031EF0CF04DEF0CF07E0E01010101A0
:101868001C6139EF0CF03BEF0CF04DEF0CF001016F
:10187800206F0F0E010101011D6F01012051010EA2
:10188800046E000E056E010E106E000E116E55EFFF
:101898000CF00101206F000E010101011D6F010113
:1018A8002051010101011D515AEF0CF01200720E76
:1018B800D312AF0E926E120E936E800E946E000EBF
:1018C800C26E050EC16E8D0EC06E000E2A6E800EA1
:1018D800D56E200EF26E000EB06E190EAF6E080EA9
:1018E800B86E900EAB6E200EAC6E8968800E8A6E54
:1018F8000F0E8B6EF28E000E01010101066F000EB5
:101908000101076F010E01010101046F000E0101C1
:10191800056F000E01010101066F000E0101076F3E
:10192800070E01010101065D000E01010759D8A04B
:10193800A0EF0CF0A2EF0CF0A4EF0CF0CDEF0CF040
:101948001A0E010101010625E96EEA6A000EEA2273
:10195800EF50D8B4B2EF0CF0B4EF0CF0BBEF0CF0D2
:10196800000E01010101046F000E0101056F010164
:101978000101064B072B070E01010101065D000E50
:1019880001010759D8A0CBEF0CF0CDEF0CF0A4EF74
:101998000CF00101010105510411D8B4D6EF0CF087
:1019A800D8EF0CF0E9EF0CF00101086F000E2B6E78
:1019B800010108512BC0ADFFE2EF0CF09EA8E7EF44
:1019C8000CF0E9EF0CF0E2EF0CF0EBEF0CF02E501E
:1019D800D8B4F1EF0CF0F3EF0CF0E9EF0CF01A0EBD
:1019E8002C24E96EEA6A000EEA22EF502B6E2BC017
:1019F800ADFFFFEF0CF09EA804EF0DF006EF0DF021
:101A0800FFEF0CF00101086F000E2E6E0101085166
:101A18007FEF0CF00CEF00F0EACF0DF1E1CF0EF103
:101A2800E2CF0FF1D9CF10F1DACF11F1F3CF12F1E4
:101A3800F4CF13F1F6CF14F1F7CF15F1F8CF16F173
:101A4800F5CF17F1F29EF2AA2CEF0DF02EEF0DF064
:101A58007FEF0DF0F2A433EF0DF035EF0DF07FEFCF
:101A68000DF0F1A43AEF0DF03CEF0DF07FEF0DF023
:101A78009DEC0DF01A0E2224E96EEA6A000EEA22A5
:101A880021C0EFFF230E2224E96EEA6A000EEA2243
:101A9800EF500101096F1A0E2224E96EEA6A000E5E
:101AA800EA22EF5001010919D8B45DEF0DF05FEF9C
:101AB8000DF078EF0DF00101096F010E2E6E010196
:101AC80009511A0E2224E96EEA6A000EEA22230E50
:101AD8002224E16EE26A000EE222EFCFE7FF22C085
:101AE8002CF02D6A7EEF0DF00101096F000E2E6EAD
:101AF80001010951F294F28E17C1F5FF16C1F8FFE2
:101B080015C1F7FF14C1F6FF13C1F4FF12C1F3FFAB
:101B180011C1DAFF10C1D9FF0FC1E2FF0EC1E1FF09
:101B28000DC1EAFF0CC1E9FF0BC1FBFF0AC1FAFFB7
:101B38001100C290000EC46E000EC36EC0EF0DF00F
:101B4800200EC26ED1EF0DF0240EC26ED1EF0DF053
:101B5800000EC26ED1EF0DF0040EC26ED1EF0DF083
:101B6800080EC26ED1EF0DF00C0EC26ED1EF0DF063
:101B7800100EC26ED1EF0DF02A50000AE1E0010A02
:101B8800E3E0030AE5E0010AE7E0070AE9E0010A01
:101B9800EBE0030AEDE0D1EF0DF0C280C282D5EF91
:101BA8000DF0C2B2DAEF0DF0DCEF0DF0D5EF0DF06D
:101BB800C4CF18F1C3CF19F119C11CF118C11BF119
:101BC8001BEC00F0010101011A6F1AC121F02AC0B3
:101BD80022F02A2A060E2A64F4EF0DF0F6EF0DF033
:0A1BE800F8EF0DF0000E2A6E120057
:020000040030CA
:0E000000FF081F1EFF0281FF3FC03FE03F4090
:00000001FF
