:1000000000EE00F010EE41F008EC00F096EF98F0F2
:0E001000EE6AE550E150FCE1E250FAE1120028
:020000040001F9
:10312C00720ED312000EC26E050EC16E800EC06EF2
:10313C00A00EC06E000E2E6EAF0E926E120E936E1F
:10314C00800E946E000EB06E190EAF6E080EB86E37
:10315C00900EAB6E200EAC6E000E8A6ED3EF98F014
:10316C00B8EF98F02F50D8B4BEEF98F0C0EF98F0AD
:10317C00B6EF98F0D89028340101076F1A0E0101B0
:10318C000725E96EEA6A000EEA220101EECF05F18D
:10319C000101EDCF06F128C004F1D7EC98F000EF57
:1031AC0000F0010E086E000E096E000E0A6E000E85
:1031BC000B6E010E0E6E000E0F6E08040910D8A4D3
:1031CC00EAEF98F0ECEF98F006EF99F00A040B1088
:1031DC00D8A4F3EF98F0F5EF98F006EF99F00C0403
:1031EC000D10D8A4FCEF98F0FEEF98F006EF99F0D4
:1031FC00EF0E896E700E8A6E070E8B6EFFEF9FF0CE
:10320C0008040910D8A40DEF99F00FEF99F029EFED
:10321C0099F00A040B10D8A416EF99F018EF99F056
:10322C0029EF99F00E040F10D8A41FEF99F021EF9D
:10323C0099F029EF99F0BF0E896EE00E8A6E0F0E91
:10324C008B6EFFEF9FF008040910D8A430EF99F0B3
:10325C0032EF99F04BEF99F00A040B10D8A439EF28
:10326C0099F03BEF99F04BEF99F010041110D8A4A2
:10327C0042EF99F044EF99F04BEF99F08968E00E2A
:10328C008A6E0E0E8B6EFFEF9FF008040910D8A407
:10329C0052EF99F054EF99F06DEF99F00A040B107E
:1032AC00D8A45BEF99F05DEF99F06DEF99F01204F3
:1032BC001310D8A464EF99F066EF99F06DEF99F0C4
:1032CC008968E00E8A6E0D0E8B6EFFEF9FF008047E
:1032DC000910D8A474EF99F076EF99F08FEF99F06C
:1032EC000A040B10D8A47DEF99F07FEF99F08FEFC3
:1032FC0099F014041510D8A486EF99F088EF99F082
:10330C008FEF99F08968600E8A6E0F0E8B6EFFEF4F
:10331C009FF008040910D8A496EF99F098EF99F053
:10332C00B1EF99F00A040B10D8A49FEF99F0A1EF1C
:10333C0099F0B1EF99F016041710D8A4A8EF99F0F2
:10334C00AAEF99F0B1EF99F08968E00E8A6E0B0E36
:10335C008B6EFFEF9FF008040910D8A4B8EF99F01A
:10336C00BAEF99F0D3EF99F00A040B10D8A4C1EF7F
:10337C0099F0C3EF99F0D3EF99F018041910D8A471
:10338C00CAEF99F0CCEF99F0D3EF99F08968E00E81
:10339C008A6E070E8B6EFFEF9FF008040910D8A4FD
:1033AC00DAEF99F0DCEF99F0EDEF99F00C040D10D9
:1033BC00D8A4E3EF99F0E5EF99F0EDEF99F0BF0E9B
:1033CC00896E600E8A6E070E8B6EFFEF9FF00804FD
:1033DC000910D8A4F4EF99F0F6EF99F007EF9AF0F2
:1033EC000E040F10D8A4FDEF99F0FFEF99F007EF42
:1033FC009AF0BF0E896E600E8A6E070E8B6EFFEF11
:10340C009FF008040910D8A40EEF9AF010EF9AF070
:10341C0021EF9AF010041110D8A417EF9AF019EFBD
:10342C009AF021EF9AF0EF0E896E840E8A6E0F0ED1
:10343C008B6EFFEF9FF008040910D8A428EF9AF0C8
:10344C002AEF9AF03BEF9AF012041310D8A431EF44
:10345C009AF033EF9AF03BEF9AF0EF0E896E840EF0
:10346C008A6E0F0E8B6EFFEF9FF008040910D8A424
:10347C0042EF9AF044EF9AF055EF9AF014041510BD
:10348C00D8A44BEF9AF04DEF9AF055EF9AF0EF0E5F
:10349C00896E840E8A6E0F0E8B6EFFEF9FF0080400
:1034AC000910D8A45CEF9AF05EEF9AF06FEF9AF0E7
:1034BC0016041710D8A465EF9AF067EF9AF06FEF27
:1034CC009AF0EF0E896E840E8A6E0F0E8B6EFFEFE4
:1034DC009FF008040910D8A476EF9AF078EF9AF0D0
:1034EC0089EF9AF018041910D8A47FEF9AF081EFA5
:1034FC009AF089EF9AF0EF0E896E840E8A6E0F0E99
:10350C008B6EFFEF9FF00A040B10D8A490EF9AF08B
:10351C0092EF9AF0A3EF9AF00C040D10D8A499EF47
:10352C009AF09BEF9AF0A3EF9AF0EF0E896E840E4F
:10353C008A6E0F0E8B6EFFEF9FF00A040B10D8A44F
:10354C00AAEF9AF0ACEF9AF0BDEF9AF00E040F10C0
:10355C00D8A4B3EF9AF0B5EF9AF0BDEF9AF0EF0E56
:10356C00896E840E8A6E0F0E8B6EFFEF9FF00A042D
:10357C000B10D8A4C4EF9AF0C6EF9AF0D7EF9AF0DC
:10358C0010041110D8A4CDEF9AF0CFEF9AF0D7EF2A
:10359C009AF0EF0E896E840E8A6E0F0E8B6EFFEF13
:1035AC009FF00A040B10D8A4DEEF9AF0E0EF9AF02B
:1035BC00F1EF9AF012041310D8A4E7EF9AF0E9EFA8
:1035CC009AF0F1EF9AF0EF0E896E840E8A6E0F0E60
:1035DC008B6EFFEF9FF00A040B10D8A4F8EF9AF053
:1035EC00FAEF9AF00BEF9BF014041510D8A401EF2E
:1035FC009BF003EF9BF00BEF9BF0EF0E896E840EAC
:10360C008A6E0F0E8B6EFFEF9FF00A040B10D8A47E
:10361C0012EF9BF014EF9BF025EF9BF016041710A4
:10362C00D8A41BEF9BF01DEF9BF025EF9BF0EF0E4A
:10363C00896E840E8A6E0F0E8B6EFFEF9FF00A045C
:10364C000B10D8A42CEF9BF02EEF9BF03FEF9BF0D0
:10365C0018041910D8A435EF9BF037EF9BF03FEF0F
:10366C009BF0EF0E896E840E8A6E0F0E8B6EFFEF41
:10367C009FF004040510D8A446EF9BF048EF9BF094
:10368C0062EF9BF006040710D8A44FEF9BF051EFAC
:10369C009BF062EF9BF00C040D10D8A458EF9BF03C
:1036AC005AEF9BF062EF9BF0EF0E896E840E8A6EE0
:1036BC000F0E8B6EFFEF9FF004040510D8A469EF7A
:1036CC009BF06BEF9BF085EF9BF006040710D8A4E2
:1036DC0072EF9BF074EF9BF085EF9BF00E040F10D4
:1036EC00D8A47BEF9BF07DEF9BF085EF9BF0EF0E6A
:1036FC00896E840E8A6E0F0E8B6EFFEF9FF00404A2
:10370C000510D8A48CEF9BF08EEF9BF0A8EF9BF0EC
:10371C0006040710D8A495EF9BF097EF9BF0A8EF49
:10372C009BF010041110D8A49EEF9BF0A0EF9BF01F
:10373C00A8EF9BF0EF0E896E840E8A6E0F0E8B6EC7
:10374C00FFEF9FF004040510D8A4AFEF9BF0B1EF8E
:10375C009BF0CBEF9BF006040710D8A4B8EF9BF0BE
:10376C00BAEF9BF0CBEF9BF012041310D8A4C1EF6F
:10377C009BF0C3EF9BF0CBEF9BF0EF0E896E840EAA
:10378C008A6E0F0E8B6EFFEF9FF004040510D8A409
:10379C00D2EF9BF0D4EF9BF0EEEF9BF006040710FA
:1037AC00D8A4DBEF9BF0DDEF9BF0EEEF9BF0140465
:1037BC001510D8A4E4EF9BF0E6EF9BF0EEEF9BF036
:1037CC00EF0E896E840E8A6E0F0E8B6EFFEF9FF0DC
:1037DC0004040510D8A4F5EF9BF0F7EF9BF011EF64
:1037EC009CF006040710D8A4FEEF9BF000EF9CF0B1
:1037FC0011EF9CF016041710D8A407EF9CF009EFFA
:10380C009CF011EF9CF0EF0E896E840E8A6E0F0EF9
:10381C008B6EFFEF9FF004040510D8A418EF9CF0FA
:10382C001AEF9CF034EF9CF006040710D8A421EF9B
:10383C009CF023EF9CF034EF9CF018041910D8A4E2
:10384C002AEF9CF02CEF9CF034EF9CF0EF0E896E7D
:10385C00840E8A6E0F0E8B6EFFEF9FF00404051022
:10386C00D8A43BEF9CF03DEF9CF04EEF9CF00C0489
:10387C000D10D8A444EF9CF046EF9CF04EEF9CF05A
:10388C00EF0E896E840E8A6E0F0E8B6EFFEF9FF01B
:10389C0004040510D8A455EF9CF057EF9CF068EF8A
:1038AC009CF00E040F10D8A45EEF9CF060EF9CF01F
:1038BC0068EF9CF0EF0E896E840E8A6E0F0E8B6E85
:1038CC00FFEF9FF004040510D8A46FEF9CF071EF8C
:1038DC009CF082EF9CF010041110D8A478EF9CF0AF
:1038EC007AEF9CF082EF9CF0EF0E896E840E8A6E5C
:1038FC000F0E8B6EFFEF9FF004040510D8A489EF18
:10390C009CF08BEF9CF09CEF9CF012041310D8A44D
:10391C0092EF9CF094EF9CF09CEF9CF0EF0E896E74
:10392C00840E8A6E0F0E8B6EFFEF9FF00404051051
:10393C00D8A4A3EF9CF0A5EF9CF0B6EF9CF0140478
:10394C001510D8A4ACEF9CF0AEEF9CF0B6EF9CF049
:10395C00EF0E896E840E8A6E0F0E8B6EFFEF9FF04A
:10396C0004040510D8A4BDEF9CF0BFEF9CF0D0EF81
:10397C009CF016041710D8A4C6EF9CF0C8EF9CF06E
:10398C00D0EF9CF0EF0E896E840E8A6E0F0E8B6E4C
:10399C00FFEF9FF004040510D8A4D7EF9CF0D9EFEB
:1039AC009CF0EAEF9CF018041910D8A4E0EF9CF0FE
:1039BC00E2EF9CF0EAEF9CF0EF0E896E840E8A6EBB
:1039CC000F0E8B6EFFEF9FF006040710D8A4F1EFDB
:1039DC009CF0F3EF9CF004EF9DF00C040D10D8A4B8
:1039EC00FAEF9CF0FCEF9CF004EF9DF0EF0E896E6B
:1039FC00840E8A6E0F0E8B6EFFEF9FF0060407107D
:103A0C00D8A40BEF9DF00DEF9DF01EEF9DF00E0472
:103A1C000F10D8A414EF9DF016EF9DF01EEF9DF043
:103A2C00EF0E896E840E8A6E0F0E8B6EFFEF9FF079
:103A3C0006040710D8A425EF9DF027EF9DF038EF72
:103A4C009DF010041110D8A42EEF9DF030EF9DF0D6
:103A5C0038EF9DF0EF0E896E840E8A6E0F0E8B6E12
:103A6C00FFEF9FF006040710D8A43FEF9DF041EF45
:103A7C009DF052EF9DF012041310D8A448EF9DF066
:103A8C004AEF9DF052EF9DF0EF0E896E840E8A6E18
:103A9C000F0E8B6EFFEF9FF006040710D8A459EFA2
:103AAC009DF05BEF9DF06CEF9DF014041510D8A405
:103ABC0062EF9DF064EF9DF06CEF9DF0EF0E896E60
:103ACC00840E8A6E0F0E8B6EFFEF9FF006040710AC
:103ADC00D8A473EF9DF075EF9DF086EF9DF0160462
:103AEC001710D8A47CEF9DF07EEF9DF086EF9DF033
:103AFC00EF0E896E840E8A6E0F0E8B6EFFEF9FF0A9
:103B0C0006040710D8A48DEF9DF08FEF9DF0A0EF69
:103B1C009DF018041910D8A496EF9DF098EF9DF025
:103B2C00A0EF9DF0EF0E896E840E8A6E0F0E8B6ED9
:103B3C00FFEF9FF000040110D8A4A7EF9DF0A9EFB0
:103B4C009DF0C3EF9DF002040310D8A4B0EF9DF0DC
:103B5C00B2EF9DF0C3EF9DF00C040D10D8A4B9EF9B
:103B6C009DF0BBEF9DF0C3EF9DF0EF0E896E840EC0
:103B7C008A6E0F0E8B6EFFEF9FF000040110D8A41D
:103B8C00CAEF9DF0CCEF9DF0E6EF9DF00204031020
:103B9C00D8A4D3EF9DF0D5EF9DF0E6EF9DF00E0489
:103BAC000F10D8A4DCEF9DF0DEEF9DF0E6EF9DF05A
:103BBC00EF0E896E840E8A6E0F0E8B6EFFEF9FF0E8
:103BCC0000040110D8A4EDEF9DF0EFEF9DF009EF8C
:103BDC009EF002040310D8A4F6EF9DF0F8EF9DF0D0
:103BEC0009EF9EF010041110D8A4FFEF9DF001EF27
:103BFC009EF009EF9EF0EF0E896E840E8A6E0F0E0A
:103C0C008B6EFFEF9FF000040110D8A410EF9EF014
:103C1C0012EF9EF02CEF9EF002040310D8A419EFC3
:103C2C009EF01BEF9EF02CEF9EF012041310D8A404
:103C3C0022EF9EF024EF9EF02CEF9EF0EF0E896E9B
:103C4C00840E8A6E0F0E8B6EFFEF9FF00004011036
:103C5C00D8A433EF9EF035EF9EF04FEF9EF00204A8
:103C6C000310D8A43CEF9EF03EEF9EF04FEF9EF079
:103C7C0014041510D8A445EF9EF047EF9EF04FEFBB
:103C8C009EF0EF0E896E840E8A6E0F0E8B6EFFEF18
:103C9C009FF000040110D8A456EF9EF058EF9EF050
:103CAC0072EF9EF002040310D8A45FEF9EF061EF58
:103CBC009EF072EF9EF016041710D8A468EF9EF0D9
:103CCC006AEF9EF072EF9EF0EF0E896E840E8A6E94
:103CDC000F0E8B6EFFEF9FF000040110D8A479EF4C
:103CEC009EF07BEF9EF095EF9EF002040310D8A49B
:103CFC0082EF9EF084EF9EF095EF9EF01804191061
:103D0C00D8A48BEF9EF08DEF9EF095EF9EF0EF0E0A
:103D1C00896E840E8A6E0F0E8B6EFFEF9FF000047F
:103D2C000110D8A49CEF9EF09EEF9EF0AFEF9EF09A
:103D3C000C040D10D8A4A5EF9EF0A7EF9EF0AFEFEA
:103D4C009EF0EF0E896E840E8A6E0F0E8B6EFFEF57
:103D5C009FF000040110D8A4B6EF9EF0B8EF9EF0CF
:103D6C00C9EF9EF00E040F10D8A4BFEF9EF0C1EF68
:103D7C009EF0C9EF9EF0EF0E896E840E8A6E0F0EC8
:103D8C008B6EFFEF9FF000040110D8A4D0EF9EF0D3
:103D9C00D2EF9EF0E3EF9EF010041110D8A4D9EFEF
:103DAC009EF0DBEF9EF0E3EF9EF0EF0E896E840E3B
:103DBC008A6E0F0E8B6EFFEF9FF000040110D8A4DB
:103DCC00EAEF9EF0ECEF9EF0FDEF9EF01204131064
:103DDC00D8A4F3EF9EF0F5EF9EF0FDEF9EF0EF0E02
:103DEC00896E840E8A6E0F0E8B6EFFEF9FF00004AF
:103DFC000110D8A404EF9FF006EF9FF017EF9FF08F
:103E0C0014041510D8A40DEF9FF00FEF9FF017EFCF
:103E1C009FF0EF0E896E840E8A6E0F0E8B6EFFEF85
:103E2C009FF000040110D8A41EEF9FF020EF9FF02C
:103E3C0031EF9FF016041710D8A427EF9FF029EF4D
:103E4C009FF031EF9FF0EF0E896E840E8A6E0F0E8D
:103E5C008B6EFFEF9FF000040110D8A438EF9FF099
:103E6C003AEF9FF04BEF9FF018041910D8A441EFD4
:103E7C009FF043EF9FF04BEF9FF0EF0E896E840E97
:103E8C008A6E0F0E8B6EFFEF9FF002040310D8A406
:103E9C0052EF9FF054EF9FF065EF9FF00C040D1064
:103EAC00D8A45BEF9FF05DEF9FF065EF9FF0EF0EF6
:103EBC00896E840E8A6E0F0E8B6EFFEF9FF00204DC
:103ECC000310D8A46CEF9FF06EEF9FF07FEF9FF084
:103EDC000E040F10D8A475EF9FF077EF9FF07FEFD3
:103EEC009FF0EF0E896E840E8A6E0F0E8B6EFFEFB5
:103EFC009FF002040310D8A486EF9FF088EF9FF088
:103F0C0099EF9FF010041110D8A48FEF9FF091EF50
:103F1C009FF099EF9FF0EF0E896E840E8A6E0F0E54
:103F2C008B6EFFEF9FF002040310D8A4A0EF9FF05C
:103F3C00A2EF9FF0B3EF9FF012041310D8A4A9EFD7
:103F4C009FF0ABEF9FF0B3EF9FF0EF0E896E840EF6
:103F5C008A6E0F0E8B6EFFEF9FF002040310D8A435
:103F6C00BAEF9FF0BCEF9FF0CDEF9FF0140415104B
:103F7C00D8A4C3EF9FF0C5EF9FF0CDEF9FF0EF0EED
:103F8C00896E840E8A6E0F0E8B6EFFEF9FF002040B
:103F9C000310D8A4D4EF9FF0D6EF9FF0E7EF9FF07B
:103FAC0016041710D8A4DDEF9FF0DFEF9FF0E7EFBA
:103FBC009FF0EF0E896E840E8A6E0F0E8B6EFFEFE4
:103FCC009FF002040310D8A4EEEF9FF0F0EF9FF0E7
:103FDC00FFEF9FF018041910D8A4F7EF9FF0F9EF3A
:103FEC009FF0FFEF9FF0EF0E896E840E8A6E0F0E1E
:043FFC008B6E1200B6
:020000040030CA
:0E000000FF081F1EFF0281FF3FC03FE03F4090
:00000001FF
