:040000000CEF00F011
:10000800FACF05F1FBCF06F1E9CF07F1E8EF0FF0E2
:1000180000EE00F010EE46F014EC00F046EF11F0A0
:10002800EE6AE550E150FCE1E250FAE112000066A8
:1000380020EF00F022EF00F081EF01F00101010153
:10004800166729EF00F02BEF00F035EF00F0010103
:10005800196F000E01010101186F010119517FEF9D
:1000680001F0010101011605D8A43DEF00F03FEFB2
:1000780000F0A3EF00F0BD0E01010101176547EF85
:1000880000F049EF00F05DEF00F0D30E010101012F
:10009800176151EF00F053EF00F05DEF00F0010140
:1000A800196F510E01010101186F01011951A1EFDA
:1000B80000F0C20E01010101176565EF00F067EF5E
:1000C80000F07BEF00F0D90E0101010117616FEF1D
:1000D80000F071EF00F07BEF00F00101196F410EA5
:1000E80001010101186F01011951A1EF00F07F0E04
:1000F80001010101176583EF00F085EF00F099EF2A
:1001080000F09B0E0101010117618DEF00F08FEFE8
:1001180000F099EF00F00101196F490E010101018A
:10012800186F01011951A1EF00F00101196F000EBC
:1001380001010101186F010119517FEF01F001015F
:1001480001011651020AD8A4ACEF00F0AEEF00F09E
:1001580012EF01F0DD0E010101011765B6EF00F0A5
:10016800B8EF00F0CCEF00F0FD0E010101011761BE
:10017800C0EF00F0C2EF00F0CCEF00F00101196F02
:10018800310E01010101186F0101195110EF01F041
:10019800680E010101011765D4EF00F0D6EF00F0F9
:1001A800EAEF00F0B00E010101011761DEEF00F087
:1001B800E0EF00F0EAEF00F00101196F210E0101F4
:1001C8000101186F0101195110EF01F0680E0101CA
:1001D80001011765F2EF00F0F4EF00F008EF01F00D
:1001E800950E010101011761FCEF00F0FEEF00F030
:1001F80008EF01F00101196F290E01010101186FC3
:100208000101195110EF01F00101196F000E0101F0
:100218000101186F010119517FEF01F0010101017E
:100228001651030AD8A41BEF01F01DEF01F07FEF70
:1002380001F00E0E01010101176525EF01F027EF0E
:1002480001F03BEF01F06D0E0101010117612FEF85
:1002580001F031EF01F03BEF01F00101196F110ED0
:1002680001010101186F010119517FEF01F0730EAF
:1002780001010101176543EF01F045EF01F059EF66
:1002880001F0B80E0101010117614DEF01F04FEFC8
:1002980001F059EF01F00101196F010E010101018F
:1002A800186F010119517FEF01F0BF0E0101010123
:1002B800176561EF01F063EF01F077EF01F0E40EED
:1002C8000101010117616BEF01F06DEF01F077EFAC
:1002D80001F00101196F090E01010101186F0101F7
:1002E80019517FEF01F00101196F000E01010101A1
:1002F800186F01011951C6EF09F00004D8A487EF5F
:1003080001F089EF01F0DEEF02F00101010116674B
:1003180090EF01F092EF01F09CEF01F00101196FED
:10032800000E01010101186F01011951DCEF02F003
:10033800010101011605D8A4A4EF01F0A6EF01F010
:100348000AEF02F0BA0E010101011765AEEF01F0E4
:10035800B0EF01F0C4EF01F0D60E01010101176101
:10036800B8EF01F0BAEF01F0C4EF01F00101196F25
:10037800520E01010101186F0101195108EF02F035
:10038800A00E010101011765CCEF01F0CEEF01F0DD
:10039800E2EF01F0B70E010101011761D6EF01F09C
:1003A800D8EF01F0E2EF01F00101196F420E0101EF
:1003B8000101186F0101195108EF02F0770E0101D0
:1003C80001011765EAEF01F0ECEF01F000EF02F030
:1003D800970E010101011761F4EF01F0F6EF01F04A
:1003E80000EF02F00101196F4A0E01010101186FB7
:1003F8000101195108EF02F00101196F000E010106
:100408000101186F01011951DCEF02F0010101012E
:100418001651020AD8A413EF02F015EF02F079EF93
:1004280002F0CD0E0101010117651DEF02F01FEF6B
:1004380002F033EF02F0E90E01010101176127EF25
:1004480002F029EF02F033EF02F00101196F320ECA
:1004580001010101186F0101195177EF02F0A40E93
:100468000101010117653BEF02F03DEF02F051EF8A
:1004780002F0EF0E01010101176145EF02F047EFAD
:1004880002F051EF02F00101196F220E0101010182
:10049800186F0101195177EF02F06C0E010101018B
:1004A800176559EF02F05BEF02F06FEF02F08D0E67
:1004B80001010101176163EF02F065EF02F06FEFD0
:1004C80002F00101196F2A0E01010101186F0101E3
:1004D800195177EF02F00101196F000E01010101B6
:1004E800186F01011951DCEF02F0010101011651E9
:1004F800030AD8A482EF02F084EF02F0DCEF02F0E6
:10050800AF0E0101010117618CEF02F08EEF02F0CE
:1005180098EF02F00101196F120E01010101186F25
:1005280001011951DCEF02F0C00E0101010117654C
:10053800A0EF02F0A2EF02F0B6EF02F0D30E010135
:1005480001011761AAEF02F0ACEF02F0B6EF02F07A
:100558000101196F020E01010101186F0101195102
:10056800DCEF02F0DC0E010101011765BEEF02F0BD
:10057800C0EF02F0D4EF02F0E60E010101011761AD
:10058800C8EF02F0CAEF02F0D4EF02F00101196FD0
:100598000A0E01010101186F01011951DCEF02F087
:1005A8000101196F000E01010101186F01011951B4
:1005B800C6EF09F00050020AD8A4E5EF02F0E7EF11
:1005C80002F046EF04F0010101011667EEEF02F0B8
:1005D800F0EF02F0FAEF02F00101196F000E0101CD
:1005E8000101186F0101195144EF04F001010101E3
:1005F8001605D8A402EF03F004EF03F068EF03F048
:10060800D90E0101010117650CEF03F00EEF03F09D
:1006180022EF03F0F30E01010101176116EF03F059
:1006280018EF03F022EF03F00101196F530E0101D7
:100638000101186F0101195166EF03F0A60E0101BF
:10064800010117652AEF03F02CEF03F040EF03F0E8
:10065800C90E01010101176134EF03F036EF03F011
:1006680040EF03F00101196F430E01010101186FFA
:100678000101195166EF03F0250E0101010117650B
:1006880048EF03F04AEF03F05EEF03F0A10E01011B
:100698000101176152EF03F054EF03F05EEF03F02E
:1006A8000101196F4B0E01010101186F0101195168
:1006B80066EF03F00101196F000E01010101186FC7
:1006C8000101195144EF04F0010101011651020A18
:1006D800D8A471EF03F073EF03F0D7EF03F0C80E5F
:1006E8000101010117657BEF03F07DEF03F091EF46
:1006F80003F0EC0E01010101176185EF03F087EFAC
:1007080003F091EF03F00101196F330E01010101AC
:10071800186F01011951D5EF03F07B0E010101019A
:10072800176599EF03F09BEF03F0AFEF03F0B80EF6
:10073800010101011761A3EF03F0A5EF03F0AFEF8B
:1007480003F00101196F230E01010101186F010166
:100758001951D5EF03F0450E010101011765B7EFF7
:1007680003F0B9EF03F0CDEF03F06F0E01010101C3
:100778001761C1EF03F0C3EF03F0CDEF03F0010100
:10078800196F2B0E01010101186F01011951D5EFE5
:1007980003F00101196F000E01010101186F010139
:1007A800195144EF04F0010101011651030AD8A4BC
:1007B800E0EF03F0E2EF03F044EF04F03B0E010139
:1007C80001011765EAEF03F0ECEF03F000EF04F026
:1007D800580E010101011761F4EF03F0F6EF03F081
:1007E80000EF04F00101196F130E01010101186FE8
:1007F8000101195144EF04F0890E01010101176547
:1008080008EF04F00AEF04F01EEF04F0C90E01012E
:100818000101176112EF04F014EF04F01EEF04F069
:100828000101196F030E01010101186F010119512E
:1008380044EF04F0D30E01010101176526EF04F01F
:1008480028EF04F03CEF04F0E90E01010101176103
:1008580030EF04F032EF04F03CEF04F00101196FBF
:100868000B0E01010101186F0101195144EF04F049
:100878000101196F000E01010101186F01011951E1
:10088800C6EF09F00050030AD8A44DEF04F04FEF6B
:1008980004F0A4EF05F001010101166756EF04F01A
:1008A80058EF04F062EF04F00101196F000E010126
:1008B8000101186F01011951A2EF05F001010101B1
:1008C8001605D8A46AEF04F06CEF04F0D0EF04F03A
:1008D800C70E01010101176574EF04F076EF04F00B
:1008E8008AEF04F0E70E0101010117617EEF04F0C1
:1008F80080EF04F08AEF04F00101196F540E010132
:100908000101186F01011951CEEF04F0810E0101A8
:100918000101176592EF04F094EF04F0A8EF04F0DA
:10092800B50E0101010117619CEF04F09EEF04F080
:10093800A8EF04F00101196F440E01010101186FBD
:1009480001011951CEEF04F0590E0101010117659B
:10095800B0EF04F0B2EF04F0C6EF04F0790E010135
:1009680001011761BAEF04F0BCEF04F0C6EF04F020
:100978000101196F4C0E01010101186F0101195194
:10098800CEEF04F00101196F000E01010101186F8B
:1009980001011951A2EF05F0010101011651020AE6
:1009A800D8A4D9EF04F0DBEF04F035EF05F0CA0E58
:1009B800010101011765E3EF04F0E5EF04F0EFEF43
:1009C80004F00101196F340E01010101186F0101D2
:1009D800195133EF05F0810E010101011765F7EF99
:1009E80004F0F9EF04F00DEF05F0A80E0101010184
:1009F800176101EF05F003EF05F00DEF05F00101B8
:100A0800196F240E01010101186F0101195133EF0B
:100A180005F0560E01010101176515EF05F017EFF6
:100A280005F02BEF05F07D0E0101010117611FEFA5
:100A380005F021EF05F02BEF05F00101196F2C0EE1
:100A480001010101186F0101195133EF05F001018E
:100A5800196F000E01010101186F01011951A2EF70
:100A680005F0010101011651030AD8A43EEF05F073
:100A780040EF05F0A2EF05F03B0E010101011765FB
:100A880048EF05F04AEF05F05EEF05F0A10E010111
:100A98000101176152EF05F054EF05F05EEF05F024
:100AA8000101196F140E01010101186F010119519B
:100AB800A2EF05F0900E01010101176566EF05F040
:100AC80068EF05F07CEF05F0CE0E0101010117611A
:100AD80070EF05F072EF05F07CEF05F00101196F7A
:100AE800040E01010101186F01011951A2EF05F06F
:100AF800E20E01010101176584EF05F086EF05F0AC
:100B08009AEF05F0F00E0101010117618EEF05F073
:100B180090EF05F09AEF05F00101196F0C0E010135
:100B28000101186F01011951A2EF05F00101196FB8
:100B3800000E01010101186F01011951C6EF09F0FA
:100B48000050040AD8A4ABEF05F0ADEF05F002EFB2
:100B580007F0010101011667B4EF05F0B6EF05F0E3
:100B6800C0EF05F00101196F000E01010101186FB6
:100B78000101195100EF07F0010101011605D8A480
:100B8800C8EF05F0CAEF05F02EEF06F0070E0101D9
:100B980001011765D2EF05F0D4EF05F0E8EF05F095
:100BA800460E010101011761DCEF05F0DEEF05F0EB
:100BB800E8EF05F00101196F550E01010101186FE9
:100BC800010119512CEF06F05F0E010101011765B3
:100BD800F0EF05F0F2EF05F006EF06F0D30E010195
:100BE80001011761FAEF05F0FCEF05F006EF06F0DA
:100BF8000101196F450E01010101186F0101195119
:100C08002CEF06F0D50E0101010117650EEF06F075
:100C180010EF06F024EF06F0E40E01010101176160
:100C280018EF06F01AEF06F024EF06F00101196F2D
:100C38004D0E01010101186F010119512CEF06F049
:100C48000101196F000E01010101186F010119510D
:100C580000EF07F0010101011651020AD8A437EF8D
:100C680006F039EF06F093EF06F0D80E0101010106
:100C7800176541EF06F043EF06F04DEF06F001016E
:100C8800196F350E01010101186F0101195191EF1A
:100C980006F0990E01010101176555EF06F057EFAF
:100CA80006F06BEF06F0CB0E0101010117615FEF53
:100CB80006F061EF06F06BEF06F00101196F250EE3
:100CC80001010101186F0101195191EF06F0720E2F
:100CD80001010101176573EF06F075EF06F089EF62
:100CE80006F0920E0101010117617DEF06F07FEF1A
:100CF80006F089EF06F00101196F2D0E01010101BF
:100D0800186F0101195191EF06F00101196F000EDA
:100D180001010101186F0101195100EF07F00101EC
:100D280001011651030AD8A49CEF06F09EEF06F0C5
:100D380000EF07F0E20E010101011765A6EF06F0CA
:100D4800A8EF06F0BCEF06F0F10E010101011761F2
:100D5800B0EF06F0B2EF06F0BCEF06F00101196F34
:100D6800150E01010101186F0101195100EF07F07B
:100D7800B30E010101011765C4EF06F0C6EF06F0D6
:100D8800DAEF06F0D30E010101011761CEEF06F08C
:100D9800D0EF06F0DAEF06F00101196F050E010138
:100DA8000101186F0101195100EF07F0590E0101F7
:100DB80001011765E2EF06F0E4EF06F0F8EF06F040
:100DC800A60E010101011761ECEF06F0EEEF06F047
:100DD800F8EF06F00101196F0D0E01010101186FFE
:100DE8000101195100EF07F00101196F000E01010F
:100DF8000101186F01011951C6EF09F00050050AE9
:100E0800D8A409EF07F00BEF07F060EF08F0010135
:100E18000101166712EF07F014EF07F01EEF07F055
:100E28000101196F000E01010101186F010119512B
:100E38005EEF08F0010101011605D8A426EF07F0BE
:100E480028EF07F08CEF07F0930E010101011765F9
:100E580030EF07F032EF07F046EF07F0AF0E010171
:100E6800010117613AEF07F03CEF07F046EF07F092
:100E78000101196F560E01010101186F0101195185
:100E88008AEF07F0580E0101010117654EEF07F0D0
:100E980050EF07F064EF07F0790E010101011761C7
:100EA80058EF07F05AEF07F064EF07F00101196FE8
:100EB800460E01010101186F010119518AEF07F06F
:100EC800130E0101010117656CEF07F06EEF07F0D3
:100ED80082EF07F0490E01010101176176EF07F073
:100EE80078EF07F082EF07F00101196F4E0E01014C
:100EF8000101186F010119518AEF07F00101196FFB
:100F0800000E01010101186F010119515EEF08F08F
:100F1800010101011651020AD8A495EF07F097EFD5
:100F280007F0F1EF07F0DE0E0101010117659FEFF1
:100F380007F0A1EF07F0ABEF07F00101196F360ECC
:100F480001010101186F01011951EFEF07F0A40E1B
:100F5800010101011765B3EF07F0B5EF07F0C9EF1D
:100F680007F0D00E010101011761BDEF07F0BFEFD7
:100F780007F0C9EF07F00101196F260E0101010101
:100F8800186F01011951EFEF07F0830E01010101FC
:100F98001765D1EF07F0D3EF07F0E7EF07F0A10EE1
:100FA800010101011761DBEF07F0DDEF07F0E7EF63
:100FB80007F00101196F2E0E01010101186F0101DF
:100FC8001951EFEF07F00101196F000E010101013E
:100FD800186F010119515EEF08F001010101165166
:100FE800030AD8A4FAEF07F0FCEF07F05EEF08F069
:100FF800930E01010101176504EF08F006EF08F0F0
:101008001AEF08F0AF0E0101010117610EEF08F0A9
:1010180010EF08F01AEF08F00101196F160E010120
:101028000101186F010119515EEF08F0580E010116
:101038000101176522EF08F024EF08F038EF08F0F7
:10104800790E0101010117612CEF08F02EEF08F06D
:1010580038EF08F00101196F060E01010101186F40
:10106800010119515EEF08F0130E01010101176526
:1010780040EF08F042EF08F056EF08F0490E010182
:10108800010117614AEF08F04CEF08F056EF08F03D
:101098000101196F0E0E01010101186F01011951AB
:1010A8005EEF08F00101196F000E01010101186FD0
:1010B80001011951C6EF09F00050060AD8A467EFDC
:1010C80008F069EF08F0C6EF09F0010101011667A1
:1010D80070EF08F072EF08F07CEF08F00101196F6B
:1010E800000E01010101186F01011951C6EF09F045
:1010F800010101011605D8A484EF08F086EF08F075
:10110800EAEF08F0560E0101010117658EEF08F0AD
:1011180090EF08F0A4EF08F0A10E0101010117619A
:1011280098EF08F09AEF08F0A4EF08F00101196FA2
:10113800570E01010101186F01011951E8EF08F07C
:10114800AE0E010101011765ACEF08F0AEEF08F033
:10115800C2EF08F0D80E010101011761B6EF08F0DF
:10116800B8EF08F0C2EF08F00101196F470E01014E
:101178000101186F01011951E8EF08F0DF0E0101B4
:1011880001011765CAEF08F0CCEF08F0E0EF08F0AE
:10119800E50E010101011761D4EF08F0D6EF08F060
:1011A800E0EF08F00101196F4F0E01010101186FFE
:1011B80001011951E8EF08F00101196F000E010152
:1011C8000101186F01011951C6EF09F00101010170
:1011D8001651020AD8A4F3EF08F0F5EF08F059EF1A
:1011E80009F0C70E010101011765FDEF08F0FFEFD7
:1011F80008F013EF09F0E60E01010101176107EF8E
:1012080009F009EF09F013EF09F00101196F370E22
:1012180001010101186F0101195157EF09F08A0EF8
:101228000101010117651BEF09F01DEF09F031EF0E
:1012380009F0C10E01010101176125EF09F027EF3F
:1012480009F031EF09F00101196F270E01010101C1
:10125800186F0101195157EF09F06A0E01010101D8
:10126800176539EF09F03BEF09F04FEF09F08D0EE4
:1012780001010101176143EF09F045EF09F04FEF54
:1012880009F00101196F2F0E01010101186F010109
:10129800195157EF09F00101196F000E0101010101
:1012A800186F01011951C6EF09F00101010116512A
:1012B800030AD8A462EF09F064EF09F0C6EF09F059
:1012C800A40E0101010117656CEF09F06EEF09F03A
:1012D80082EF09F0BF0E01010101176176EF09F0F5
:1012E80078EF09F082EF09F00101196F170E01017B
:1012F8000101186F01011951C6EF09F0810E0101B2
:10130800010117658AEF09F08CEF09F0A0EF09F0E9
:10131800A10E01010101176194EF09F096EF09F0A0
:10132800A0EF09F00101196F070E01010101186F03
:1013380001011951C6EF09F06A0E01010101176593
:10134800A8EF09F0AAEF09F0BEEF09F07E0E01013F
:1013580001011761B2EF09F0B4EF09F0BEEF09F02F
:101368000101196F0F0E01010101186F01011951D7
:10137800C6EF09F00101196F000E01010101186F94
:1013880001011951010101011851CBEF09F01200B7
:101398000250020AD8A4D3EF09F0D5EF09F0E6EF1E
:1013A80009F00150030AD8A4DCEF09F0DEEF09F0D8
:1013B800E6EF09F0EF0E896EE00E8A6E0F0E8B6E67
:1013C800E7EF0FF00250030AD8A4EDEF09F0EFEFB2
:1013D80009F000EF0AF00150040AD8A4F6EF09F06A
:1013E800F8EF09F000EF0AF0BF0E896EE00E8A6E82
:1013F8000F0E8B6EE7EF0FF00250040AD8A407EF28
:101408000AF009EF0AF019EF0AF00150050AD8A40A
:1014180010EF0AF012EF0AF019EF0AF08968E00EEF
:101428008A6E0E0E8B6EE7EF0FF00250050AD8A4F5
:1014380020EF0AF022EF0AF032EF0AF00150060A14
:10144800D8A429EF0AF02BEF0AF032EF0AF08968E6
:10145800E00E8A6E0D0E8B6EE7EF0FF00250060A53
:10146800D8A439EF0AF03BEF0AF04BEF0AF001502D
:10147800070AD8A442EF0AF044EF0AF04BEF0AF04B
:101488008968600E8A6E0F0E8B6EE7EF0FF00266AA
:1014980050EF0AF052EF0AF061EF0AF00104D8A405
:1014A80058EF0AF05AEF0AF061EF0AF08968E00E87
:1014B8008A6E0B0E8B6EE7EF0FF00204D8A467EF6D
:1014C8000AF069EF0AF079EF0AF00150020AD8A48D
:1014D80070EF0AF072EF0AF079EF0AF08968E00E0F
:1014E8008A6E070E8B6EE7EF0FF00250020AD8A43F
:1014F80080EF0AF082EF0AF093EF0AF001500B0A2E
:10150800D8A489EF0AF08BEF0AF093EF0AF0EF0EF8
:10151800896EC00E8A6E0F0E8B6EE7EF0FF00250C9
:10152800030AD8A49AEF0AF09CEF0AF0ADEF0AF08C
:1015380001500C0AD8A4A3EF0AF0A5EF0AF0ADEF0A
:101548000AF0BF0E896EC00E8A6E0F0E8B6EE7EF23
:101558000FF00250040AD8A4B4EF0AF0B6EF0AF06C
:10156800C6EF0AF001500D0AD8A4BDEF0AF0BFEF8C
:101578000AF0C6EF0AF08968C00E8A6E0E0E8B6EEE
:10158800E7EF0FF00250050AD8A4CDEF0AF0CFEF2D
:101598000AF0DFEF0AF00150160AD8A4D6EF0AF0D5
:1015A800D8EF0AF0DFEF0AF08968C00E8A6E0D0ED8
:1015B8008B6EE7EF0FF00250060AD8A4E6EF0AF0A8
:1015C800E8EF0AF0F8EF0AF00150170AD8A4EFEF95
:1015D8000AF0F1EF0AF0F8EF0AF08968400E8A6E17
:1015E8000F0E8B6EE7EF0FF00266FDEF0AF0FFEFCC
:1015F8000AF00FEF0BF00150090AD8A406EF0BF020
:1016080008EF0BF00FEF0BF08968C00E8A6E0B0E17
:101618008B6EE7EF0FF00204D8A415EF0BF017EF6D
:101628000BF027EF0BF001500A0AD8A41EEF0BF0BD
:1016380020EF0BF027EF0BF08968C00E8A6E070EBB
:101648008B6EE7EF0FF00250020AD8A42EEF0BF0D2
:1016580030EF0BF041EF0BF00150130AD8A437EF2D
:101668000BF039EF0BF041EF0BF0EF0E896EA00E87
:101678008A6E0F0E8B6EE7EF0FF00250030AD8A4A4
:1016880048EF0BF04AEF0BF05BEF0BF00150140A38
:10169800D8A451EF0BF053EF0BF05BEF0BF0BF0E3C
:1016A800896EA00E8A6E0F0E8B6EE7EF0FF0025058
:1016B800040AD8A462EF0BF064EF0BF074EF0BF0A0
:1016C8000150150AD8A46BEF0BF06DEF0BF074EF17
:1016D8000BF08968A00E8A6E0E0E8B6EE7EF0FF086
:1016E8000250050AD8A47BEF0BF07DEF0BF08DEFCD
:1016F8000BF001500E0AD8A484EF0BF086EF0BF024
:101708008DEF0BF08968A00E8A6E0D0E8B6EE7EFD9
:101718000FF00250060AD8A494EF0BF096EF0BF0E6
:10172800A6EF0BF001500F0AD8A49DEF0BF09FEF26
:101738000BF0A6EF0BF08968200E8A6E0F0E8B6EE9
:10174800E7EF0FF00266ABEF0BF0ADEF0BF0BDEF7C
:101758000BF00150110AD8A4B4EF0BF0B6EF0BF060
:10176800BDEF0BF08968A00E8A6E0B0E8B6EE7EF4B
:101778000FF00204D8A4C3EF0BF0C5EF0BF0D5EFC0
:101788000BF00150120AD8A4CCEF0BF0CEEF0BF0FF
:10179800D5EF0BF08968A00E8A6E070E8B6EE7EF07
:1017A8000FF00250020AD8A4DCEF0BF0DEEF0BF0CA
:1017B800EFEF0BF00150230AD8A4E5EF0BF0E7EFA9
:1017C8000BF0EFEF0BF0EF0E896E8C0E8A6E0F0E9A
:1017D8008B6EE7EF0FF00250030AD8A4F6EF0BF078
:1017E800F8EF0BF009EF0CF00150240AD8A4FFEF32
:1017F8000BF001EF0CF009EF0CF0BF0E896E8C0EA8
:101808008A6E0F0E8B6EE7EF0FF00250040AD8A411
:1018180010EF0CF012EF0CF022EF0CF00150250A3B
:10182800D8A419EF0CF01BEF0CF022EF0CF089682C
:101838008C0E8A6E0E0E8B6EE7EF0FF00250050AC3
:10184800D8A429EF0CF02BEF0CF03BEF0CF0015073
:10185800260AD8A432EF0CF034EF0CF03BEF0CF072
:1018680089688C0E8A6E0D0E8B6EE7EF0FF00250B2
:10187800060AD8A442EF0CF044EF0CF054EF0CF039
:101888000150270AD8A44BEF0CF04DEF0CF054EFA1
:101898000CF089680C0E8A6E0F0E8B6EE7EF0FF056
:1018A800026659EF0CF05BEF0CF06BEF0CF0015097
:1018B800210AD8A462EF0CF064EF0CF06BEF0CF087
:1018C80089688C0E8A6E0B0E8B6EE7EF0FF00204A0
:1018D800D8A471EF0CF073EF0CF083EF0CF001500B
:1018E800220AD8A47AEF0CF07CEF0CF083EF0CF00E
:1018F80089688C0E8A6E070E8B6EE7EF0FF0025028
:10190800020AD8A48AEF0CF08CEF0CF09DEF0CF0D3
:1019180001502B0AD8A493EF0CF095EF0CF09DEF33
:101928000CF0EF0E896E840E8A6E0F0E8B6EE7EF49
:101938000FF00250030AD8A4A4EF0CF0A6EF0CF0A5
:10194800B7EF0CF001502C0AD8A4ADEF0CF0AFEFB4
:101958000CF0B7EF0CF0BF0E896E840E8A6E0F0E76
:101968008B6EE7EF0FF00250040AD8A4BEEF0CF01C
:10197800C0EF0CF0D0EF0CF001502D0AD8A4C7EF3F
:101988000CF0C9EF0CF0D0EF0CF08968840E8A6E69
:101998000E0E8B6EE7EF0FF00250050AD8A4D7EFB2
:1019A8000CF0D9EF0CF0E9EF0CF001502E0AD8A496
:1019B800E0EF0CF0E2EF0CF0E9EF0CF08968840E30
:1019C8008A6E0D0E8B6EE7EF0FF00250060AD8A450
:1019D800F0EF0CF0F2EF0CF002EF0DF001502F0ACF
:1019E800D8A4F9EF0CF0FBEF0CF002EF0DF08968CA
:1019F800040E8A6E0F0E8B6EE7EF0FF0026607EF8C
:101A08000DF009EF0DF019EF0DF00150290AD8A4D7
:101A180010EF0DF012EF0DF019EF0DF08968840E3C
:101A28008A6E0B0E8B6EE7EF0FF00204D8A41FEF3F
:101A38000DF021EF0DF031EF0DF001502A0AD8A476
:101A480028EF0DF02AEF0DF031EF0DF08968840EC4
:101A58008A6E070E8B6EE7EF0FF00250020AD8A4C9
:101A680038EF0DF03AEF0DF04BEF0DF00150330A5F
:101A7800D8A441EF0DF043EF0DF04BEF0DF0EF0E52
:101A8800896E880E8A6E0F0E8B6EE7EF0FF002508C
:101A9800030AD8A452EF0DF054EF0DF065EF0DF0E6
:101AA8000150340AD8A45BEF0DF05DEF0DF065EF3F
:101AB8000DF0BF0E896E880E8A6E0F0E8B6EE7EFE3
:101AC8000FF00250040AD8A46CEF0DF06EEF0DF081
:101AD8007EEF0DF00150350AD8A475EF0DF077EFC1
:101AE8000DF07EEF0DF08968880E8A6E0E0E8B6EF3
:101AF800E7EF0FF00250050AD8A485EF0DF087EF45
:101B08000DF097EF0DF00150360AD8A48EEF0DF0C6
:101B180090EF0DF097EF0DF08968880E8A6E0D0E24
:101B28008B6EE7EF0FF00250060AD8A49EEF0DF077
:101B3800A0EF0DF0B0EF0DF00150370AD8A4A7EFD1
:101B48000DF0A9EF0DF0B0EF0DF08968080E8A6E60
:101B58000F0E8B6EE7EF0FF00266B5EF0DF0B7EFE3
:101B68000DF0C7EF0DF00150310AD8A4BEEF0DF00B
:101B7800C0EF0DF0C7EF0DF08968880E8A6E0B0E66
:101B88008B6EE7EF0FF00204D8A4CDEF0DF0CFEF86
:101B98000DF0DFEF0DF00150320AD8A4D6EF0DF0AA
:101BA800D8EF0DF0DFEF0DF08968880E8A6E070E0A
:101BB8008B6EE7EF0FF00250020AD8A4E6EF0DF0A3
:101BC800E8EF0DF0F9EF0DF00150430AD8A4EFEF5C
:101BD8000DF0F1EF0DF0F9EF0DF0EF0E896E800EBC
:101BE8008A6E3F0E8B6EE7EF0FF00250030AD8A4FF
:101BF80000EF0EF002EF0EF013EF0EF00150440A62
:101C0800D8A409EF0EF00BEF0EF013EF0EF0BF0E95
:101C1800896E800E8A6E3F0E8B6EE7EF0FF00250D2
:101C2800040AD8A41AEF0EF01CEF0EF02CEF0EF0F9
:101C38000150450AD8A423EF0EF025EF0EF02CEF43
:101C48000EF08968800E8A6E3E0E8B6EE7EF0FF0FD
:101C58000250050AD8A433EF0EF035EF0EF045EF29
:101C68000EF00150460AD8A43CEF0EF03EEF0EF0FD
:101C780045EF0EF08968800E8A6E3D0E8B6EE7EF99
:101C88000FF00250060AD8A44CEF0EF04EEF0EF0FB
:101C98005EEF0EF00150470AD8A455EF0EF057EF4B
:101CA8000EF05EEF0EF08968000E8A6E3F0E8B6EA6
:101CB800E7EF0FF0026663EF0EF065EF0EF075EFD9
:101CC8000EF00150410AD8A46CEF0EF06EEF0EF042
:101CD80075EF0EF08968800E8A6E3B0E8B6EE7EF0B
:101CE8000FF00204D8A47BEF0EF07DEF0EF08DEF1D
:101CF8000EF00150420AD8A484EF0EF086EF0EF0E1
:101D08008DEF0EF08968800E8A6E370E8B6EE7EFC6
:101D18000FF00250020AD8A494EF0EF096EF0EF0DE
:101D2800A7EF0EF001504B0AD8A49DEF0EF09FEFDD
:101D38000EF0A7EF0EF0EF0E896E800E8A6E1F0E62
:101D48008B6EE7EF0FF00250030AD8A4AEEF0EF047
:101D5800B0EF0EF0C1EF0EF001504C0AD8A4B7EF67
:101D68000EF0B9EF0EF0C1EF0EF0BF0E896E800EC7
:101D78008A6E1F0E8B6EE7EF0FF00250040AD8A48C
:101D8800C8EF0EF0CAEF0EF0DAEF0EF001504D0A70
:101D9800D8A4D1EF0EF0D3EF0EF0DAEF0EF0896889
:101DA800800E8A6E1E0E8B6EE7EF0FF00250050A4A
:101DB800D8A4E1EF0EF0E3EF0EF0F3EF0EF00150D0
:101DC8004E0AD8A4EAEF0EF0ECEF0EF0F3EF0EF0A7
:101DD8008968800E8A6E1D0E8B6EE7EF0FF0025039
:101DE800060AD8A4FAEF0EF0FCEF0EF00CEF0FF095
:101DF80001504F0AD8A403EF0FF005EF0FF00CEFD6
:101E08000FF08968000E8A6E1F0E8B6EE7EF0FF0D9
:101E1800026611EF0FF013EF0FF023EF0FF00150F0
:101E2800490AD8A41AEF0FF01CEF0FF023EF0FF0B8
:101E38008968800E8A6E1B0E8B6EE7EF0FF0020426
:101E4800D8A429EF0FF02BEF0FF03BEF0FF0015064
:101E58004A0AD8A432EF0FF034EF0FF03BEF0FF03F
:101E68008968800E8A6E170E8B6EE7EF0FF00250AE
:101E7800020AD8A442EF0FF044EF0FF055EF0FF02D
:101E88000150530AD8A44BEF0FF04DEF0FF055EF68
:101E98000FF0EF0E896E800E8A6E2F0E8B6EE7EFB5
:101EA8000FF00250030AD8A45CEF0FF05EEF0FF0BA
:101EB8006FEF0FF00150540AD8A465EF0FF067EFE9
:101EC8000FF06FEF0FF0BF0E896E800E8A6E2F0E27
:101ED8008B6EE7EF0FF00250040AD8A476EF0FF0EC
:101EE80078EF0FF088EF0FF00150550AD8A47FEF74
:101EF8000FF081EF0FF088EF0FF08968800E8A6E7F
:101F08002E0E8B6EE7EF0FF00250050AD8A48FEF64
:101F18000FF091EF0FF0A1EF0FF00150560AD8A47F
:101F280098EF0FF09AEF0FF0A1EF0FF08968800E8D
:101F38008A6E2D0E8B6EE7EF0FF00250060AD8A4BA
:101F4800A8EF0FF0AAEF0FF0BAEF0FF00150570A01
:101F5800D8A4B1EF0FF0B3EF0FF0BAEF0FF0896824
:101F6800000E8A6E2F0E8B6EE7EF0FF00266BFEF42
:101F78000FF0C1EF0FF0D1EF0FF00150510AD8A4C4
:101F8800C8EF0FF0CAEF0FF0D1EF0FF08968800E9D
:101F98008A6E2B0E8B6EE7EF0FF00204D8A4D7EFF2
:101FA8000FF0D9EF0FF0E7EF0FF00150520AD8A465
:101FB800E0EF0FF0E2EF0FF0E7EF0FF08968800E27
:101FC8008A6E270E8B6E1200EACF08F1E1CF09F175
:101FD800E2CF0AF1D9CF0BF1DACF0CF1F3CF0DF143
:101FE800F4CF0EF1F6CF0FF1F7CF10F1F8CF11F1D2
:101FF800F5CF12F1F29EF2AA04EF10F006EF10F0FE
:102008001EEF11F0F2A40BEF10F00DEF10F01EEF21
:1020180011F0F1A412EF10F014EF10F01EEF11F010
:10202800CEEC11F002661BEF10F01DEF10F03AEF46
:1020380010F0105001140118D8A425EF10F027EF64
:1020480010F036EF10F001C0ADFF2BEF10F09EA896
:1020580030EF10F032EF10F02BEF10F0CCEC09F06D
:1020680036EF10F001C010F01BEF11F00204D8A4F5
:1020780040EF10F042EF10F05FEF10F01350011432
:102088000118D8A44AEF10F04CEF10F05BEF10F0F5
:1020980001C0ADFF50EF10F09EA855EF10F057EFBC
:1020A80010F050EF10F0CCEC09F05BEF10F001C02D
:1020B80013F01BEF11F00250020AD8A466EF10F0DB
:1020C80068EF10F085EF10F0165001140118D8A42D
:1020D80070EF10F072EF10F081EF10F001C0ADFF5B
:1020E80076EF10F09EA87BEF10F07DEF10F076EF02
:1020F80010F0CCEC09F081EF10F001C016F01BEFE6
:1021080011F00250030AD8A48CEF10F08EEF10F0F3
:10211800ABEF10F0075001140118D8A496EF10F097
:1021280098EF10F0A7EF10F001C0ADFF9CEF10F092
:102138009EA8A1EF10F0A3EF10F09CEF10F0CCECEC
:1021480009F0A7EF10F001C007F01BEF11F00250E3
:10215800040AD8A4B2EF10F0B4EF10F0D1EF10F0E9
:10216800045001140118D8A4BCEF10F0BEEF10F011
:10217800CDEF10F001C0ADFFC2EF10F09EA8C7EF81
:1021880010F0C9EF10F0C2EF10F0CCEC09F0CDEF71
:1021980010F001C004F01BEF11F00250050AD8A49A
:1021A800D8EF10F0DAEF10F0F7EF10F00D5001143F
:1021B8000118D8A4E2EF10F0E4EF10F0F3EF10F0FC
:1021C80001C0ADFFE8EF10F09EA8EDEF10F0EFEFC3
:1021D80010F0E8EF10F0CCEC09F0F3EF10F001C0CC
:1021E8000DF01BEF11F00250060AD8A4FEEF10F014
:1021F80000EF11F01BEF11F00A5001140118D8A4D8
:1022080008EF11F00AEF11F019EF11F001C0ADFF5E
:102218000EEF11F09EA813EF11F015EF11F00EEF6D
:1022280011F0CCEC09F019EF11F001C00AF0F294AA
:1022380028EF11F09EAA23EF11F025EF11F028EFF7
:1022480011F0AECF03F09E9AF28E12C1F5FF11C1C4
:10225800F8FF10C1F7FF0FC1F6FF0EC1F4FF0DC163
:10226800F3FF0CC1DAFF0BC1D9FF0AC1E2FF09C1B4
:10227800E1FF08C1EAFF07C1E9FF06C1FBFF05C18D
:10228800FAFF1100720ED312AF0E926E120E936EF9
:10229800800E946E000EC26E050EC16E8D0EC06E5D
:1022A800000E006E800ED56E200EF26E9D8A000E16
:1022B800B06E190EAF6E080EB86E900EAB6E200E93
:1022C800AC6E8968800E8A6E0F0E8B6EF28E036676
:1022D80070EF11F072EF11F07EEF11F074EF11F062
:1022E8000350D8B47AEF11F07CEF11F074EF11F0CD
:1022F800CAEF11F00304D8A484EF11F086EF11F0AF
:1023080094EF11F0800EF26E8AEF11F00304D8B446
:1023180090EF11F092EF11F08AEF11F0CAEF11F07F
:102328000350020AD8A49BEF11F09DEF11F0ACEF17
:1023380011F0800EF26EA1EF11F00350020AD8B42A
:10234800A8EF11F0AAEF11F0A1EF11F0CAEF11F008
:102358000350030AD8A4B3EF11F0B5EF11F0C4EF9E
:1023680011F0800EF26EB9EF11F00350030AD8B4E1
:10237800C0EF11F0C2EF11F0B9EF11F0CAEF11F090
:102388000101046F000E036E0101045146EF11F0C4
:102398000CEF00F0C290000EC46E000EC36EF1EF99
:1023A80011F0200EC26E02EF12F0240EC26E02EF80
:1023B80012F0000EC26E02EF12F0040EC26E02EFAF
:1023C80012F0080EC26E02EF12F00C0EC26E02EF8F
:1023D80012F0100EC26E02EF12F00050000AE1E097
:1023E800010AE3E0030AE5E0010AE7E0070AE9E099
:1023F800010AEBE0030AEDE002EF12F0C280C282AC
:1024080006EF12F0C2B20BEF12F00DEF12F006EF6A
:1024180012F0C4CF13F1C3CF14F114C117F113C1D3
:1024280016F11BEC00F001010101156F15C101F057
:1024380000C002F0002A060E006425EF12F027EF14
:0C24480012F029EF12F0000E006E1200DE
:020000040030CA
:0E000000FF081F1EFF0281FF3FC03FE03F4090
:00000001FF
