:040000000CEF00F011
:10000800FACF06F1FBCF07F1E9CF08F15BEF0CF06F
:1000180000EE00F010EE31F014EC00F06BEF0DF094
:10002800EE6AE550E150FCE1E250FAE11200000E00
:10003800010101011A6F000E01011B6F000E010181
:1000480001011A6F000E01011B6F010101011B5113
:10005800800A800F0D0ED8B41A5DD8A036EF00F0D4
:1000680038EF00F03AEF00F05EEF00F00101D890B1
:1000780001011A3501011C6F000E01011C25E96EF2
:10008800EA6A000EEA22000EEE6E000EED6E010125
:1000980001011A4B1B2B010101011B51800A800F22
:1000A8000D0ED8B41A5DD8A05CEF00F05EEF00F03A
:1000B8003AEF00F02A6663EF00F065EF00F018EF02
:1000C80002F00101010117676CEF00F06EEF00F01C
:1000D80078EF00F001011C6F000E01010101196F9A
:1000E80001011C5116EF02F0010101011705D8A406
:1000F80080EF00F082EF00F002EF01F0BD0E010189
:10010800010118658AEF00F08CEF00F0A8EF00F00D
:10011800D30E01010101186194EF00F096EF00F091
:10012800A8EF00F001011C6F510E01010101196FC8
:1001380001011C51010E026E000E036E010E166EB7
:10014800000E176E00EF01F0C20E010101011865E3
:10015800B0EF00F0B2EF00F0D2EF00F0D90E0101DD
:1001680001011861BAEF00F0BCEF00F0D2EF00F027
:1001780001011C6F410E01010101196F01011C51A0
:10018800010E026E000E036E010E166E000E176E43
:10019800010E186E000E196E00EF01F07F0E0101BE
:1001A80001011865DAEF00F0DCEF00F0F8EF00F07D
:1001B8009B0E010101011861E4EF00F0E6EF00F089
:1001C800F8EF00F001011C6F490E01010101196FE0
:1001D80001011C51010E026E000E036E010E186E15
:1001E800000E196E00EF01F001011C6F000E0101F5
:1001F8000101196F01011C5116EF02F00101010103
:100208001751020AD8A40BEF01F00DEF01F08DEFA2
:1002180001F0DD0E01010101186515EF01F017EF7E
:1002280001F033EF01F0FD0E0101010118611FEF2C
:1002380001F021EF01F033EF01F001011C6F310EE5
:1002480001010101196F01011C51010E026E000E1E
:10025800036E010E126E000E136E8BEF01F0680E26
:100268000101010118653BEF01F03DEF01F05DEF81
:1002780001F0B00E01010101186145EF01F047EFEF
:1002880001F05DEF01F001011C6F210E0101010178
:10029800196F01011C51010E026E000E036E010E52
:1002A800126E000E136E010E146E000E156E8BEF9B
:1002B80001F0680E01010101186565EF01F067EFB3
:1002C80001F083EF01F0950E0101010118616FEF54
:1002D80001F071EF01F083EF01F001011C6F290EAD
:1002E80001010101196F01011C51010E026E000E7E
:1002F800036E010E146E000E156E8BEF01F00101F6
:100308001C6F000E01010101196F01011C5116EF4C
:1003180002F0010101011751030AD8A496EF01F078
:1003280098EF01F016EF02F00E0E010101011865B9
:10033800A0EF01F0A2EF01F0BEEF01F06D0E010198
:1003480001011861AAEF01F0ACEF01F0BEEF01F076
:1003580001011C6F110E01010101196F01011C51EE
:10036800010E026E000E036E010E0E6E000E0F6E71
:1003780016EF02F0730E010101011865C6EF01F0D6
:10038800C8EF01F0E8EF01F0B80E010101011861B2
:10039800D0EF01F0D2EF01F0E8EF01F001011C6F9E
:1003A800010E01010101196F01011C51010E026EBC
:1003B800000E036E010E0E6E000E0F6E010E106E13
:1003C800000E116E16EF02F0BF0E01010101186553
:1003D800F0EF01F0F2EF01F00EEF02F0E40E010190
:1003E80001011861FAEF01F0FCEF01F00EEF02F0E5
:1003F80001011C6F090E01010101196F01011C5156
:10040800010E026E000E036E010E106E000E116ECC
:1004180016EF02F001011C6F000E01010101196FB6
:1004280001011C5155EF0CF02A04D8A41EEF02F06C
:1004380020EF02F0C9EF03F001010101176727EF70
:1004480002F029EF02F033EF02F001011C6F000EF9
:1004580001010101196F01011C51C7EF03F00101EE
:1004680001011705D8A43BEF02F03DEF02F0BDEF04
:1004780002F0BA0E01010101186545EF02F047EFDD
:1004880002F063EF02F0D60E0101010118614FEF8F
:1004980002F051EF02F063EF02F001011C6F520EFF
:1004A80001010101196F01011C51010E006E000EBE
:1004B800016E010E166E000E176EBBEF02F0A00E55
:1004C8000101010118656BEF02F06DEF02F08DEF8D
:1004D80002F0B70E01010101186175EF02F077EF24
:1004E80002F08DEF02F001011C6F420E01010101C3
:1004F800196F01011C51010E006E000E016E010EF4
:10050800166E000E176E010E186E000E196EBBEFF8
:1005180002F0770E01010101186595EF02F097EFDF
:1005280002F0B3EF02F0970E0101010118619FEF8D
:1005380002F0A1EF02F0B3EF02F001011C6F4A0EC6
:1005480001010101196F01011C51010E006E000E1D
:10055800016E010E186E000E196EBBEF02F001015C
:100568001C6F000E01010101196F01011C51C7EF39
:1005780003F0010101011751020AD8A4C6EF02F0E5
:10058800C8EF02F048EF03F0CD0E01010101186534
:10059800D0EF02F0D2EF02F0EEEF02F0E90E010127
:1005A80001011861DAEF02F0DCEF02F0EEEF02F081
:1005B80001011C6F320E01010101196F01011C516B
:1005C800010E006E000E016E010E126E000E136E0B
:1005D80046EF03F0A40E010101011865F6EF02F0E1
:1005E800F8EF02F00CEF03F0EF0E010101011861C2
:1005F80000EF03F002EF03F00CEF03F001011C6FB2
:10060800220E01010101196F01011C5146EF03F08F
:100618006C0E01010101186514EF03F016EF03F0E9
:1006280036EF03F08D0E0101010118611EEF03F092
:1006380020EF03F036EF03F001011C6F2A0E0101D1
:100648000101196F01011C51010E006E000E016EAF
:10065800010E126E000E136E010E146E000E156E52
:1006680046EF03F001011C6F000E01010101196F33
:1006780001011C51010E006E000E016E010E146E78
:10068800000E156EC7EF03F0010101011751030AAF
:10069800D8A451EF03F053EF03F0C7EF03F0AF0E08
:1006A8000101010118615BEF03F05DEF03F06FEFEB
:1006B80003F001011C6F120E01010101196F010104
:1006C8001C51010E006E000E016E010E0E6E000E22
:1006D8000F6EC7EF03F0C00E01010101186577EF37
:1006E80003F079EF03F099EF03F0D30E0101010154
:1006F800186181EF03F083EF03F099EF03F0010134
:100708001C6F020E01010101196F01011C51010E3C
:10071800006E000E016E010E0E6E000E0F6E010EC1
:10072800106E000E116EC7EF03F0DC0E010101011F
:100738001865A1EF03F0A3EF03F0BFEF03F0E60E97
:10074800010101011861ABEF03F0ADEF03F0BFEF5A
:1007580003F001011C6F0A0E01010101196F01016B
:100768001C51010E006E000E016E010E106E000E7F
:10077800116EC7EF03F001011C6F000E01010101AA
:10078800196F01011C5155EF0CF02A50020AD8A428
:10079800D0EF03F0D2EF03F085EF05F0010101017E
:1007A8001767D9EF03F0DBEF03F0E5EF03F0010182
:1007B8001C6F000E01010101196F01011C5183EF2B
:1007C80005F0010101011705D8A4EDEF03F0EFEFE3
:1007D80003F06FEF04F0D90E010101011865F7EF7E
:1007E80003F0F9EF03F015EF04F0F30E0101010136
:1007F800186101EF04F003EF04F015EF04F00101B4
:100808001C6F530E01010101196F01011C51010EEA
:100818000C6E000E0D6E010E166E000E176E6DEF4B
:1008280004F0A60E0101010118651DEF04F01FEF89
:1008380004F03FEF04F0C90E01010101186127EF30
:1008480004F029EF04F03FEF04F001011C6F430EA0
:1008580001010101196F01011C51010E0C6E000EFE
:100868000D6E010E166E000E176E010E186E000E3C
:10087800196E6DEF04F0250E01010101186547EFAF
:1008880004F049EF04F065EF04F0A10E0101010145
:10089800186151EF04F053EF04F065EF04F0010123
:1008A8001C6F4B0E01010101196F01011C51010E52
:1008B8000C6E000E0D6E010E186E000E196E6DEFA7
:1008C80004F001011C6F000E01010101196F010103
:1008D8001C5183EF05F0010101011751020AD8A448
:1008E80078EF04F07AEF04F0FAEF04F0C80E010193
:1008F8000101186582EF04F084EF04F0A0EF04F022
:10090800EC0E0101010118618CEF04F08EEF04F088
:10091800A0EF04F001011C6F330E01010101196FF2
:1009280001011C51010E0C6E000E0D6E010E126EAF
:10093800000E136EF8EF04F07B0E0101010118653B
:10094800A8EF04F0AAEF04F0CAEF04F0B80E010112
:1009580001011861B2EF04F0B4EF04F0CAEF04F03B
:1009680001011C6F230E01010101196F01011C51C6
:10097800010E0C6E000E0D6E010E126E000E136E3F
:10098800010E146E000E156EF8EF04F0450E01010D
:1009980001011865D2EF04F0D4EF04F0F0EF04F091
:1009A8006F0E010101011861DCEF04F0DEEF04F0C5
:1009B800F0EF04F001011C6F2B0E01010101196F0A
:1009C80001011C51010E0C6E000E0D6E010E146E0D
:1009D800000E156EF8EF04F001011C6F000E010106
:1009E8000101196F01011C5183EF05F0010101019B
:1009F8001751030AD8A403EF05F005EF05F083EFBC
:100A080005F03B0E0101010118650DEF05F00FEF30
:100A180005F02BEF05F0580E01010101186117EFE1
:100A280005F019EF05F02BEF05F001011C6F130E0F
:100A380001010101196F01011C51010E0C6E000E1C
:100A48000D6E010E0E6E000E0F6E83EF05F0890E0F
:100A580001010101186533EF05F035EF05F055EF99
:100A680005F0C90E0101010118613DEF05F03FEFE6
:100A780005F055EF05F001011C6F030E010101019E
:100A8800196F01011C51010E0C6E000E0D6E010E46
:100A98000E6E000E0F6E010E106E000E116E83EFBB
:100AA80005F0D30E0101010118655DEF05F05FEF58
:100AB80005F07BEF05F0E90E01010101186167EF10
:100AC80005F069EF05F07BEF05F001011C6F0B0ED7
:100AD80001010101196F01011C51010E0C6E000E7C
:100AE8000D6E010E106E000E116E83EF05F0010100
:100AF8001C6F000E01010101196F01011C5155EF16
:100B08000CF02A50030AD8A48CEF05F08EEF05F0FC
:100B180037EF07F001010101176795EF05F097EF2F
:100B280005F0A1EF05F001011C6F000E01010101A4
:100B3800196F01011C5135EF07F00101010117057B
:100B4800D8A4A9EF05F0ABEF05F02BEF06F0C70E20
:100B5800010101011865B3EF05F0B5EF05F0D1EF1C
:100B680005F0E70E010101011861BDEF05F0BFEFC7
:100B780005F0D1EF05F001011C6F540E01010101D0
:100B8800196F01011C51010E0A6E000E0B6E010E49
:100B9800166E000E176E29EF06F0810E0101010195
:100BA8001865D9EF05F0DBEF05F0FBEF05F0B50EA2
:100BB800010101011861E3EF05F0E5EF05F0FBEF36
:100BC80005F001011C6F440E01010101196F0101BB
:100BD8001C51010E0A6E000E0B6E010E166E000EF1
:100BE800176E010E186E000E196E29EF06F0590ED9
:100BF80001010101186503EF06F005EF06F021EF8A
:100C080006F0790E0101010118610DEF06F00FEFF2
:100C180006F021EF06F0010E0A6E000E0B6E010EB3
:100C2800186E000E196E01011C6F4C0E01010101B6
:100C3800196F01011C5129EF06F001011C6F000E0C
:100C480001010101196F01011C5135EF07F0010184
:100C580001011751020AD8A434EF06F036EF06F066
:100C6800ACEF06F0CA0E0101010118653EEF06F06F
:100C780040EF06F052EF06F001011C6F340E01013F
:100C88000101196F01011C51010E0A6E000E0B6E55
:100C9800010E126E000E136EAAEF06F0810E01010E
:100CA800010118655AEF06F05CEF06F07CEF06F0DC
:100CB800A80E01010101186164EF06F066EF06F065
:100CC8007CEF06F001011C6F240E01010101196F70
:100CD80001011C51010E0A6E000E0B6E010E126E00
:100CE800000E136E010E146E000E156EAAEF06F0BC
:100CF800560E01010101186584EF06F086EF06F033
:100D0800A2EF06F07D0E0101010118618EEF06F0D9
:100D180090EF06F0A2EF06F001011C6F2C0E010106
:100D28000101196F01011C51010E0A6E000E0B6EB4
:100D3800010E146E000E156EAAEF06F001011C6F6D
:100D4800000E01010101196F01011C5135EF07F077
:100D5800010101011751030AD8A4B5EF06F0B7EF56
:100D680006F035EF07F03B0E010101011865BFEFF2
:100D780006F0C1EF06F0DDEF06F0A10E010101015A
:100D88001861C9EF06F0CBEF06F0DDEF06F00101C0
:100D98001C6F140E01010101196F01011C51010E94
:100DA8000A6E000E0B6E010E0E6E000E0F6E35EF02
:100DB80007F0900E010101011865E5EF06F0E7EF75
:100DC80006F007EF07F0CE0E010101011861EFEF01
:100DD80006F0F1EF06F007EF07F001011C6F040EB3
:100DE80001010101196F01011C51010E0A6E000E6B
:100DF8000B6E010E0E6E000E0F6E010E106E000EC1
:100E0800116E35EF07F0E20E0101010118650FEFD1
:100E180007F011EF07F02DEF07F0F00E01010101C7
:100E2800186119EF07F01BEF07F02DEF07F001012C
:100E38001C6F0C0E01010101196F01011C51010EFB
:100E48000A6E000E0B6E010E106E000E116E35EF5D
:100E580007F001011C6F000E01010101196F01016A
:100E68001C5155EF0CF02A50040AD8A43EEF07F0A5
:100E780040EF07F0E9EF08F001010101176747EFBC
:100E880007F049EF07F053EF07F001011C6F000E60
:100E980001010101196F01011C51E7EF08F001017F
:100EA80001011705D8A45BEF07F05DEF07F0DDEF50
:100EB80007F0070E01010101186565EF07F067EFFC
:100EC80007F083EF07F0460E0101010118616FEF8B
:100ED80007F071EF07F083EF07F001011C6F550E63
:100EE80001010101196F01011C51010E086E000E6C
:100EF800096E010E166E000E176EDBEF07F05F0E1F
:100F08000101010118658BEF07F08DEF07F0ADEFD8
:100F180007F0D30E01010101186195EF07F097EF73
:100F280007F0ADEF07F001011C6F450E010101014B
:100F3800196F01011C51010E086E000E096E010E99
:100F4800166E000E176E010E186E000E196EDBEF8E
:100F580007F0D50E010101011865B5EF07F0B7EFED
:100F680007F0D3EF07F0E40E010101011861BFEFAC
:100F780007F0C1EF07F0D3EF07F001011C6F4D0E2A
:100F880001010101196F01011C51010E086E000ECB
:100F9800096E010E186E000E196EDBEF07F00101E5
:100FA8001C6F000E01010101196F01011C51E7EFCF
:100FB80008F0010101011751020AD8A4E6EF07F071
:100FC800E8EF07F05EEF08F0D80E0101010118659F
:100FD800F0EF07F0F2EF07F004EF08F001011C6FE3
:100FE800350E01010101196F01011C51010E086E36
:100FF800000E096E010E126E000E136E5CEF08F003
:10100800990E0101010118650CEF08F00EEF08F0C8
:101018002EEF08F0CB0E01010101186116EF08F060
:1010280018EF08F02EEF08F001011C6F250E0101E2
:101038000101196F01011C51010E086E000E096EA5
:10104800010E126E000E136E010E146E000E156E58
:101058005CEF08F0720E01010101186536EF08F027
:1010680038EF08F054EF08F0920E01010101186101
:1010780040EF08F042EF08F054EF08F001011C6F50
:101088002D0E01010101196F01011C51010E086E9D
:10109800000E096E010E146E000E156E5CEF08F05E
:1010A80001011C6F000E01010101196F01011C51A2
:1010B800E7EF08F0010101011751030AD8A467EF0F
:1010C80008F069EF08F0E7EF08F0E20E010101010E
:1010D800186571EF08F073EF08F08FEF08F0F10E64
:1010E8000101010118617BEF08F07DEF08F08FEF37
:1010F80008F001011C6F150E01010101196F0101B2
:101108001C51010E086E000E096E010E0E6E000EC7
:101118000F6EE7EF08F0B30E01010101186597EFB4
:1011280008F099EF08F0B9EF08F0D30E01010101BA
:101138001861A1EF08F0A3EF08F0B9EF08F001017A
:101148001C6F050E01010101196F01011C51010EEF
:10115800086E000E096E010E0E6E000E0F6E010E67
:10116800106E000E116EE7EF08F0590E0101010133
:101178001865C1EF08F0C3EF08F0DFEF08F0A60E1E
:10118800010101011861CBEF08F0CDEF08F0DFEFA6
:1011980008F001011C6F0D0E01010101196F010119
:1011A8001C51010E086E000E096E010E106E000E25
:1011B800116EE7EF08F001011C6F000E010101013B
:1011C800196F01011C5155EF0CF02A50050AD8A4DB
:1011D800F0EF08F0F2EF08F09BEF0AF001010101CF
:1011E8001767F9EF08F0FBEF08F005EF09F00101C8
:1011F8001C6F000E01010101196F01011C5199EFCB
:101208000AF0010101011705D8A40DEF09F00FEF4D
:1012180009F08FEF09F0930E01010101186517EF2E
:1012280009F019EF09F035EF09F0AF0E01010101DE
:10123800186121EF09F023EF09F035EF09F00101FA
:101248001C6F560E01010101196F01011C51010E9D
:10125800066E000E076E010E166E000E176E8DEFED
:1012680009F0580E0101010118653DEF09F03FEF43
:1012780009F05BEF09F0790E01010101186147EFF0
:1012880009F049EF09F05BEF09F001011C6F460E08
:1012980001010101196F01011C51010E066E000EBA
:1012A800076E010E186E000E196E8DEF09F0130E01
:1012B80001010101186563EF09F065EF09F085EF99
:1012C80009F0490E0101010118616DEF09F06FEF96
:1012D80009F085EF09F001011C6F4E0E01010101B3
:1012E800196F01011C51010E066E000E076E010EEA
:1012F800166E000E176E010E186E000E196E8DEF29
:1013080009F001011C6F000E01010101196F0101B3
:101318001C5199EF0AF0010101011751020AD8A4E2
:1013280098EF09F09AEF09F010EF0AF0DE0E0101CC
:1013380001011865A2EF09F0A4EF09F0B6EF09F072
:1013480001011C6F360E01010101196F01011C51C9
:10135800010E066E000E076E010E126E000E136E61
:101368000EEF0AF0A40E010101011865BEEF09F0A5
:10137800C0EF09F0E0EF09F0D00E0101010118619A
:10138800C8EF09F0CAEF09F0E0EF09F001011C6F9E
:10139800260E01010101196F01011C51010E066E93
:1013A800000E076E010E126E000E136E010E146E03
:1013B800000E156E0EEF0AF0830E0101010118658B
:1013C800E8EF09F0EAEF09F006EF0AF0A10E0101D3
:1013D80001011861F2EF09F0F4EF09F006EF0AF0E5
:1013E80001011C6F2E0E01010101196F01011C5131
:1013F800010E066E000E076E010E146E000E156EBD
:101408000EEF0AF001011C6F000E01010101196FB6
:1014180001011C5199EF0AF0010101011751030A5A
:10142800D8A419EF0AF01BEF0AF099EF0AF0930E0F
:1014380001010101186523EF0AF025EF0AF041EFD9
:101448000AF0AF0E0101010118612DEF0AF02FEF2C
:101458000AF041EF0AF001011C6F160E01010101AB
:10146800196F01011C51010E066E000E076E010E68
:101478000E6E000E0F6E99EF0AF0580E0101010171
:10148800186549EF0AF04BEF0AF06BEF0AF0790E96
:1014980001010101186153EF0AF055EF0AF06BEFF3
:1014A8000AF001011C6F060E01010101196F01010B
:1014B8001C51010E066E000E076E010E0E6E000E18
:1014C8000F6E010E106E000E116E99EF0AF0130EDA
:1014D80001010101186573EF0AF075EF0AF091EF49
:1014E8000AF0490E0101010118617DEF0AF07FEF52
:1014F8000AF091EF0AF001011C6F0E0E01010101C3
:10150800196F01011C51010E066E000E076E010EC7
:10151800106E000E116E99EF0AF001011C6F000E9B
:1015280001010101196F01011C5155EF0CF02A50FE
:10153800060AD8A4A2EF0AF0A4EF0AF055EF0CF0BF
:10154800010101011767ABEF0AF0ADEF0AF0B7EF41
:101558000AF001011C6F000E01010101196F010160
:101568001C5155EF0CF0010101011705D8A4BFEF7C
:101578000AF0C1EF0AF041EF0BF0560E010101012C
:101588001865C9EF0AF0CBEF0AF0E7EF0AF0A10EF1
:10159800010101011861D3EF0AF0D5EF0AF0E7EF76
:1015A8000AF001011C6F570E01010101196F0101B9
:1015B8001C51010E046E000E056E010E166E000E13
:1015C800176E3FEF0BF0AE0E010101011865EFEF4A
:1015D8000AF0F1EF0AF011EF0BF0D80E010101014A
:1015E8001861F9EF0AF0FBEF0AF011EF0BF00101B7
:1015F8001C6F470E01010101196F01011C51010EF9
:10160800046E000E056E010E166E000E176E010EAA
:10161800186E000E196E3FEF0BF0DF0E010101018D
:10162800186519EF0BF01BEF0BF037EF0BF0E50E19
:1016380001010101186123EF0BF025EF0BF037EFE3
:101648000BF001011C6F4F0E01010101196F01011F
:101658001C51010E046E000E056E010E186E000E70
:10166800196E3FEF0BF001011C6F000E0101010123
:10167800196F01011C5155EF0CF0010101011751BF
:10168800020AD8A44AEF0BF04CEF0BF0CCEF0BF0AA
:10169800C70E01010101186554EF0BF056EF0BF06E
:1016A80072EF0BF0E60E0101010118615EEF0BF01D
:1016B80060EF0BF072EF0BF001011C6F370E0101A8
:1016C8000101196F01011C51010E046E000E056E17
:1016D800010E126E000E136ECAEF0BF08A0E010196
:1016E800010118657AEF0BF07CEF0BF09CEF0BF023
:1016F800C10E01010101186184EF0BF086EF0BF0B8
:101708009CEF0BF001011C6F270E01010101196FFD
:1017180001011C51010E046E000E056E010E126EC1
:10172800000E136E010E146E000E156ECAEF0BF04C
:101738006A0E010101011865A4EF0BF0A6EF0BF08A
:10174800C2EF0BF08D0E010101011861AEEF0BF035
:10175800B0EF0BF0C2EF0BF001011C6F2F0E01016F
:101768000101196F01011C51010E046E000E056E76
:10177800010E146E000E156ECAEF0BF001011C6FFE
:10178800000E01010101196F01011C5155EF0CF008
:10179800010101011751030AD8A4D5EF0BF0D7EFC7
:1017A8000BF055EF0CF0A40E010101011865DFEFF5
:1017B8000BF0E1EF0BF0FDEF0BF0BF0E01010101A3
:1017C8001861E9EF0BF0EBEF0BF0FDEF0BF0010107
:1017D8001C6F170E01010101196F01011C51010E47
:1017E800046E000E056E010E0E6E000E0F6E55EFA4
:1017F8000CF0810E01010101186505EF0CF007EFEF
:101808000CF027EF0CF0A10E0101010118610FEF98
:101818000CF011EF0CF027EF0CF001011C6F070E14
:1018280001010101196F01011C51010E046E000E26
:10183800056E010E0E6E000E0F6E010E106E000E7C
:10184800116E55EF0CF06A0E0101010118652FEFBA
:101858000CF031EF0CF04DEF0CF07E0E01010101A0
:10186800186139EF0CF03BEF0CF04DEF0CF0010173
:101878001C6F0F0E01010101196F01011C51010EAE
:10188800046E000E056E010E106E000E116E55EFFF
:101898000CF001011C6F000E01010101196F01011B
:1018A8001C510101010119515AEF0CF01200EACF45
:1018B80009F1E1CF0AF1E2CF0BF1D9CF0CF1DACF80
:1018C8000DF1F3CF0EF1F4CF0FF1F6CF10F1F7CF02
:1018D80011F1F8CF12F1F5CF13F1F29EF2AA77EFDA
:1018E8000CF079EF0CF0F1EF0CF0F2A47EEF0CF0B5
:1018F80080EF0CF0F1EF0CF0F1A485EF0CF087EF1E
:101908000CF0F1EF0CF00FEC0DF01C0E1B24E96E3F
:10191800EA6A000EEA221AC0EFFF230E1B24E96EC2
:10192800EA6A000EEA22EF500101056F1C0E1B2423
:10193800E96EEA6A000EEA22EF5001010519D8B4EF
:10194800A8EF0CF0AAEF0CF0C3EF0CF00101056F43
:10195800010E2C6E010105511C0E1B24E96EEA6A6A
:10196800000EEA22230E1B24E16EE26A000EE22238
:10197800EFCFE7FF1BC02FF0306AC9EF0CF0010171
:10198800056F000E2C6E010105511AC02BF02BC0FB
:10199800ADFFCFEF0CF09EA8D4EF0CF0D6EF0CF013
:1019A800CFEF0CF01BC02BF02BC0ADFFDCEF0CF021
:1019B8009EA8E1EF0CF0E3EF0CF0DCEF0CF01AC09E
:1019C8002BF02BC0ADFFE9EF0CF09EA8EEEF0CF06A
:1019D800F0EF0CF0E9EF0CF0F294F28E13C1F5FF82
:1019E80012C1F8FF11C1F7FF10C1F6FF0FC1F4FFD4
:1019F8000EC1F3FF0DC1DAFF0CC1D9FF0BC1E2FF25
:101A08000AC1E1FF09C1EAFF08C1E9FF07C1FBFFFD
:101A180006C1FAFF1100C290000EC46E000EC36E1C
:101A280032EF0DF0200EC26E43EF0DF0240EC26EA1
:101A380043EF0DF0000EC26E43EF0DF0040EC26EC0
:101A480043EF0DF0080EC26E43EF0DF00C0EC26EA0
:101A580043EF0DF0100EC26E43EF0DF02A50000A4E
:101A6800E1E0010AE3E0030AE5E0010AE7E0070A2A
:101A7800E9E0010AEBE0030AEDE043EF0DF0C28074
:101A8800C28247EF0DF0C2B24CEF0DF04EEF0DF0F1
:101A980047EF0DF0C4CF14F1C3CF15F115C118F1FC
:101AA80014C117F11BEC00F001010101166F16C1FA
:101AB8001AF02AC01BF02A2A060E2A6466EF0DF0D7
:101AC80068EF0DF06AEF0DF0000E2A6E1200720E2C
:101AD800D312AF0E926E120E936E800E946E000E9D
:101AE800C26E050EC16E8D0EC06E000E2A6E800E7F
:101AF800D56E200EF26E000EB06E190EAF6E080E87
:101B0800B86E900EAB6E200EAC6E8968800E8A6E31
:101B18000F0E8B6EF28E91EF0DF02C50D8B497EF1C
:101B28000DF099EF0DF08FEF0DF00101046F000E2D
:0E1B38002C6E010104518FEF0DF00CEF00F048
:020000040030CA
:0E000000FF081F1EFF0281FF3FC03FE03F4090
:00000001FF
