:040000000CEF00F011
:10000800FACF0AF1FBCF0BF1E9CF0CF17AEF32F01E
:1000180000EE45F0600EF66E000EF76E000EF86EFC
:100028000900F5CFEEFFF86A00EE00F010EE45F09B
:1000380020EC00F0D8EF33F0EE6AE550E150FCE137
:10004800E250FAE112000900F5CFEEFFE550E15069
:10005800FAE1E250F8E1120003000101056F270EF2
:1000680001010101066F0101055193EC18F001012E
:10007800056FA00E01010101066F01010551C2ECD7
:1000880034F00101056F000E01010101066F010145
:10009800055193EC18F00101056F020E01010101F1
:1000A800066F01010551C2EC34F00101056F270EFE
:1000B80001010101066F0101055193EC18F00101DE
:1000C800056F400E01010101066F01010551C2ECE7
:1000D80034F00101056F000E01010101066F0101F5
:1000E800055193EC18F00101056F020E01010101A1
:1000F800066F01010551C2EC34F00101056F270EAE
:1001080001010101066F0101055193EC18F001018D
:10011800056FA00E01010101066F01010551C2EC36
:1001280034F00101056F000E01010101066F0101A4
:10013800055193EC18F00101056F020E0101010150
:10014800066F01010551C2EC34F00101056F270E5D
:1001580001010101066F0101055193EC18F001013D
:10016800056FA00E01010101066F01010551C2ECE6
:1001780034F00101056F000E01010101066F010154
:10018800055193EC18F00101056F020E0101010100
:10019800066F01010551C2EC34F00101056F260E0E
:1001A80001010101066F0101055193EC18F00101ED
:1001B800056FF00E01010101066F01010551C2EC46
:1001C80034F00101056F250E01010101066F0101DF
:1001D800055193EC18F00101056F500E0101010162
:1001E800066F01010551C2EC34F00101056F260EBE
:1001F80001010101066F0101055193EC18F001019D
:10020800056F500E01010101066F01010551C2EC95
:1002180034F00101056F250E01010101066F01018E
:10022800055193EC18F00101056F500E0101010111
:10023800066F01010551C2EC34F00101056F230E70
:1002480001010101066F0101055193EC18F001014C
:10025800056F400E01010101066F01010551C2EC55
:1002680034F00101056F000E01010101066F010163
:10027800055193EC18F00101056F400E01010101D1
:10028800066F01010551C2EC34F00101056F230E20
:1002980001010101066F0101055193EC18F00101FC
:1002A800056FA00E01010101066F01010551C2ECA5
:1002B80034F00101056F000E01010101066F010113
:1002C800055193EC18F00101056F020E01010101BF
:1002D800066F01010551C2EC34F00101056F230ED0
:1002E80001010101066F0101055193EC18F00101AC
:1002F800056FA00E01010101066F01010551C2EC55
:1003080034F00101056F000E01010101066F0101C2
:10031800055193EC18F00101056F020E010101016E
:10032800066F01010551C2EC34F00101056F230E7F
:1003380001010101066F0101055193EC18F001015B
:10034800056FF00E01010101066F01010551C2ECB4
:1003580034F00101056F000E01010101066F010172
:10036800055193EC18F00101056F020E010101011E
:10037800066F01010551C2EC34F00101056F230E2F
:1003880001010101066F0101055193EC18F001010B
:10039800056F500E01010101066F01010551C2EC04
:1003A80034F00101056F000E01010101066F010122
:1003B800055193EC18F00101056F020E01010101CE
:1003C800066F01010551C2EC34F00101056F230EDF
:1003D80001010101066F0101055193EC18F00101BB
:1003E800056FA00E01010101066F01010551C2EC64
:1003F80034F00101056F000E01010101066F0101D2
:10040800055193EC18F00101056F020E010101017D
:10041800066F01010551C2EC34F00101056F230E8E
:1004280001010101066F0101055193EC18F001016A
:10043800056F500E01010101066F01010551C2EC63
:1004480034F00101056F240E01010101066F01015D
:10045800055193EC18F00101056FF00E010101013F
:10046800066F01010551C2EC34F00101056F000E61
:1004780001010101066F0101055193EC18F001011A
:10048800056F020E01010101066F01010551C2EC61
:1004980034F00101056F240E01010101066F01010D
:1004A800055193EC18F00101056F800E010101015F
:1004B800066F01010551C2EC34F00101056F000E11
:1004C80001010101066F0101055193EC18F00101CA
:1004D800056FA00E01010101066F01010551C2EC73
:1004E80034F00101056F270E01010101066F0101BA
:1004F800055193EC18F00101056F500E010101013F
:10050800066F01010551C2EC34F00101056F000EC0
:1005180001010101066F0101055193EC18F0010179
:10052800056F020E01010101066F01010551C2ECC0
:1005380034F00101056F270E01010101066F010169
:10054800055193EC18F00101056F500E01010101EE
:10055800066F01010551C2EC34F00101056F000E70
:1005680001010101066F0101055193EC18F0010129
:10057800056F020E01010101066F01010551C2EC70
:1005880034F00101056F270E01010101066F010119
:10059800055193EC18F00101056FA00E010101014E
:1005A800066F01010551C2EC34F00101056F000E20
:1005B80001010101066F0101055193EC18F00101D9
:1005C800056F020E01010101066F01010551C2EC20
:1005D80034F00101056F270E01010101066F0101C9
:1005E800055193EC18F00101056F800E010101011E
:1005F800066F01010551C2EC34F00101056F260EAA
:1006080001010101066F0101055193EC18F0010188
:10061800056F500E01010101066F01010551C2EC81
:1006280034F00101056F250E01010101066F01017A
:10063800055193EC18F00101056F500E01010101FD
:10064800066F01010551C2EC34F00101056F260E59
:1006580001010101066F0101055193EC18F0010138
:10066800056FA00E01010101066F01010551C2ECE1
:1006780034F00101056F250E01010101066F01012A
:10068800055193EC18F00101056F500E01010101AD
:10069800066F01010551C2EC34F00101056F230E0C
:1006A80001010101066F0101055193EC18F00101E8
:1006B800056F500E01010101066F01010551C2ECE1
:1006C80034F00101056F900E01010101066F01016F
:1006D8000551C2EC34F00101056F010E0101010161
:1006E800066F0101055193EC18F00101056F500EDA
:1006F80001010101066F01010551C2EC34F001014D
:10070800056F000E01010101066F0101055193EC0F
:1007180018F00101056F020E01010101066F0101C8
:100728000551C2EC34F00101056F010E0101010110
:10073800066F0101055193EC18F00101056F500E89
:1007480001010101066F01010551C2EC34F00101FC
:10075800056F000E01010101066F0101055193ECBF
:1007680018F00101056F020E01010101066F010178
:100778000551C2EC34F00101056F010E01010101C0
:10078800066F0101055193EC18F00101056F400E49
:1007980001010101066F01010551C2EC34F00101AC
:1007A800056F260E01010101066F0101055193EC49
:1007B80018F00101056F500E01010101066F0101DA
:1007C8000551C2EC34F00101056F000E0101010171
:1007D800066F0101055193EC18F00101056F020E37
:1007E80001010101066F01010551C2EC34F001015C
:1007F800056F260E01010101066F0101055193ECF9
:1008080018F00101056F500E01010101066F010189
:100818000551C2EC34F00101056F000E0101010120
:10082800066F0101055193EC18F00101056F020EE6
:1008380001010101066F01010551C2EC34F001010B
:10084800056F260E01010101066F0101055193ECA8
:1008580018F00101056FA00E01010101066F0101E9
:100868000551C2EC34F00101056F250E01010101AB
:10087800066F0101055193EC18F00101056FA00EF8
:1008880001010101066F01010551C2EC34F00101BB
:10089800056F230E01010101066F0101055193EC5B
:1008A80018F00101056FA00E01010101066F010199
:1008B8000551C2EC34F00101056F230E010101015D
:1008C800066F0101055193EC18F00101056F900EB8
:1008D80001010101066F01010551C2EC34F001016B
:1008E800056F000E01010101086F01010551E6ECD9
:1008F80034F00101056F800E01010101066F01014D
:100908000551C2EC34F00101056F400E01010101EF
:10091800066F01010551C2EC34F00101056FF00EBC
:1009280001010101066F01010551C2EC34F001011A
:10093800056F470E01010101066F0101055193EC96
:1009480018F00101056F500E01010101066F010148
:100958000551C2EC34F00101056F000E01010101DF
:10096800066F0101055193EC18F00101056F020EA5
:1009780001010101066F01010551C2EC34F00101CA
:10098800056F470E01010101066F0101055193EC46
:1009980018F00101056FA00E01010101066F0101A8
:1009A8000551C2EC34F00101056F000E010101018F
:1009B800066F0101055193EC18F00101056F020E55
:1009C80001010101066F01010551C2EC34F001017A
:1009D800056F470E01010101066F0101055193ECF6
:1009E80018F00101056FA00E01010101066F010158
:1009F8000551C2EC34F00101056F000E010101013F
:100A0800066F0101055193EC18F00101056F020E04
:100A180001010101066F01010551C2EC34F0010129
:100A2800056F470E01010101066F0101055193ECA5
:100A380018F00101056FA00E01010101066F010107
:100A48000551C2EC34F00101056F000E01010101EE
:100A5800066F0101055193EC18F00101056F020EB4
:100A680001010101066F01010551C2EC34F00101D9
:100A7800056F470E01010101066F0101055193EC55
:100A880018F00101056FA00E01010101066F0101B7
:100A98000551C2EC34F00101056F000E010101019E
:100AA800066F0101055193EC18F00101056F020E64
:100AB80001010101066F01010551C2EC34F0010189
:100AC800056F470E01010101066F0101055193EC05
:100AD80018F00101056FA00E01010101066F010167
:100AE8000551C2EC34F00101056F460E0101010108
:100AF800066F0101055193EC18F00101056FA00E76
:100B080001010101066F01010551C2EC34F0010138
:100B1800056F450E01010101066F0101055193ECB6
:100B280018F00101056FA00E01010101066F010116
:100B38000551C2EC34F00101056F460E01010101B7
:100B4800066F0101055193EC18F00101056F500E75
:100B580001010101066F01010551C2EC34F00101E8
:100B6800056F450E01010101066F0101055193EC66
:100B780018F00101056F500E01010101066F010116
:100B88000551C2EC34F00101056F430E010101016A
:100B9800066F0101055193EC18F00101056F800EF5
:100BA80001010101066F01010551C2EC34F0010198
:100BB800056F000E01010101066F0101055193EC5B
:100BC80018F00101056F020E01010101066F010114
:100BD8000551C2EC34F00101056F430E010101011A
:100BE800066F0101055193EC18F00101056FA00E85
:100BF80001010101066F01010551C2EC34F0010148
:100C0800056F000E01010101066F0101055193EC0A
:100C180018F00101056F020E01010101066F0101C3
:100C28000551C2EC34F00101056F430E01010101C9
:100C3800066F0101055193EC18F00101056FA00E34
:100C480001010101066F01010551C2EC34F00101F7
:100C5800056F000E01010101066F0101055193ECBA
:100C680018F00101056F020E01010101066F010173
:100C78000551C2EC34F00101056F430E0101010179
:100C8800066F0101055193EC18F00101056FA00EE4
:100C980001010101066F01010551C2EC34F00101A7
:100CA800056F000E01010101066F0101055193EC6A
:100CB80018F00101056F020E01010101066F010123
:100CC8000551C2EC34F00101056F430E0101010129
:100CD800066F0101055193EC18F00101056FA00E94
:100CE80001010101066F01010551C2EC34F0010157
:100CF800056F000E01010101066F0101055193EC1A
:100D080018F00101056F020E01010101066F0101D2
:100D18000551C2EC34F00101056F430E01010101D8
:100D2800066F0101055193EC18F00101056F400EA3
:100D380001010101066F01010551C2EC34F0010106
:100D4800056F440E01010101066F0101055193EC85
:100D580018F00101056F500E01010101066F010134
:100D68000551C2EC34F00101056F000E01010101CB
:100D7800066F0101055193EC18F00101056F020E91
:100D880001010101066F01010551C2EC34F00101B6
:100D9800056F440E01010101066F0101055193EC35
:100DA80018F00101056F500E01010101066F0101E4
:100DB8000551C2EC34F00101056F000E010101017B
:100DC800066F0101055193EC18F00101056F020E41
:100DD80001010101066F01010551C2EC34F0010166
:100DE800056F440E01010101066F0101055193ECE5
:100DF80018F00101056F800E01010101066F010164
:100E08000551C2EC34F00101056F000E010101012A
:100E1800066F0101055193EC18F00101056FA00E52
:100E280001010101066F01010551C2EC34F0010115
:100E3800056F450E01010101066F0101055193EC93
:100E480018F00101056F500E01010101066F010143
:100E58000551C2EC34F00101056F460E0101010194
:100E6800066F0101055193EC18F00101056F500E52
:100E780001010101066F01010551C2EC34F00101C5
:100E8800056F470E01010101066F0101055193EC41
:100E980018F00101056FA00E01010101066F0101A3
:100EA8000551C2EC34F00101056F000E010101018A
:100EB800066F0101055193EC18F00101056F020E50
:100EC80001010101066F01010551C2EC34F0010175
:100ED800056F470E01010101066F0101055193ECF1
:100EE80018F00101056FF00E01010101066F010103
:100EF8000551C2EC34F00101056F000E010101013A
:100F0800066F0101055193EC18F00101056F020EFF
:100F180001010101066F01010551C2EC34F0010124
:100F2800056F470E01010101066F0101055193ECA0
:100F380018F00101056F500E01010101066F010152
:100F48000551C2EC34F00101056F000E01010101E9
:100F5800066F0101055193EC18F00101056F020EAF
:100F680001010101066F01010551C2EC34F00101D4
:100F7800056F470E01010101066F0101055193EC50
:100F880018F00101056F400E01010101066F010112
:100F98000551C2EC34F00101056F460E0101010153
:100FA800066F0101055193EC18F00101056F500E11
:100FB80001010101066F01010551C2EC34F0010184
:100FC800056F450E01010101066F0101055193EC02
:100FD80018F00101056F500E01010101066F0101B2
:100FE8000551C2EC34F00101056F460E0101010103
:100FF800066F0101055193EC18F00101056FA00E71
:1010080001010101066F01010551C2EC34F0010133
:10101800056F450E01010101066F0101055193ECB1
:1010280018F00101056FA00E01010101066F010111
:101038000551C2EC34F00101056F000E01010101F8
:10104800066F0101055193EC18F00101056F020EBE
:1010580001010101066F01010551C2EC34F00101E3
:10106800056F450E01010101066F0101055193EC61
:1010780018F00101056FA00E01010101066F0101C1
:101088000551C2EC34F00101056F000E01010101A8
:10109800066F0101055193EC18F00101056F020E6E
:1010A80001010101066F01010551C2EC34F0010193
:1010B800056F450E01010101066F0101055193EC11
:1010C80018F00101056F400E01010101066F0101D1
:1010D8000551C2EC34F00101056F430E0101010115
:1010E800066F0101055193EC18F00101056FA00E80
:1010F80001010101066F01010551C2EC34F0010143
:10110800056F000E01010101066F0101055193EC05
:1011180018F00101056F020E01010101066F0101BE
:101128000551C2EC34F00101056F430E01010101C4
:10113800066F0101055193EC18F00101056FA00E2F
:1011480001010101066F01010551C2EC34F00101F2
:10115800056F000E01010101066F0101055193ECB5
:1011680018F00101056F020E01010101066F01016E
:101178000551C2EC34F00101056F430E0101010174
:10118800066F0101055193EC18F00101056FF00E8F
:1011980001010101066F01010551C2EC34F00101A2
:1011A800056F450E01010101066F0101055193EC20
:1011B80018F00101056F500E01010101066F0101D0
:1011C8000551C2EC34F00101056F460E0101010121
:1011D800066F0101055193EC18F00101056FF00E3F
:1011E80001010101066F01010551C2EC34F0010152
:1011F800056F450E01010101066F0101055193ECD0
:1012080018F00101056F500E01010101066F01017F
:101218000551C2EC34F00101056F430E01010101D3
:10122800066F0101055193EC18F00101056FA00E3E
:1012380001010101066F01010551C2EC34F0010101
:10124800056F000E01010101066F0101055193ECC4
:1012580018F00101056F020E01010101066F01017D
:101268000551C2EC34F00101056F430E0101010183
:10127800066F0101055193EC18F00101056F800E0E
:1012880001010101066F01010551C2EC34F00101B1
:10129800056F400E01010101066F01010551C2EC05
:1012A80034F00101056F210E01010101066F0101F2
:1012B800055193EC18F00101056F400E0101010181
:1012C800066F01010551C2EC34F00101056F000EF3
:1012D80001010101066F0101055193EC18F00101AC
:1012E800056F020E01010101066F01010551C2ECF3
:1012F80034F00101056F210E01010101066F0101A2
:10130800055193EC18F00101056F500E0101010120
:10131800066F01010551C2EC34F00101056F000EA2
:1013280001010101066F0101055193EC18F001015B
:10133800056F020E01010101066F01010551C2ECA2
:1013480034F00101056F210E01010101066F010151
:10135800055193EC18F00101056F900E0101010190
:10136800066F01010551C2EC34F00101056F220E30
:1013780001010101066F0101055193EC18F001010B
:10138800056F500E01010101066F01010551C2EC04
:1013980034F00101056F430E01010101066F0101DF
:1013A800055193EC18F00101056F500E0101010180
:1013B800066F01010551C2EC34F00101056F220EE0
:1013C80001010101066F0101055193EC18F00101BB
:1013D800056F500E01010101066F01010551C2ECB4
:1013E80034F00101056F210E01010101066F0101B1
:1013F800055193EC18F00101056F400E0101010140
:10140800066F01010551C2EC34F00101056F500E61
:1014180001010101066F01010551C2EC34F001011F
:10142800056F000E01010101066F0101055193ECE2
:1014380018F00101056F800E01010101066F01011D
:101448000551C2EC34F00101056FA00E0101010144
:10145800066F01010551C2EC34F00101056F210E40
:1014680001010101066F0101055193EC18F001011A
:10147800056F500E01010101066F01010551C2EC13
:1014880034F00101056F000E01010101066F010131
:10149800055193EC18F00101056F020E01010101DD
:1014A800066F01010551C2EC34F00101056F210EF0
:1014B80001010101066F0101055193EC18F00101CA
:1014C800056F500E01010101066F01010551C2ECC3
:1014D80034F00101056F400E01010101066F0101A1
:1014E8000551C2EC34F00101056F220E0101010122
:1014F800066F0101055193EC18F00101056F500EBC
:1015080001010101066F01010551C2EC34F001012E
:10151800056F430E01010101066F0101055193ECAE
:1015280018F00101056F500E01010101066F01015C
:101538000551C2EC34F00101056F220E01010101D1
:10154800066F0101055193EC18F00101056F800E3B
:1015580001010101066F01010551C2EC34F00101DE
:10156800056FA00E01010101066F01010551C2ECD2
:1015780034F00101056F210E01010101066F01011F
:10158800055193EC18F00101056F500E010101019E
:10159800066F01010551C2EC34F00101056F270EF9
:1015A80001010101066F0101055193EC18F00101D9
:1015B800056F500E01010101066F01010551C2ECD2
:1015C80034F00101056F900E01010101066F010160
:1015D8000551C2EC34F00101056F000E0101010153
:1015E800066F0101055193EC18F00101056F800E9B
:1015F80001010101066F01010551C2EC34F001013E
:10160800056F800E01010101066F01010551C2EC51
:1016180034F00101056F470E01010101066F010158
:10162800055193EC18F00101056FA00E01010101AD
:10163800066F01010551C2EC34F00101056F000E7F
:1016480001010101066F0101055193EC18F0010138
:10165800056F020E01010101066F01010551C2EC7F
:1016680034F00101056F470E01010101066F010108
:10167800055193EC18F00101056FF00E010101010D
:10168800066F01010551C2EC34F00101056F000E2F
:1016980001010101066F0101055193EC18F00101E8
:1016A800056F020E01010101066F01010551C2EC2F
:1016B80034F00101056F470E01010101066F0101B8
:1016C800055193EC18F00101056F500E010101015D
:1016D800066F01010551C2EC34F00101056F000EDF
:1016E80001010101066F0101055193EC18F0010198
:1016F800056F020E01010101066F01010551C2ECDF
:1017080034F00101056F470E01010101066F010167
:10171800055193EC18F00101056FA00E01010101BC
:10172800066F01010551C2EC34F00101056F460E48
:1017380001010101066F0101055193EC18F0010147
:10174800056FF00E01010101066F01010551C2ECA0
:1017580034F00101056F450E01010101066F010119
:10176800055193EC18F00101056F500E01010101BC
:10177800066F01010551C2EC34F00101056F460EF8
:1017880001010101066F0101055193EC18F00101F7
:10179800056F500E01010101066F01010551C2ECF0
:1017A80034F00101056F450E01010101066F0101C9
:1017B800055193EC18F00101056FA00E010101011C
:1017C800066F01010551C2EC34F00101056F430EAB
:1017D80001010101066F0101055193EC18F00101A7
:1017E800056FF00E01010101066F01010551C2EC00
:1017F80034F00101056F900E01010101066F01012E
:101808000551C2EC34F00101056F210E01010101FF
:10181800066F0101055193EC18F00101056FA00E48
:1018280001010101066F01010551C2EC34F001010B
:10183800056F430E01010101066F0101055193EC8B
:1018480018F00101056FF00E01010101066F010199
:101858000551C2EC34F00101056F000E01010101D0
:10186800066F0101055193EC18F00101056F020E96
:1018780001010101066F01010551C2EC34F00101BB
:10188800056F430E01010101066F0101055193EC3B
:1018980018F00101056F500E01010101066F0101E9
:1018A8000551C2EC34F00101056F000E0101010180
:1018B800066F0101055193EC18F00101056F020E46
:1018C80001010101066F01010551C2EC34F001016B
:1018D800056F430E01010101066F0101055193ECEB
:1018E80018F00101056F400E01010101066F0101A9
:1018F8000551C2EC34F00101056F440E01010101EC
:10190800066F0101055193EC18F00101056FA00E57
:1019180001010101066F01010551C2EC34F001011A
:10192800056F000E01010101066F0101055193ECDD
:1019380018F00101056F020E01010101066F010196
:101948000551C2EC34F00101056F440E010101019B
:10195800066F0101055193EC18F00101056F800E27
:1019680001010101066F01010551C2EC34F00101CA
:10197800056F450E01010101066F0101055193EC48
:1019880018F00101056FA00E01010101066F0101A8
:101998000551C2EC34F00101056F460E0101010149
:1019A800066F0101055193EC18F00101056FA00EB7
:1019B80001010101066F01010551C2EC34F001017A
:1019C800056F470E01010101066F0101055193ECF6
:1019D80018F00101056FA00E01010101066F010158
:1019E8000551C2EC34F00101056F000E010101013F
:1019F800066F0101055193EC18F00101056F020E05
:101A080001010101066F01010551C2EC34F0010129
:101A1800056F470E01010101066F0101055193ECA5
:101A280018F00101056FF00E01010101066F0101B7
:101A38000551C2EC34F00101056F000E01010101EE
:101A4800066F0101055193EC18F00101056F020EB4
:101A580001010101066F01010551C2EC34F00101D9
:101A6800056F470E01010101066F0101055193EC55
:101A780018F00101056F500E01010101066F010107
:101A88000551C2EC34F00101056F000E010101019E
:101A9800066F0101055193EC18F00101056F020E64
:101AA80001010101066F01010551C2EC34F0010189
:101AB800056F470E01010101066F0101055193EC05
:101AC80018F00101056FA00E01010101066F010167
:101AD8000551C2EC34F00101056F460E0101010108
:101AE800066F0101055193EC18F00101056FF00E26
:101AF80001010101066F01010551C2EC34F0010139
:101B0800056F000E01010101066F0101055193ECFB
:101B180018F00101056F020E01010101066F0101B4
:101B28000551C2EC34F00101056F460E01010101B7
:101B3800066F0101055193EC18F00101056F500E75
:101B480001010101066F01010551C2EC34F00101E8
:101B5800056F000E01010101066F0101055193ECAB
:101B680018F00101056F020E01010101066F010164
:101B78000551C2EC34F00101056F460E0101010167
:101B8800066F0101055193EC18F00101056F500E25
:101B980001010101066F01010551C2EC34F0010198
:101BA800056F450E01010101066F0101055193EC16
:101BB80018F00101056F500E01010101066F0101C6
:101BC8000551C2EC34F00101056F430E010101011A
:101BD800066F0101055193EC18F00101056F400EE5
:101BE80001010101066F01010551C2EC34F0010148
:101BF800056F000E01010101066F0101055193EC0B
:101C080018F00101056F400E01010101066F010185
:101C18000551C2EC34F00101056F270E01010101E5
:101C2800066F0101055193EC18F00101056FA00E34
:101C380001010101066F01010551C2EC34F00101F7
:101C4800056F210E01010101066F0101055193EC99
:101C580018F00101056FA00E01010101066F0101D5
:101C68000551C2EC34F00101056F430E0101010179
:101C7800066F0101055193EC18F00101056FA00EE4
:101C880001010101066F01010551C2EC34F00101A7
:101C9800056F000E01010101066F0101055193EC6A
:101CA80018F00101056F020E01010101066F010123
:101CB8000551C2EC34F00101056F430E0101010129
:101CC800066F0101055193EC18F00101056FA00E94
:101CD80001010101066F01010551C2EC34F0010157
:101CE800056F460E01010101066F0101055193ECD4
:101CF80018F00101056FA00E01010101066F010135
:101D08000551C2EC34F00101056F450E01010101D6
:101D1800066F0101055193EC18F00101056FA00E43
:101D280001010101066F01010551C2EC34F0010106
:101D3800056F430E01010101066F0101055193EC86
:101D480018F00101056FA00E01010101066F0101E4
:101D58000551C2EC34F00101056F000E01010101CB
:101D6800066F0101055193EC18F00101056F020E91
:101D780001010101066F01010551C2EC34F00101B6
:101D8800056F430E01010101066F0101055193EC36
:101D980018F00101056F800E01010101066F0101B4
:101DA8000551C2EC34F00101056F400E010101013B
:101DB800066F01010551C2EC34F012000066E7EF2E
:101DC8000EF0E9EF0EF048EF10F0010101011B677A
:101DD800F0EF0EF0F2EF0EF0FCEF0EF001011E6FC7
:101DE800000E010101011D6F01011E5146EF10F0A7
:101DF800010101011B05D8A404EF0FF006EF0FF055
:101E08006AEF0FF0BD0E010101011C650EEF0FF026
:101E180010EF0FF024EF0FF0D30E010101011C6148
:101E280018EF0FF01AEF0FF024EF0FF001011E6FFB
:101E3800510E010101011D6F01011E5168EF0FF0E4
:101E4800C20E010101011C652CEF0FF02EEF0FF0FF
:101E580042EF0FF0D90E010101011C6136EF0FF0BE
:101E680038EF0FF042EF0FF001011E6F410E010134
:101E780001011D6F01011E5168EF0FF07F0E010176
:101E880001011C654AEF0FF04CEF0FF060EF0FF007
:101E98009B0E010101011C6154EF0FF056EF0FF08A
:101EA80060EF0FF001011E6F490E010101011D6F66
:101EB80001011E5168EF0FF001011E6F000E0101B4
:101EC80001011D6F01011E5146EF10F001010101D2
:101ED8001B51020AD8A473EF0FF075EF0FF0D9EF7A
:101EE8000FF0DD0E010101011C657DEF0FF07FEFA2
:101EF8000FF093EF0FF0FD0E010101011C6187EF58
:101F08000FF089EF0FF093EF0FF001011E6F310E04
:101F1800010101011D6F01011E51D7EF0FF0680E7D
:101F2800010101011C659BEF0FF09DEF0FF0B1EF70
:101F38000FF0B00E010101011C61A5EF0FF0A7EF32
:101F48000FF0B1EF0FF001011E6F210E0101010129
:101F58001D6F01011E51D7EF0FF0680E010101013D
:101F68001C65B9EF0FF0BBEF0FF0CFEF0FF0950E38
:101F7800010101011C61C3EF0FF0C5EF0FF0CFEFB6
:101F88000FF001011E6F290E010101011D6F0101F2
:101F98001E51D7EF0FF001011E6F000E0101010164
:101FA8001D6F01011E5146EF10F0010101011B5187
:101FB800030AD8A4E2EF0FF0E4EF0FF046EF10F0B9
:101FC8000E0E010101011C65ECEF0FF0EEEF0FF0B2
:101FD80002EF10F06D0E010101011C61F6EF0FF028
:101FE800F8EF0FF002EF10F001011E6F110E010162
:101FF80001011D6F01011E5146EF10F0730E010122
:1020080001011C650AEF10F00CEF10F020EF10F042
:10201800B80E010101011C6114EF10F016EF10F069
:1020280020EF10F001011E6F010E010101011D6F6B
:1020380001011E5146EF10F0BF0E010101011C65A0
:1020480028EF10F02AEF10F03EEF10F0E40E010137
:1020580001011C6132EF10F034EF10F03EEF10F088
:1020680001011E6F090E010101011D6F01011E51C1
:1020780046EF10F001011E6F000E010101011D6FF6
:1020880001011E518DEF18F00004D8A44EEF10F096
:1020980050EF10F0A5EF11F0010101011B6757EF98
:1020A80010F059EF10F063EF10F001011E6F000EF1
:1020B800010101011D6F01011E51A3EF11F0010182
:1020C80001011B05D8A46BEF10F06DEF10F0D1EFF4
:1020D80010F0BA0E010101011C6575EF10F077EFE1
:1020E80010F08BEF10F0D60E010101011C617FEF9B
:1020F80010F081EF10F08BEF10F001011E6F520EFF
:10210800010101011D6F01011E51CFEF10F0A00E5A
:10211800010101011C6593EF10F095EF10F0A9EF94
:1021280010F0B70E010101011C619DEF10F09FEF47
:1021380010F0A9EF10F001011E6F420E010101011C
:102148001D6F01011E51CFEF10F0770E0101010143
:102158001C65B1EF10F0B3EF10F0C7EF10F0970E59
:10216800010101011C61BBEF10F0BDEF10F0C7EFDA
:1021780010F001011E6F4A0E010101011D6F0101DE
:102188001E51CFEF10F001011E6F000E0101010179
:102198001D6F01011E51A3EF11F0010101011B5137
:1021A800020AD8A4DAEF10F0DCEF10F040EF11F0DB
:1021B800CD0E010101011C65E4EF10F0E6EF10F00F
:1021C800FAEF10F0E90E010101011C61EEEF10F0C9
:1021D800F0EF10F0FAEF10F001011E6F320E01015E
:1021E80001011D6F01011E513EEF11F0A40E010106
:1021F80001011C6502EF11F004EF11F018EF11F066
:10220800EF0E010101011C610CEF11F00EEF11F04E
:1022180018EF11F001011E6F220E010101011D6F5F
:1022280001011E513EEF11F06C0E010101011C6508
:1022380020EF11F022EF11F036EF11F08D0E0101B1
:1022480001011C612AEF11F02CEF11F036EF11F0AB
:1022580001011E6F2A0E010101011D6F01011E51AE
:102268003EEF11F001011E6F000E010101011D6F0B
:1022780001011E51A3EF11F0010101011B51030AD5
:10228800D8A449EF11F04BEF11F0A3EF11F0AF0E06
:10229800010101011C6153EF11F055EF11F05FEFDF
:1022A80011F001011E6F120E010101011D6F0101E4
:1022B8001E51A3EF11F0C00E010101011C6567EF6B
:1022C80011F069EF11F07DEF11F0D30E010101015A
:1022D8001C6171EF11F073EF11F07DEF11F0010146
:1022E8001E6F020E010101011D6F01011E51A3EFB6
:1022F80011F0DC0E010101011C6585EF11F087EF7B
:1023080011F09BEF11F0E60E010101011C618FEF46
:1023180011F091EF11F09BEF11F001011E6F0A0E01
:10232800010101011D6F01011E51A3EF11F001010F
:102338001E6F000E010101011D6F01011E518DEF7D
:1023480018F00050020AD8A4ACEF11F0AEEF11F06B
:102358000DEF13F0010101011B67B5EF11F0B7EFA5
:1023680011F0C1EF11F001011E6F000E0101010112
:102378001D6F01011E510BEF13F0010101011B0537
:10238800D8A4C9EF11F0CBEF11F02FEF12F0D90E4E
:10239800010101011C65D3EF11F0D5EF11F0E9EF50
:1023A80011F0F30E010101011C61DDEF11F0DFEF07
:1023B80011F0E9EF11F001011E6F530E0101010147
:1023C8001D6F01011E512DEF12F0A60E0101010132
:1023D8001C65F1EF11F0F3EF11F007EF12F0C90EE1
:1023E800010101011C61FBEF11F0FDEF11F007EF96
:1023F80012F001011E6F430E010101011D6F010161
:102408001E512DEF12F0250E010101011C650FEF81
:1024180012F011EF12F025EF12F0A10E01010101E7
:102428001C6119EF12F01BEF12F025EF12F00101F9
:102438001E6F4B0E010101011D6F01011E512DEF91
:1024480012F001011E6F000E010101011D6F010153
:102458001E510BEF13F0010101011B51020AD8A410
:1024680038EF12F03AEF12F09EEF12F0C80E0101A9
:1024780001011C6542EF12F044EF12F058EF12F020
:10248800EC0E010101011C614CEF12F04EEF12F04D
:1024980058EF12F001011E6F330E010101011D6F8B
:1024A80001011E519CEF12F07B0E010101011C6518
:1024B80060EF12F062EF12F076EF12F0B80E010141
:1024C80001011C616AEF12F06CEF12F076EF12F066
:1024D80001011E6F230E010101011D6F01011E5133
:1024E8009CEF12F0450E010101011C657EEF12F010
:1024F80080EF12F094EF12F06F0E010101011C61E0
:1025080088EF12F08AEF12F094EF12F001011E6FBB
:102518002B0E010101011D6F01011E519CEF12F0EC
:1025280001011E6F000E010101011D6F01011E5105
:102538000BEF13F0010101011B51030AD8A4A7EF07
:1025480012F0A9EF12F00BEF13F03B0E010101019D
:102558001C65B1EF12F0B3EF12F0C7EF12F0580E8E
:10256800010101011C61BBEF12F0BDEF12F0C7EFD2
:1025780012F001011E6F130E010101011D6F01010F
:102588001E510BEF13F0890E010101011C65CFEFFD
:1025980012F0D1EF12F0E5EF12F0C90E01010101BE
:1025A8001C61D9EF12F0DBEF12F0E5EF12F0010138
:1025B8001E6F030E010101011D6F01011E510BEF7A
:1025C80013F0D30E010101011C65EDEF12F0EFEFDE
:1025D80012F003EF13F0E90E010101011C61F7EF9E
:1025E80012F0F9EF12F003EF13F001011E6F0B0E5A
:1025F800010101011D6F01011E510BEF13F00101D3
:102608001E6F000E010101011D6F01011E518DEFAA
:1026180018F00050030AD8A414EF13F016EF13F0C3
:102628006BEF14F0010101011B671DEF13F01FEFA1
:1026380013F029EF13F001011E6F000E01010101D3
:102648001D6F01011E5169EF14F0010101011B0505
:10265800D8A431EF13F033EF13F097EF13F0C70E50
:10266800010101011C653BEF13F03DEF13F051EF41
:1026780013F0E70E010101011C6145EF13F047EF6C
:1026880013F051EF13F001011E6F540E0101010107
:102698001D6F01011E5195EF13F0810E010101011B
:1026A8001C6559EF13F05BEF13F06FEF13F0B50EE5
:1026B800010101011C6163EF13F065EF13F06FEF87
:1026C80013F001011E6F440E010101011D6F01018C
:1026D8001E5195EF13F0590E010101011C6577EFAA
:1026E80013F079EF13F08DEF13F0790E010101016A
:1026F8001C6181EF13F083EF13F08DEF13F00101EC
:102708001E6F4C0E010101011D6F01011E5195EF55
:1027180013F001011E6F000E010101011D6F01017F
:102728001E5169EF14F0010101011B51020AD8A4DE
:10273800A0EF13F0A2EF13F0FCEF13F0CA0E0101A3
:1027480001011C65AAEF13F0ACEF13F0B6EF13F01C
:1027580001011E6F340E010101011D6F01011E519F
:10276800FAEF13F0810E010101011C65BEEF13F0B1
:10277800C0EF13F0D4EF13F0A80E010101011C61A2
:10278800C8EF13F0CAEF13F0D4EF13F001011E6F76
:10279800240E010101011D6F01011E51FAEF13F012
:1027A800560E010101011C65DCEF13F0DEEF13F09A
:1027B800F2EF13F07D0E010101011C61E6EF13F049
:1027C800E8EF13F0F2EF13F001011E6F2C0E010178
:1027D80001011D6F01011E51FAEF13F001011E6F77
:1027E800000E010101011D6F01011E5169EF14F076
:1027F800010101011B51030AD8A405EF14F007EFEA
:1028080014F069EF14F03B0E010101011C650FEF94
:1028180014F011EF14F025EF14F0A10E01010101DD
:102828001C6119EF14F01BEF14F025EF14F00101EF
:102838001E6F140E010101011D6F01011E5169EF88
:1028480014F0900E010101011C652DEF14F02FEF1B
:1028580014F043EF14F0CE0E010101011C6137EFB3
:1028680014F039EF14F043EF14F001011E6F040E59
:10287800010101011D6F01011E5169EF14F0E20E03
:10288800010101011C654BEF14F04DEF14F061EFED
:1028980014F0F00E010101011C6155EF14F057EF1F
:1028A80014F061EF14F001011E6F0C0E010101011B
:1028B8001D6F01011E5169EF14F001011E6F000E1A
:1028C800010101011D6F01011E518DEF18F000502B
:1028D800040AD8A472EF14F074EF14F0C9EF15F0DD
:1028E800010101011B677BEF14F07DEF14F087EF06
:1028F80014F001011E6F000E010101011D6F01019D
:102908001E51C7EF15F0010101011B05D8A48FEF77
:1029180014F091EF14F0F5EF14F0070E0101010126
:102928001C6599EF14F09BEF14F0AFEF14F0460E0E
:10293800010101011C61A3EF14F0A5EF14F0AFEF42
:1029480014F001011E6F550E010101011D6F0101F7
:102958001E51F3EF14F05F0E010101011C65B7EF82
:1029680014F0B9EF14F0CDEF14F0D30E010101010A
:102978001C61C1EF14F0C3EF14F0CDEF14F00101A6
:102988001E6F450E010101011D6F01011E51F3EF7C
:1029980014F0D50E010101011C65D5EF14F0D7EF35
:1029A80014F0EBEF14F0E40E010101011C61DFEFFC
:1029B80014F0E1EF14F0EBEF14F001011E6F4D0E6F
:1029C800010101011D6F01011E51F3EF14F0010116
:1029D8001E6F000E010101011D6F01011E51C7EF9D
:1029E80015F0010101011B51020AD8A4FEEF14F0F1
:1029F80000EF15F05AEF15F0D80E010101011C6522
:102A080008EF15F00AEF15F014EF15F001011E6F2D
:102A1800350E010101011D6F01011E5158EF15F01E
:102A2800990E010101011C651CEF15F01EEF15F050
:102A380032EF15F0CB0E010101011C6126EF15F0F4
:102A480028EF15F032EF15F001011E6F250E010178
:102A580001011D6F01011E5158EF15F0720E0101A1
:102A680001011C653AEF15F03CEF15F050EF15F039
:102A7800920E010101011C6144EF15F046EF15F0BB
:102A880050EF15F001011E6F2D0E010101011D6FA0
:102A980001011E5158EF15F001011E6F000E0101D2
:102AA80001011D6F01011E51C7EF15F00101010160
:102AB8001B51030AD8A463EF15F065EF15F0C7EFB3
:102AC80015F0E20E010101011C656DEF15F06FEFC5
:102AD80015F083EF15F0F10E010101011C6177EF8C
:102AE80015F079EF15F083EF15F001011E6F150E43
:102AF800010101011D6F01011E51C7EF15F0B30E51
:102B0800010101011C658BEF15F08DEF15F0A1EFA8
:102B180015F0D30E010101011C6195EF15F097EF37
:102B280015F0A1EF15F001011E6F050E010101015D
:102B38001D6F01011E51C7EF15F0590E010101016A
:102B48001C65A9EF15F0ABEF15F0BFEF15F0A60E59
:102B5800010101011C61B3EF15F0B5EF15F0BFEFEE
:102B680015F001011E6F0D0E010101011D6F01011C
:102B78001E51C7EF15F001011E6F000E0101010182
:102B88001D6F01011E518DEF18F00050050AD8A4E1
:102B9800D0EF15F0D2EF15F027EF17F00101010182
:102BA8001B67D9EF15F0DBEF15F0E5EF15F0010124
:102BB8001E6F000E010101011D6F01011E5125EF5D
:102BC80017F0010101011B05D8A4EDEF15F0EFEF97
:102BD80015F053EF16F0930E010101011C65F7EF94
:102BE80015F0F9EF15F00DEF16F0AF0E0101010128
:102BF8001C6101EF16F003EF16F00DEF16F001015E
:102C08001E6F560E010101011D6F01011E5151EF8A
:102C180016F0580E010101011C6515EF16F017EFAB
:102C280016F02BEF16F0790E010101011C611FEF60
:102C380016F021EF16F02BEF16F001011E6F460E6D
:102C4800010101011D6F01011E5151EF16F0130E14
:102C5800010101011C6533EF16F035EF16F049EF5D
:102C680016F0490E010101011C613DEF16F03FEF1E
:102C780016F049EF16F001011E6F4E0E0101010119
:102C88001D6F01011E5151EF16F001011E6F000E5C
:102C9800010101011D6F01011E5125EF17F001010E
:102CA80001011B51020AD8A45CEF16F05EEF16F082
:102CB800B8EF16F0DE0E010101011C6566EF16F093
:102CC80068EF16F072EF16F001011E6F360E010163
:102CD80001011D6F01011E51B6EF16F0A40E01018E
:102CE80001011C657AEF16F07CEF16F090EF16F0F4
:102CF800D00E010101011C6184EF16F086EF16F079
:102D080090EF16F001011E6F260E010101011D6FE3
:102D180001011E51B6EF16F0830E010101011C6579
:102D280098EF16F09AEF16F0AEEF16F0A10E01012B
:102D380001011C61A2EF16F0A4EF16F0AEEF16F039
:102D480001011E6F2E0E010101011D6F01011E51AF
:102D5800B6EF16F001011E6F000E010101011D6F93
:102D680001011E5125EF17F0010101011B51030A52
:102D7800D8A4C1EF16F0C3EF16F025EF17F0930EA5
:102D8800010101011C65CBEF16F0CDEF16F0E1EF64
:102D980016F0AF0E010101011C61D5EF16F0D7EF57
:102DA80016F0E1EF16F001011E6F160E0101010188
:102DB8001D6F01011E5125EF17F0580E0101010189
:102DC8001C65E9EF16F0EBEF16F0FFEF16F0790E41
:102DD800010101011C61F3EF16F0F5EF16F0FFEFAA
:102DE80016F001011E6F060E010101011D6F0101A0
:102DF8001E5125EF17F0130E010101011C6507EFA5
:102E080017F009EF17F01DEF17F0490E0101010146
:102E18001C6111EF17F013EF17F01DEF17F0010108
:102E28001E6F0E0E010101011D6F01011E5125EFDC
:102E380017F001011E6F000E010101011D6F010154
:102E48001E518DEF18F00050060AD8A42EEF17F087
:102E580030EF17F08DEF18F0010101011B6737EF14
:102E680017F039EF17F043EF17F001011E6F000E4E
:102E7800010101011D6F01011E518DEF18F00101C3
:102E880001011B05D8A44BEF17F04DEF17F0B1EF78
:102E980017F0560E010101011C6555EF17F057EFA9
:102EA80017F06BEF17F0A10E010101011C615FEF34
:102EB80017F061EF17F06BEF17F001011E6F570E57
:102EC800010101011D6F01011E51AFEF17F0AE0E98
:102ED800010101011C6573EF17F075EF17F089EF19
:102EE80017F0D80E010101011C617DEF17F07FEF8B
:102EF80017F089EF17F001011E6F470E010101015C
:102F08001D6F01011E51AFEF17F0DF0E0101010126
:102F18001C6591EF17F093EF17F0A7EF17F0E50E88
:102F2800010101011C619BEF17F09DEF17F0A7EF5E
:102F380017F001011E6F4F0E010101011D6F010104
:102F48001E51AFEF17F001011E6F000E01010101C4
:102F58001D6F01011E518DEF18F0010101011B5178
:102F6800020AD8A4BAEF17F0BCEF17F020EF18F058
:102F7800C70E010101011C65C4EF17F0C6EF17F079
:102F8800DAEF17F0E60E010101011C61CEEF17F030
:102F9800D0EF17F0DAEF17F001011E6F370E0101BD
:102FA80001011D6F01011E511EEF18F08A0E01016B
:102FB80001011C65E2EF17F0E4EF17F0F8EF17F0E6
:102FC800C10E010101011C61ECEF17F0EEEF17F0E3
:102FD800F8EF17F001011E6F270E010101011D6FA7
:102FE80001011E511EEF18F06A0E010101011C6556
:102FF80000EF18F002EF18F016EF18F08D0E01012F
:1030080001011C610AEF18F00CEF18F016EF18F028
:1030180001011E6F2F0E010101011D6F01011E51DB
:103028001EEF18F001011E6F000E010101011D6F56
:1030380001011E518DEF18F0010101011B51030A16
:10304800D8A429EF18F02BEF18F08DEF18F0A40E84
:10305800010101011C6533EF18F035EF18F049EF55
:1030680018F0BF0E010101011C613DEF18F03FEFA0
:1030780018F049EF18F001011E6F170E0101010148
:103088001D6F01011E518DEF18F0810E0101010124
:103098001C6551EF18F053EF18F067EF18F0A10E08
:1030A800010101011C615BEF18F05DEF18F067EF9B
:1030B80018F001011E6F070E010101011D6F0101CA
:1030C8001E518DEF18F06A0E010101011C656FEFAA
:1030D80018F071EF18F085EF18F07E0E010101016C
:1030E8001C6179EF18F07BEF18F085EF18F00101FB
:1030F8001E6F0F0E010101011D6F01011E518DEFA1
:1031080018F001011E6F000E010101011D6F010180
:103118001E51010101011D5192EF18F01200010129
:1031280001010605D8A49BEF18F09DEF18F0B7EF42
:1031380018F00101076F010E016E0101075101012D
:10314800076F000E026E010107510101076F010EA2
:1031580001010101086F01010751E6EC34F0C8ECE8
:1031680027F0ABEF21F0010101010651110AD8A4A3
:10317800C0EF18F0C2EF18F0DCEF18F00101076F8C
:10318800110E016E010107510101076F000E026E59
:10319800010107510101076F110E01010101086FBB
:1031A80001010751E6EC34F0C8EC27F0ABEF21F051
:1031B800010101010651090AD8A4E5EF18F0E7EF6B
:1031C80018F001EF19F00101076F090E016E0101F6
:1031D80007510101076F000E026E0101075101013D
:1031E800076F090E01010101086F01010751E6ECA3
:1031F80034F0C8EC27F0ABEF21F0010101010651D2
:10320800020AD8A40AEF19F00CEF19F026EF19F00A
:103218000101076F020E016E010107510101076FDD
:10322800010E026E010107510101076F020E010133
:103238000101086F01010751E6EC34F0C8EC27F0F2
:10324800ABEF21F0010101010651120AD8A42FEFBA
:1032580019F031EF19F04BEF19F00101076F120E59
:10326800016E010107510101076F010E026E010194
:1032780007510101076F120E01010101086F0101D9
:103288000751E6EC34F0C8EC27F0ABEF21F0010170
:10329800010106510A0AD8A454EF19F056EF19F0A3
:1032A80070EF19F00101076F0A0E016E0101075155
:1032B8000101076F010E026E010107510101076F3D
:1032C8000A0E01010101086F01010751E6EC34F013
:1032D800C8EC27F0ABEF21F0010101010651030A08
:1032E800D8A479EF19F07BEF19F095EF19F00101E7
:1032F800076F030E016E010107510101076F020EEE
:10330800026E010107510101076F030E010101015E
:10331800086F01010751E6EC34F0C8EC27F0ABEF79
:1033280021F0010101010651130AD8A49EEF19F0FA
:10333800A0EF19F0BAEF19F00101076F130E016E33
:10334800010107510101076F020E026E01010751C9
:103358000101076F130E01010101086F01010751F7
:10336800E6EC34F0C8EC27F0ABEF21F001010101E5
:1033780006510B0AD8A4C3EF19F0C5EF19F0DFEF17
:1033880019F00101076F0B0E016E010107510101D0
:10339800076F020E026E010107510101076F0B0E44
:1033A80001010101086F01010751E6EC34F0C8EC96
:1033B80027F0ABEF21F0010101010651040AD8A45E
:1033C800E8EF19F0EAEF19F004EF1AF00101076FBE
:1033D800040E016E010107510101076F030E026E11
:1033E800010107510101076F040E01010101086F76
:1033F80001010751E6EC34F0C8EC27F0ABEF21F0FF
:10340800010101010651140AD8A40DEF1AF00FEFBB
:103418001AF029EF1AF00101076F140E016E01016D
:1034280007510101076F030E026E010107510101E7
:10343800076F140E01010101086F01010751E6EC45
:1034480034F0C8EC27F0ABEF21F00101010106517F
:103458000C0AD8A432EF1AF034EF1AF04EEF1AF033
:103468000101076F0C0E016E010107510101076F81
:10347800030E026E010107510101076F0C0E0101D5
:103488000101086F01010751E6EC34F0C8EC27F0A0
:10349800ABEF21F0010101010651050AD8A457EF4D
:1034A8001AF059EF1AF073EF1AF00101076F050EC1
:1034B800016E010107510101076F040E026E01013F
:1034C80007510101076F050E01010101086F010194
:1034D8000751E6EC34F0C8EC27F0ABEF21F001011E
:1034E80001010651150AD8A47CEF1AF07EEF1AF0F4
:1034F80098EF1AF00101076F150E016E01010751CF
:103508000101076F040E026E010107510101076FE7
:10351800150E01010101086F01010751E6EC34F0B5
:10352800C8EC27F0ABEF21F00101010106510D0AAB
:10353800D8A4A1EF1AF0A3EF1AF0BDEF1AF0010119
:10354800076F0D0E016E010107510101076F040E8F
:10355800026E010107510101076F0D0E0101010102
:10356800086F01010751E6EC34F0C8EC27F0ABEF27
:1035780021F0010101010651060AD8A4C6EF1AF08C
:10358800C8EF1AF0E2EF1AF00101076F060E016E9C
:10359800010107510101076F050E026E0101075174
:1035A8000101076F060E01010101086F01010751B2
:1035B800E6EC34F0C8EC27F0ABEF21F00101010193
:1035C8000651160AD8A4EBEF1AF0EDEF1AF007EF40
:1035D8001BF00101076F160E016E01010751010171
:1035E800076F050E026E010107510101076F160EE4
:1035F80001010101086F01010751E6EC34F0C8EC44
:1036080027F0ABEF21F00101010106510E0AD8A401
:1036180010EF1BF012EF1BF02CEF1BF00101076FEE
:103628000E0E016E010107510101076F050E026EB2
:10363800010107510101076F0E0E01010101086F19
:1036480001010751E6EC34F0C8EC27F0ABEF21F0AC
:10365800010101010651070AD8A435EF1BF037EF25
:103668001BF051EF1BF00101076F070E016E0101FE
:1036780007510101076F060E026E01010751010192
:10368800076F070E01010101086F01010751E6EC00
:1036980034F0C8EC27F0ABEF21F00101010106512D
:1036A800170AD8A45AEF1BF05CEF1BF076EF1BF05B
:1036B8000101076F170E016E010107510101076F24
:1036C800060E026E010107510101076F170E010175
:1036D8000101086F01010751E6EC34F0C8EC27F04E
:1036E800ABEF21F00101010106510F0AD8A47FEFC9
:1036F8001BF081EF1BF09BEF1BF00101076F0F0E12
:10370800016E010107510101076F060E026E0101EA
:1037180007510101076F0F0E01010101086F010137
:103728000751E6EC34F0C8EC27F0ABEF21F00101CB
:1037380001010651210AD8A4A4EF1BF0A6EF1BF043
:10374800C0EF1BF00101076F210E016E0101075147
:103758000101076F000E026E010107510101076F99
:10376800210E01010101086F01010751E6EC34F057
:10377800C8EC27F0ABEF21F0010101010651310A35
:10378800D8A4C9EF1BF0CBEF1BF0E5EF1BF001014C
:10379800076F310E016E010107510101076F000E1D
:1037A800026E010107510101076F310E010101018C
:1037B800086F01010751E6EC34F0C8EC27F0ABEFD5
:1037C80021F0010101010651290AD8A4EEEF1BF0EE
:1037D800F0EF1BF00AEF1CF00101076F290E016ED4
:1037E800010107510101076F000E026E0101075127
:1037F8000101076F290E01010101086F010107513D
:10380800E6EC34F0C8EC27F0ABEF21F00101010140
:103818000651220AD8A413EF1CF015EF1CF02FEF65
:103828001CF00101076F220E016E01010751010111
:10383800076F010E026E010107510101076F220E89
:1038480001010101086F01010751E6EC34F0C8ECF1
:1038580027F0ABEF21F0010101010651320AD8A48B
:1038680038EF1CF03AEF1CF054EF1CF00101076F21
:10387800320E016E010107510101076F010E026E40
:10388800010107510101076F320E01010101086FA3
:1038980001010751E6EC34F0C8EC27F0ABEF21F05A
:1038A8000101010106512A0AD8A45DEF1CF05FEF5F
:1038B8001CF079EF1CF00101076F2A0E016E01015F
:1038C80007510101076F010E026E01010751010145
:1038D800076F2A0E01010101086F01010751E6EC8B
:1038E80034F0C8EC27F0ABEF21F0010101010651DB
:1038F800230AD8A482EF1CF084EF1CF09EEF1CF082
:103908000101076F230E016E010107510101076FC5
:10391800020E026E010107510101076F230E01011A
:103928000101086F01010751E6EC34F0C8EC27F0FB
:10393800ABEF21F0010101010651330AD8A4A7EF2A
:103948001CF0A9EF1CF0C3EF1CF00101076F330E48
:10395800016E010107510101076F020E026E01019C
:1039680007510101076F330E01010101086F0101C1
:103978000751E6EC34F0C8EC27F0ABEF21F0010179
:10398800010106512B0AD8A4CCEF1CF0CEEF1CF095
:10399800E8EF1CF00101076F2B0E016E01010751C2
:1039A8000101076F020E026E010107510101076F45
:1039B8002B0E01010101086F01010751E6EC34F0FB
:1039C800C8EC27F0ABEF21F0010101010651240AF0
:1039D800D8A4F1EF1CF0F3EF1CF00DEF1DF001017E
:1039E800076F240E016E010107510101076F030ED5
:1039F800026E010107510101076F240E0101010147
:103A0800086F01010751E6EC34F0C8EC27F0ABEF82
:103A180021F0010101010651340AD8A416EF1DF066
:103A280018EF1DF032EF1DF00101076F340E016E23
:103A3800010107510101076F030E026E01010751D1
:103A48000101076F340E01010101086F01010751DF
:103A5800E6EC34F0C8EC27F0ABEF21F001010101EE
:103A680006512C0AD8A43BEF1DF03DEF1DF057EF8F
:103A78001DF00101076F2C0E016E010107510101B4
:103A8800076F030E026E010107510101076F2C0E2B
:103A980001010101086F01010751E6EC34F0C8EC9F
:103AA80027F0ABEF21F0010101010651250AD8A446
:103AB80060EF1DF062EF1DF07CEF1DF00101076F54
:103AC800250E016E010107510101076F040E026EF8
:103AD800010107510101076F250E01010101086F5E
:103AE80001010751E6EC34F0C8EC27F0ABEF21F008
:103AF800010101010651350AD8A485EF1DF087EFB1
:103B08001DF0A1EF1DF00101076F350E016E0101D7
:103B180007510101076F040E026E010107510101EF
:103B2800076F350E01010101086F01010751E6EC2D
:103B380034F0C8EC27F0ABEF21F001010101065188
:103B48002D0AD8A4AAEF1DF0ACEF1DF0C6EF1DF0AA
:103B58000101076F2D0E016E010107510101076F69
:103B6800040E026E010107510101076F2D0E0101BC
:103B78000101086F01010751E6EC34F0C8EC27F0A9
:103B8800ABEF21F0010101010651260AD8A4CFEFBD
:103B98001DF0D1EF1DF0EBEF1DF00101076F260EB0
:103BA800016E010107510101076F050E026E010147
:103BB80007510101076F260E01010101086F01017C
:103BC8000751E6EC34F0C8EC27F0ABEF21F0010127
:103BD80001010651360AD8A4F4EF1DF0F6EF1DF0E6
:103BE80010EF1EF00101076F360E016E010107513B
:103BF8000101076F050E026E010107510101076FF0
:103C0800360E01010101086F01010751E6EC34F09D
:103C1800C8EC27F0ABEF21F00101010106512E0A93
:103C2800D8A419EF1EF01BEF1EF035EF1EF00101AE
:103C3800076F2E0E016E010107510101076F050E76
:103C4800026E010107510101076F2E0E01010101EA
:103C5800086F01010751E6EC34F0C8EC27F0ABEF30
:103C680021F0010101010651270AD8A43EEF1EF0F8
:103C780040EF1EF05AEF1EF00101076F270E016E8C
:103C8800010107510101076F060E026E010107517C
:103C98000101076F270E01010101086F010107519A
:103CA800E6EC34F0C8EC27F0ABEF21F0010101019C
:103CB8000651370AD8A463EF1EF065EF1EF07FEFB8
:103CC8001EF00101076F370E016E01010751010156
:103CD800076F060E026E010107510101076F370ECB
:103CE80001010101086F01010751E6EC34F0C8EC4D
:103CF80027F0ABEF21F00101010106512F0AD8A4EA
:103D080088EF1EF08AEF1EF0A4EF1EF00101076F86
:103D18002F0E016E010107510101076F060E026E99
:103D2800010107510101076F2F0E01010101086F01
:103D380001010751E6EC34F0C8EC27F0ABEF21F0B5
:103D4800010101010651410AD8A4ADEF1EF0AFEF01
:103D58001EF0C9EF1EF00101076F410E016E01014F
:103D680007510101076F000E026E010107510101A1
:103D7800076F410E01010101086F01010751E6ECCF
:103D880034F0C8EC27F0ABEF21F001010101065136
:103D9800510AD8A4D2EF1EF0D4EF1EF0EEEF1EF0B9
:103DA8000101076F510E016E010107510101076FF3
:103DB800000E026E010107510101076F510E01014A
:103DC8000101086F01010751E6EC34F0C8EC27F057
:103DD800ABEF21F0010101010651490AD8A4F7EF20
:103DE8001EF0F9EF1EF013EF1FF00101076F490EE7
:103DF800016E010107510101076F000E026E0101FA
:103E080007510101076F490E01010101086F010106
:103E18000751E6EC34F0C8EC27F0ABEF21F00101D4
:103E280001010651420AD8A41CEF1FF01EEF1FF033
:103E380038EF1FF00101076F420E016E01010751B3
:103E48000101076F010E026E010107510101076FA1
:103E5800420E01010101086F01010751E6EC34F03F
:103E6800C8EC27F0ABEF21F0010101010651520A1D
:103E7800D8A441EF1FF043EF1FF05DEF1FF00101E1
:103E8800076F520E016E010107510101076F010E04
:103E9800026E010107510101076F520E0101010174
:103EA800086F01010751E6EC34F0C8EC27F0ABEFDE
:103EB80021F00101010106514A0AD8A466EF1FF05A
:103EC80068EF1FF082EF1FF00101076F4A0E016EC5
:103ED800010107510101076F010E026E010107512F
:103EE8000101076F4A0E01010101086F0101075125
:103EF800E6EC34F0C8EC27F0ABEF21F0010101014A
:103F08000651430AD8A48BEF1FF08DEF1FF0A7EFDF
:103F18001FF00101076F430E016E010107510101F6
:103F2800076F020E026E010107510101076F430E70
:103F380001010101086F01010751E6EC34F0C8ECFA
:103F480027F0ABEF21F0010101010651530AD8A473
:103F5800B0EF1FF0B2EF1FF0CCEF1FF00101076FB9
:103F6800530E016E010107510101076F020E026E27
:103F7800010107510101076F530E01010101086F8B
:103F880001010751E6EC34F0C8EC27F0ABEF21F063
:103F98000101010106514B0AD8A4D5EF1FF0D7EF54
:103FA8001FF0F1EF1FF00101076F4B0E016E0101C9
:103FB80007510101076F020E026E0101075101014D
:103FC800076F4B0E01010101086F01010751E6EC73
:103FD80034F0C8EC27F0ABEF21F0010101010651E4
:103FE800440AD8A4FAEF1FF0FCEF1FF016EF20F0F8
:103FF8000101076F440E016E010107510101076FAE
:10400800030E026E010107510101076F440E010101
:104018000101086F01010751E6EC34F0C8EC27F004
:10402800ABEF21F0010101010651540AD8A41FEF9A
:1040380020F021EF20F03BEF20F00101076F540E34
:10404800016E010107510101076F030E026E0101A4
:1040580007510101076F540E01010101086F0101A9
:104068000751E6EC34F0C8EC27F0ABEF21F0010182
:10407800010106514C0AD8A444EF20F046EF20F085
:1040880060EF20F00101076F4C0E016E010107512E
:104098000101076F030E026E010107510101076F4D
:1040A8004C0E01010101086F01010751E6EC34F0E3
:1040B800C8EC27F0ABEF21F0010101010651450AD8
:1040C800D8A469EF20F06BEF20F085EF20F0010114
:1040D800076F450E016E010107510101076F040EBC
:1040E800026E010107510101076F450E010101012F
:1040F800086F01010751E6EC34F0C8EC27F0ABEF8C
:1041080021F0010101010651550AD8A48EEF20F0D3
:1041180090EF20F0AAEF20F00101076F550E016E15
:10412800010107510101076F040E026E01010751D9
:104138000101076F550E01010101086F01010751C7
:10414800E6EC34F0C8EC27F0ABEF21F001010101F7
:1041580006514D0AD8A4B3EF20F0B5EF20F0CFEF09
:1041680020F00101076F4D0E016E01010751010199
:10417800076F040E026E010107510101076F4D0E12
:1041880001010101086F01010751E6EC34F0C8ECA8
:1041980027F0ABEF21F0010101010651460AD8A42E
:1041A800D8EF20F0DAEF20F0F4EF20F00101076FEC
:1041B800460E016E010107510101076F050E026EDF
:1041C800010107510101076F460E01010101086F46
:1041D80001010751E6EC34F0C8EC27F0ABEF21F011
:1041E800010101010651560AD8A4FDEF20F0FFEFA6
:1041F80020F019EF21F00101076F560E016E010141
:1042080007510101076F050E026E010107510101F7
:10421800076F560E01010101086F01010751E6EC15
:1042280034F0C8EC27F0ABEF21F001010101065191
:104238004E0AD8A422EF21F024EF21F03EEF21F01E
:104248000101076F4E0E016E010107510101076F51
:10425800050E026E010107510101076F4E0E0101A3
:104268000101086F01010751E6EC34F0C8EC27F0B2
:10427800ABEF21F0010101010651470AD8A447EF2D
:1042880021F049EF21F063EF21F00101076F470E9C
:10429800016E010107510101076F060E026E01014F
:1042A80007510101076F470E01010101086F010164
:1042B8000751E6EC34F0C8EC27F0ABEF21F0010130
:1042C80001010651570AD8A46CEF21F06EEF21F0D6
:1042D80088EF21F00101076F570E016E01010751A8
:1042E8000101076F060E026E010107510101076FF8
:1042F800570E01010101086F01010751E6EC34F086
:10430800C8EC27F0ABEF21F00101010106514F0A7B
:10431800D8A491EF21F093EF21F0ABEF21F0010148
:10432800076F4F0E016E010107510101076F060E5D
:10433800026E010107510101076F4F0E01010101D2
:10434800086F01010751E6EC34F0C8EC27F01200C1
:104358000250020AD8A4B3EF21F0B5EF21F0C6EF5E
:1043680021F00150030AD8A4BCEF21F0BEEF21F0E0
:10437800C6EF21F0EF0E896EE00E8A6E0F0E8B6E7F
:10438800C7EF27F00250030AD8A4CDEF21F0CFEFF2
:1043980021F0E0EF21F00150040AD8A4D6EF21F073
:1043A800D8EF21F0E0EF21F0BF0E896EE00E8A6EA3
:1043B8000F0E8B6EC7EF27F00250040AD8A4E7EF60
:1043C80021F0E9EF21F0F9EF21F00150050AD8A416
:1043D800F0EF21F0F2EF21F0F9EF21F08968E00E1B
:1043E8008A6E0E0E8B6EC7EF27F00250050AD8A40E
:1043F80000EF22F002EF22F012EF22F00150060A3D
:10440800D8A409EF22F00BEF22F012EF22F089680E
:10441800E00E8A6E0D0E8B6EC7EF27F00250060A6B
:10442800D8A419EF22F01BEF22F02BEF22F0015055
:10443800070AD8A422EF22F024EF22F02BEF22F073
:104448008968600E8A6E0F0E8B6EC7EF27F00266C2
:1044580030EF22F032EF22F041EF22F00104D8A42D
:1044680038EF22F03AEF22F041EF22F08968E00EAF
:104478008A6E0B0E8B6EC7EF27F00204D8A447EFA5
:1044880022F049EF22F059EF22F00150020AD8A495
:1044980050EF22F052EF22F059EF22F08968E00E37
:1044A8008A6E070E8B6EC7EF27F00250020AD8A457
:1044B80060EF22F062EF22F073EF22F001500B0A56
:1044C800D8A469EF22F06BEF22F073EF22F0EF0E21
:1044D800896EC00E8A6E0F0E8B6EC7EF27F00250E2
:1044E800030AD8A47AEF22F07CEF22F08DEF22F0B5
:1044F80001500C0AD8A483EF22F085EF22F08DEF4B
:1045080022F0BF0E896EC00E8A6E0F0E8B6EC7EF3B
:1045180027F00250040AD8A494EF22F096EF22F074
:10452800A6EF22F001500D0AD8A49DEF22F09FEFCC
:1045380022F0A6EF22F08968C00E8A6E0E0E8B6EEE
:10454800C7EF27F00250050AD8A4ADEF22F0AFEF6D
:1045580022F0BFEF22F00150160AD8A4B6EF22F0DD
:10456800B8EF22F0BFEF22F08968C00E8A6E0D0EF8
:104578008B6EC7EF27F00250060AD8A4C6EF22F0C8
:10458800C8EF22F0D8EF22F00150170AD8A4CFEFD5
:1045980022F0D1EF22F0D8EF22F08968400E8A6E1F
:1045A8000F0E8B6EC7EF27F00266DDEF22F0DFEF0C
:1045B80022F0EFEF22F00150090AD8A4E6EF22F02A
:1045C800E8EF22F0EFEF22F08968C00E8A6E0B0E3A
:1045D8008B6EC7EF27F00204D8A4F5EF22F0F7EFAF
:1045E80022F007EF23F001500A0AD8A4FEEF22F0C8
:1045F80000EF23F007EF23F08968C00E8A6E070EDC
:104608008B6EC7EF27F00250020AD8A40EEF23F0F2
:1046180010EF23F021EF23F00150130AD8A417EF6D
:1046280023F019EF23F021EF23F0EF0E896EA00E8F
:104638008A6E0F0E8B6EC7EF27F00250030AD8A4BC
:1046480028EF23F02AEF23F03BEF23F00150140A60
:10465800D8A431EF23F033EF23F03BEF23F0BF0E64
:10466800896EA00E8A6E0F0E8B6EC7EF27F0025070
:10467800040AD8A442EF23F044EF23F054EF23F0C8
:104688000150150AD8A44BEF23F04DEF23F054EF57
:1046980023F08968A00E8A6E0E0E8B6EC7EF27F086
:1046A8000250050AD8A45BEF23F05DEF23F06DEF0D
:1046B80023F001500E0AD8A464EF23F066EF23F02C
:1046C8006DEF23F08968A00E8A6E0D0E8B6EC7EF12
:1046D80027F00250060AD8A474EF23F076EF23F0EF
:1046E80086EF23F001500F0AD8A47DEF23F07FEF67
:1046F80023F086EF23F08968200E8A6E0F0E8B6EEA
:10470800C7EF27F002668BEF23F08DEF23F09DEFC4
:1047180023F00150110AD8A494EF23F096EF23F068
:104728009DEF23F08968A00E8A6E0B0E8B6EC7EF83
:1047380027F00204D8A4A3EF23F0A5EF23F0B5EFE8
:1047480023F00150120AD8A4ACEF23F0AEEF23F007
:10475800B5EF23F08968A00E8A6E070E8B6EC7EF3F
:1047680027F00250020AD8A4BCEF23F0BEEF23F0D2
:10477800CFEF23F00150230AD8A4C5EF23F0C7EFE9
:1047880023F0CFEF23F0EF0E896E8C0E8A6E0F0E9A
:104798008B6EC7EF27F00250030AD8A4D6EF23F098
:1047A800D8EF23F0E9EF23F00150240AD8A4DFEF73
:1047B80023F0E1EF23F0E9EF23F0BF0E896E8C0EB2
:1047C8008A6E0F0E8B6EC7EF27F00250040AD8A42A
:1047D800F0EF23F0F2EF23F002EF24F00150250A66
:1047E800D8A4F9EF23F0FBEF23F002EF24F0896857
:1047F8008C0E8A6E0E0E8B6EC7EF27F00250050ADC
:10480800D8A409EF24F00BEF24F01BEF24F001509B
:10481800260AD8A412EF24F014EF24F01BEF24F09A
:1048280089688C0E8A6E0D0E8B6EC7EF27F00250CA
:10483800060AD8A422EF24F024EF24F034EF24F061
:104848000150270AD8A42BEF24F02DEF24F034EFE1
:1048580024F089680C0E8A6E0F0E8B6EC7EF27F056
:10486800026639EF24F03BEF24F04BEF24F00150BF
:10487800210AD8A442EF24F044EF24F04BEF24F0AF
:1048880089688C0E8A6E0B0E8B6EC7EF27F00204B8
:10489800D8A451EF24F053EF24F063EF24F0015033
:1048A800220AD8A45AEF24F05CEF24F063EF24F036
:1048B80089688C0E8A6E070E8B6EC7EF27F0025040
:1048C800020AD8A46AEF24F06CEF24F07DEF24F0FC
:1048D80001502B0AD8A473EF24F075EF24F07DEF74
:1048E80024F0EF0E896E840E8A6E0F0E8B6EC7EF62
:1048F80027F00250030AD8A484EF24F086EF24F0AE
:1049080097EF24F001502C0AD8A48DEF24F08FEFF4
:1049180024F097EF24F0BF0E896E840E8A6E0F0E76
:104928008B6EC7EF27F00250040AD8A49EEF24F03C
:10493800A0EF24F0B0EF24F001502D0AD8A4A7EF7F
:1049480024F0A9EF24F0B0EF24F08968840E8A6E71
:104958000E0E8B6EC7EF27F00250050AD8A4B7EFEA
:1049680024F0B9EF24F0C9EF24F001502E0AD8A49E
:10497800C0EF24F0C2EF24F0C9EF24F08968840E58
:104988008A6E0D0E8B6EC7EF27F00250060AD8A468
:10499800D0EF24F0D2EF24F0E2EF24F001502F0AF8
:1049A800D8A4D9EF24F0DBEF24F0E2EF24F08968F3
:1049B800040E8A6E0F0E8B6EC7EF27F00266E7EFC4
:1049C80024F0E9EF24F0F9EF24F00150290AD8A4E3
:1049D800F0EF24F0F2EF24F0F9EF24F08968840E68
:1049E8008A6E0B0E8B6EC7EF27F00204D8A4FFEF78
:1049F80024F001EF25F011EF25F001502A0AD8A480
:104A080008EF25F00AEF25F011EF25F08968840EEC
:104A18008A6E070E8B6EC7EF27F00250020AD8A4E1
:104A280018EF25F01AEF25F02BEF25F00150330A87
:104A3800D8A421EF25F023EF25F02BEF25F0EF0E7A
:104A4800896E880E8A6E0F0E8B6EC7EF27F00250A4
:104A5800030AD8A432EF25F034EF25F045EF25F00E
:104A68000150340AD8A43BEF25F03DEF25F045EF7F
:104A780025F0BF0E896E880E8A6E0F0E8B6EC7EFFB
:104A880027F00250040AD8A44CEF25F04EEF25F089
:104A98005EEF25F00150350AD8A455EF25F057EF01
:104AA80025F05EEF25F08968880E8A6E0E0E8B6EF3
:104AB800C7EF27F00250050AD8A465EF25F067EF85
:104AC80025F077EF25F00150360AD8A46EEF25F0CF
:104AD80070EF25F077EF25F08968880E8A6E0D0E45
:104AE8008B6EC7EF27F00250060AD8A47EEF25F098
:104AF80080EF25F090EF25F00150370AD8A487EF12
:104B080025F089EF25F090EF25F08968080E8A6E68
:104B18000F0E8B6EC7EF27F0026695EF25F097EF23
:104B280025F0A7EF25F00150310AD8A49EEF25F013
:104B3800A0EF25F0A7EF25F08968880E8A6E0B0E86
:104B48008B6EC7EF27F00204D8A4ADEF25F0AFEFC6
:104B580025F0BFEF25F00150320AD8A4B6EF25F0B2
:104B6800B8EF25F0BFEF25F08968880E8A6E070E2A
:104B78008B6EC7EF27F00250020AD8A4C6EF25F0C3
:104B8800C8EF25F0D9EF25F00150430AD8A4CFEF9C
:104B980025F0D1EF25F0D9EF25F0EF0E896E800EC4
:104BA8008A6E3F0E8B6EC7EF27F00250030AD8A417
:104BB800E0EF25F0E2EF25F0F3EF25F00150440A8D
:104BC800D8A4E9EF25F0EBEF25F0F3EF25F0BF0EC1
:104BD800896E800E8A6E3F0E8B6EC7EF27F00250EB
:104BE800040AD8A4FAEF25F0FCEF25F00CEF26F024
:104BF8000150450AD8A403EF26F005EF26F00CEF84
:104C080026F08968800E8A6E3E0E8B6EC7EF27F0FD
:104C18000250050AD8A413EF26F015EF26F025EF69
:104C280026F00150460AD8A41CEF26F01EEF26F005
:104C380025EF26F08968800E8A6E3D0E8B6EC7EFD1
:104C480027F00250060AD8A42CEF26F02EEF26F003
:104C58003EEF26F00150470AD8A435EF26F037EF8B
:104C680026F03EEF26F08968000E8A6E3F0E8B6EA6
:104C7800C7EF27F0026643EF26F045EF26F055EF21
:104C880026F00150410AD8A44CEF26F04EEF26F04A
:104C980055EF26F08968800E8A6E3B0E8B6EC7EF43
:104CA80027F00204D8A45BEF26F05DEF26F06DEF45
:104CB80026F00150420AD8A464EF26F066EF26F0E9
:104CC8006DEF26F08968800E8A6E370E8B6EC7EFFF
:104CD80027F00250020AD8A474EF26F076EF26F0E7
:104CE80087EF26F001504B0AD8A47DEF26F07FEF1E
:104CF80026F087EF26F0EF0E896E800E8A6E1F0E63
:104D08008B6EC7EF27F00250030AD8A48EEF26F067
:104D180090EF26F0A1EF26F001504C0AD8A497EFA7
:104D280026F099EF26F0A1EF26F0BF0E896E800ECF
:104D38008A6E1F0E8B6EC7EF27F00250040AD8A4A4
:104D4800A8EF26F0AAEF26F0BAEF26F001504D0A98
:104D5800D8A4B1EF26F0B3EF26F0BAEF26F08968B1
:104D6800800E8A6E1E0E8B6EC7EF27F00250050A62
:104D7800D8A4C1EF26F0C3EF26F0D3EF26F00150F8
:104D88004E0AD8A4CAEF26F0CCEF26F0D3EF26F0CF
:104D98008968800E8A6E1D0E8B6EC7EF27F0025051
:104DA800060AD8A4DAEF26F0DCEF26F0ECEF26F0BE
:104DB80001504F0AD8A4E3EF26F0E5EF26F0ECEF18
:104DC80026F08968000E8A6E1F0E8B6EC7EF27F0DB
:104DD8000266F1EF26F0F3EF26F003EF27F001501B
:104DE800490AD8A4FAEF26F0FCEF26F003EF27F0E3
:104DF8008968800E8A6E1B0E8B6EC7EF27F002043F
:104E0800D8A409EF27F00BEF27F01BEF27F001508C
:104E18004A0AD8A412EF27F014EF27F01BEF27F067
:104E28008968800E8A6E170E8B6EC7EF27F00250C6
:104E3800020AD8A422EF27F024EF27F035EF27F055
:104E48000150530AD8A42BEF27F02DEF27F035EFA8
:104E580027F0EF0E896E800E8A6E2F0E8B6EC7EFCD
:104E680027F00250030AD8A43CEF27F03EEF27F0C2
:104E78004FEF27F00150540AD8A445EF27F047EF29
:104E880027F04FEF27F0BF0E896E800E8A6E2F0E27
:104E98008B6EC7EF27F00250040AD8A456EF27F00C
:104EA80058EF27F068EF27F00150550AD8A45FEFB4
:104EB80027F061EF27F068EF27F08968800E8A6E87
:104EC8002E0E8B6EC7EF27F00250050AD8A46FEF9D
:104ED80027F071EF27F081EF27F00150560AD8A488
:104EE80078EF27F07AEF27F081EF27F08968800EB6
:104EF8008A6E2D0E8B6EC7EF27F00250060AD8A4D3
:104F080088EF27F08AEF27F09AEF27F00150570A29
:104F1800D8A491EF27F093EF27F09AEF27F089684C
:104F2800000E8A6E2F0E8B6EC7EF27F002669FEF7A
:104F380027F0A1EF27F0B1EF27F00150510AD8A4CC
:104F4800A8EF27F0AAEF27F0B1EF27F08968800EC5
:104F58008A6E2B0E8B6EC7EF27F00204D8A4B7EF2A
:104F680027F0B9EF27F0C7EF27F00150520AD8A46D
:104F7800C0EF27F0C2EF27F0C7EF27F08968800E4F
:104F88008A6E270E8B6E12000250020AD8A4CFEF49
:104F980027F0D1EF27F0E2EF27F00150030AD8A459
:104FA800D8EF27F0DAEF27F0E2EF27F0EF0E896E5F
:104FB800E00E8A6E0F0E8B6EE3EF2DF00250030A9F
:104FC800D8A4E9EF27F0EBEF27F0FCEF27F001502A
:104FD800040AD8A4F2EF27F0F4EF27F0FCEF27F04B
:104FE800BF0E896EE00E8A6E0F0E8B6EE3EF2DF00A
:104FF8000250040AD8A403EF28F005EF28F015EFB3
:1050080028F00150050AD8A40CEF28F00EEF28F07C
:1050180015EF28F08968E00E8A6E0E0E8B6EE3EFAE
:105028002DF00250050AD8A41CEF28F01EEF28F036
:105038002EEF28F00150060AD8A425EF28F027EF14
:1050480028F02EEF28F08968E00E8A6E0D0E8B6E20
:10505800E3EF2DF00250060AD8A435EF28F037EF19
:1050680028F047EF28F00150070AD8A43EEF28F0AF
:1050780040EF28F047EF28F08968600E8A6E0F0E1F
:105088008B6EE3EF2DF002664CEF28F04EEF28F020
:105098005DEF28F00104D8A454EF28F056EF28F06B
:1050A8005DEF28F08968E00E8A6E0B0E8B6EE3EFD9
:1050B8002DF00204D8A463EF28F065EF28F075EF0F
:1050C80028F00150020AD8A46CEF28F06EEF28F0FF
:1050D80075EF28F08968E00E8A6E070E8B6EE3EF95
:1050E8002DF00250020AD8A47CEF28F07EEF28F0B9
:1050F8008FEF28F001500B0AD8A485EF28F087EF2E
:1051080028F08FEF28F0EF0E896EC00E8A6E0F0E12
:105118008B6EE3EF2DF00250030AD8A496EF28F027
:1051280098EF28F0A9EF28F001500C0AD8A49FEFB7
:1051380028F0A1EF28F0A9EF28F0BF0E896EC00E65
:105148008A6E0F0E8B6EE3EF2DF00250040AD8A47E
:10515800B0EF28F0B2EF28F0C2EF28F001500D0AA6
:10516800D8A4B9EF28F0BBEF28F0C2EF28F089687F
:10517800C00E8A6E0E0E8B6EE3EF2DF00250050AFC
:10518800D8A4C9EF28F0CBEF28F0DBEF28F00150C6
:10519800160AD8A4D2EF28F0D4EF28F0DBEF28F0D5
:1051A8008968C00E8A6E0D0E8B6EE3EF2DF00250EB
:1051B800060AD8A4E2EF28F0E4EF28F0F4EF28F08C
:1051C8000150170AD8A4EBEF28F0EDEF28F0F4EF20
:1051D80028F08968400E8A6E0F0E8B6EE3EF2DF073
:1051E8000266F9EF28F0FBEF28F00BEF29F00150E9
:1051F800090AD8A402EF29F004EF29F00BEF29F0EF
:105208008968C00E8A6E0B0E8B6EE3EF2DF00204D8
:10521800D8A411EF29F013EF29F023EF29F001505A
:105228000A0AD8A41AEF29F01CEF29F023EF29F075
:105238008968C00E8A6E070E8B6EE3EF2DF0025060
:10524800020AD8A42AEF29F02CEF29F03DEF29F023
:105258000150130AD8A433EF29F035EF29F03DEFB8
:1052680029F0EF0E896EA00E8A6E0F0E8B6EE3EF9B
:105278002DF00250030AD8A444EF29F046EF29F094
:1052880057EF29F00150140AD8A44DEF29F04FEF39
:1052980029F057EF29F0BF0E896EA00E8A6E0F0E07
:1052A8008B6EE3EF2DF00250040AD8A45EEF29F0CC
:1052B80060EF29F070EF29F00150150AD8A467EFC4
:1052C80029F069EF29F070EF29F08968A00E8A6E3D
:1052D8000E0E8B6EE3EF2DF00250050AD8A477EF7F
:1052E80029F079EF29F089EF29F001500E0AD8A4A6
:1052F80080EF29F082EF29F089EF29F08968A00E64
:105308008A6E0D0E8B6EE3EF2DF00250060AD8A4BC
:1053180090EF29F092EF29F0A2EF29F001500F0A3F
:10532800D8A499EF29F09BEF29F0A2EF29F089681A
:10533800200E8A6E0F0E8B6EE3EF2DF00266A7EF3C
:1053480029F0A9EF29F0B9EF29F00150110AD8A4E2
:10535800B0EF29F0B2EF29F0B9EF29F08968A00E73
:105368008A6E0B0E8B6EE3EF2DF00204D8A4BFEF0C
:1053780029F0C1EF29F0D1EF29F00150120AD8A481
:10538800C8EF29F0CAEF29F0D1EF29F08968A00EFB
:105398008A6E070E8B6EE3EF2DF00250020AD8A436
:1053A800D8EF29F0DAEF29F0EBEF29F00150230AC2
:1053B800D8A4E1EF29F0E3EF29F0EBEF29F0EF0EA5
:1053C800896E8C0E8A6E0F0E8B6EE3EF2DF00250F5
:1053D800030AD8A4F2EF29F0F4EF29F005EF2AF038
:1053E8000150240AD8A4FBEF29F0FDEF29F005EFBE
:1053F8002AF0BF0E896E8C0E8A6E0F0E8B6EE3EF4D
:105408002DF00250040AD8A40CEF2AF00EEF2AF06F
:105418001EEF2AF00150250AD8A415EF2AF017EF3D
:105428002AF01EEF2AF089688C0E8A6E0E0E8B6E9B
:10543800E3EF2DF00250050AD8A425EF2AF027EF54
:105448002AF037EF2AF00150260AD8A42EEF2AF0C6
:1054580030EF2AF037EF2AF089688C0E8A6E0D0E2D
:105468008B6EE3EF2DF00250060AD8A43EEF2AF027
:1054780040EF2AF050EF2AF00150270AD8A447EF4E
:105488002AF049EF2AF050EF2AF089680C0E8A6E4C
:105498000F0E8B6EE3EF2DF0026655EF2AF057EFF3
:1054A8002AF067EF2AF00150210AD8A45EEF2AF00B
:1054B80060EF2AF067EF2AF089688C0E8A6E0B0E6F
:1054C8008B6EE3EF2DF00204D8A46DEF2AF06FEF96
:1054D8002AF07FEF2AF00150220AD8A476EF2AF0AA
:1054E80078EF2AF07FEF2AF089688C0E8A6E070E13
:1054F8008B6EE3EF2DF00250020AD8A486EF2AF053
:1055080088EF2AF099EF2AF001502B0AD8A48FEFE0
:105518002AF091EF2AF099EF2AF0EF0E896E840EA7
:105528008A6E0F0E8B6EE3EF2DF00250030AD8A49B
:10553800A0EF2AF0A2EF2AF0B3EF2AF001502C0ACC
:10554800D8A4A9EF2AF0ABEF2AF0B3EF2AF0BF0EE8
:10555800896E840E8A6E0F0E8B6EE3EF2DF002506B
:10556800040AD8A4BAEF2AF0BCEF2AF0CCEF2AF04C
:1055780001502D0AD8A4C3EF2AF0C5EF2AF0CCEFCA
:105588002AF08968840E8A6E0E0E8B6EE3EF2DF07A
:105598000250050AD8A4D3EF2AF0D5EF2AF0E5EF98
:1055A8002AF001502E0AD8A4DCEF2AF0DEEF2AF008
:1055B800E5EF2AF08968840E8A6E0D0E8B6EE3EF94
:1055C8002DF00250060AD8A4ECEF2AF0EEEF2AF0EC
:1055D800FEEF2AF001502F0AD8A4F5EF2AF0F7EFD2
:1055E8002AF0FEEF2AF08968040E8A6E0F0E8B6E81
:1055F800E3EF2DF0026603EF2BF005EF2BF015EF2C
:105608002BF00150290AD8A40CEF2BF00EEF2BF049
:1056180015EF2BF08968840E8A6E0B0E8B6EE3EF04
:105628002DF00204D8A41BEF2BF01DEF2BF02DEF6B
:105638002BF001502A0AD8A424EF2BF026EF2BF0E8
:105648002DEF2BF08968840E8A6E070E8B6EE3EFC0
:105658002DF00250020AD8A434EF2BF036EF2BF0CD
:1056680047EF2BF00150330AD8A43DEF2BF03FEF62
:105678002BF047EF2BF0EF0E896E880E8A6E0F0E17
:105688008B6EE3EF2DF00250030AD8A44EEF2BF0F7
:1056980050EF2BF061EF2BF00150340AD8A457EFEC
:1056A8002BF059EF2BF061EF2BF0BF0E896E880EAF
:1056B8008A6E0F0E8B6EE3EF2DF00250040AD8A409
:1056C80068EF2BF06AEF2BF07AEF2BF00150350AD8
:1056D800D8A471EF2BF073EF2BF07AEF2BF08968D9
:1056E800880E8A6E0E0E8B6EE3EF2DF00250050ABF
:1056F800D8A481EF2BF083EF2BF093EF2BF0015020
:10570800360AD8A48AEF2BF08CEF2BF093EF2BF00E
:105718008968880E8A6E0D0E8B6EE3EF2DF00250AD
:10572800060AD8A49AEF2BF09CEF2BF0ACEF2BF0E5
:105738000150370AD8A4A3EF2BF0A5EF2BF0ACEF5C
:105748002BF08968080E8A6E0F0E8B6EE3EF2DF032
:105758000266B1EF2BF0B3EF2BF0C3EF2BF0015043
:10576800310AD8A4BAEF2BF0BCEF2BF0C3EF2BF023
:105778008968880E8A6E0B0E8B6EE3EF2DF002049B
:10578800D8A4C9EF2BF0CBEF2BF0DBEF2BF00150B7
:10579800320AD8A4D2EF2BF0D4EF2BF0DBEF2BF0AA
:1057A8008968880E8A6E070E8B6EE3EF2DF0025023
:1057B800020AD8A4E2EF2BF0E4EF2BF0F5EF2BF080
:1057C8000150430AD8A4EBEF2BF0EDEF2BF0F5EFE7
:1057D8002BF0EF0E896E800E8A6E3F0E8B6EE3EF14
:1057E8002DF00250030AD8A4FCEF2BF0FEEF2BF0AB
:1057F8000FEF2CF00150440AD8A405EF2CF007EF66
:105808002CF00FEF2CF0BF0E896E800E8A6E3F0EC3
:105818008B6EE3EF2DF00250040AD8A416EF2CF09B
:1058280018EF2CF028EF2CF00150450AD8A41FEFF0
:105838002CF021EF2CF028EF2CF08968800E8A6E6E
:105848003E0E8B6EE3EF2DF00250050AD8A42FEF21
:105858002CF031EF2CF041EF2CF00150460AD8A47F
:1058680038EF2CF03AEF2CF041EF2CF08968800EDD
:105878008A6E3D0E8B6EE3EF2DF00250060AD8A417
:1058880048EF2CF04AEF2CF05AEF2CF00150470A61
:10589800D8A451EF2CF053EF2CF05AEF2CF0896874
:1058A800000E8A6E3F0E8B6EE3EF2DF002665FEFFF
:1058B8002CF061EF2CF071EF2CF00150410AD8A4C4
:1058C80068EF2CF06AEF2CF071EF2CF08968800EED
:1058D8008A6E3B0E8B6EE3EF2DF00204D8A477EFAF
:1058E8002CF079EF2CF089EF2CF00150420AD8A463
:1058F80080EF2CF082EF2CF089EF2CF08968800E75
:105908008A6E370E8B6EE3EF2DF00250020AD8A490
:1059180090EF2CF092EF2CF0A3EF2CF001504B0AF3
:10592800D8A499EF2CF09BEF2CF0A3EF2CF0EF0EFE
:10593800896E800E8A6E1F0E8B6EE3EF2DF002507B
:10594800030AD8A4AAEF2CF0ACEF2CF0BDEF2CF092
:1059580001504C0AD8A4B3EF2CF0B5EF2CF0BDEFF2
:105968002CF0BF0E896E800E8A6E1F0E8B6EE3EFD1
:105978002DF00250040AD8A4C4EF2CF0C6EF2CF086
:10598800D6EF2CF001504D0AD8A4CDEF2CF0CFEF74
:105998002CF0D6EF2CF08968800E8A6E1E0E8B6E66
:1059A800E3EF2DF00250050AD8A4DDEF2CF0DFEF6D
:1059B8002CF0EFEF2CF001504E0AD8A4E6EF2CF0B3
:1059C800E8EF2CF0EFEF2CF08968800E8A6E1D0E40
:1059D8008B6EE3EF2DF00250060AD8A4F6EF2CF0F8
:1059E800F8EF2CF008EF2DF001504F0AD8A4FFEF84
:1059F8002CF001EF2DF008EF2DF08968000E8A6E6B
:105A08001F0E8B6EE3EF2DF002660DEF2DF00FEFFA
:105A18002DF01FEF2DF00150490AD8A416EF2DF0F4
:105A280018EF2DF01FEF2DF08968800E8A6E1B0E7F
:105A38008B6EE3EF2DF00204D8A425EF2DF027EFAD
:105A48002DF037EF2DF001504A0AD8A42EEF2DF093
:105A580030EF2DF037EF2DF08968800E8A6E170E23
:105A68008B6EE3EF2DF00250020AD8A43EEF2DF022
:105A780040EF2DF051EF2DF00150530AD8A447EF15
:105A88002DF049EF2DF051EF2DF0EF0E896E800EBD
:105A98008A6E2F0E8B6EE3EF2DF00250030AD8A406
:105AA80058EF2DF05AEF2DF06BEF2DF00150540AFE
:105AB800D8A461EF2DF063EF2DF06BEF2DF0BF0E42
:105AC800896E800E8A6E2F0E8B6EE3EF2DF00250DA
:105AD800040AD8A472EF2DF074EF2DF084EF2DF0A6
