:1000000000EE00F010EE41F008EC00F083EF98F005
:0E001000EE6AE550E150FCE1E250FAE1120028
:020000040001F9
:1030DA00ACAC72EF98F074EF98F080EF98F0303063
:1030EA00010B01010C6F01010C31D8A001D0AC8099
:1030FA00D8B001D0AC900BC1ADFF1200720ED31242
:10310A00000EC26E050EC16E800EC06EA00EC06E9D
:10311A00000E2E6EAF0E926E120E936E800E946E8D
:10312A00000EB06E190EAF6E080EB86E900EAB6E32
:10313A00200EAC6E000E8A6E01010A6F610E01014B
:10314A000101046F01010A5104C10BF16DEC98F001
:10315A00A1EF98F0B1EF98F02F50D8B4B7EF98F0EC
:10316A00B9EF98F0AFEF98F0D890283401010A6FC0
:10317A001A0E01010A25E96EEA6A000EEA22010125
:10318A00EECF06F10101EDCF07F128C005F1000EDF
:10319A0001010101086F000E0101096F010101011E
:1031AA000951800A800F0D0ED8B4085DD8A0E0EF4F
:1031BA0098F0E2EF98F0E4EF98F008EF99F0010147
:1031CA00D8900101083501010A6F000E01010A2594
:1031DA00E96EEA6A000EEA22000EEE6E000EED6E4D
:1031EA0001010101084B092B010101010951800A62
:1031FA00800F0D0ED8B4085DD8A006EF99F008EF3D
:10320A0099F0E4EF98F000EF00F008040910D8A450
:10321A0011EF99F013EF99F02DEF99F00A040B10C2
:10322A00D8A41AEF99F01CEF99F02DEF99F00C043D
:10323A000D10D8A423EF99F025EF99F02DEF99F00E
:10324A00EF0E896E700E8A6E0F0E8B6EFFEF9FF077
:10325A0008040910D8A434EF99F036EF99F050EF2A
:10326A0099F00A040B10D8A43DEF99F03FEF99F0BA
:10327A0050EF99F00E040F10D8A446EF99F048EFDA
:10328A0099F050EF99F0BF0E896EE00E8A6E0F0E1C
:10329A008B6EFFEF9FF008040910D8A457EF99F03E
:1032AA0059EF99F072EF99F00A040B10D8A460EF65
:1032BA0099F062EF99F072EF99F010041110D8A406
:1032CA0069EF99F06BEF99F072EF99F08968E00E67
:1032DA008A6E0E0E8B6EFFEF9FF008040910D8A4B9
:1032EA0079EF99F07BEF99F094EF99F00A040B10BB
:1032FA00D8A482EF99F084EF99F094EF99F0120430
:10330A001310D8A48BEF99F08DEF99F094EF99F000
:10331A008968E00E8A6E0D0E8B6EFFEF9FF008042F
:10332A000910D8A49BEF99F09DEF99F0B6EF99F0A8
:10333A000A040B10D8A4A4EF99F0A6EF99F0B6EFFF
:10334A0099F014041510D8A4ADEF99F0AFEF99F0E5
:10335A00B6EF99F08968600E8A6E0F0E8B6EFFEFDA
:10336A009FF008040910D8A4BDEF99F0BFEF99F0B7
:10337A00D8EF99F00A040B10D8A4C6EF99F0C8EF59
:10338A0099F0D8EF99F016041710D8A4CFEF99F056
:10339A00D1EF99F0D8EF99F08968E00E8A6E0B0E9A
:1033AA008B6EFFEF9FF008040910D8A4DFEF99F0A5
:1033BA00E1EF99F0FAEF99F00A040B10D8A4E8EFBC
:1033CA0099F0EAEF99F0FAEF99F018041910D8A4D5
:1033DA00F1EF99F0F3EF99F0FAEF99F08968E00EBE
:1033EA008A6E070E8B6EFFEF9FF008040910D8A4AF
:1033FA0001EF9AF003EF9AF014EF9AF00C040D1013
:10340A00D8A40AEF9AF00CEF9AF014EF9AF0EF0EA4
:10341A00896E600E8A6E0F0E8B6EFFEF9FF00804A6
:10342A000910D8A41BEF9AF01DEF9AF02EEF9AF02C
:10343A000E040F10D8A424EF9AF026EF9AF02EEF7C
:10344A009AF0BF0E896E600E8A6E0F0E8B6EFFEFBA
:10345A009FF008040910D8A435EF9AF037EF9AF0D4
:10346A0047EF9AF010041110D8A43EEF9AF040EFFB
:10347A009AF047EF9AF08968600E8A6E0E0E8B6E8C
:10348A00FFEF9FF008040910D8A44EEF9AF050EF0E
:10349A009AF060EF9AF012041310D8A457EF9AF03A
:1034AA0059EF9AF060EF9AF08968600E8A6E0D0EF5
:1034BA008B6EFFEF9FF008040910D8A467EF9AF00B
:1034CA0069EF9AF079EF9AF014041510D8A470EF06
:1034DA009AF072EF9AF079EF9AF08968200E8A6E64
:1034EA000F0E8B6EFFEF9FF008040910D8A480EF2F
:1034FA009AF082EF9AF092EF9AF016041710D8A475
:10350A0089EF9AF08BEF9AF092EF9AF08968600E41
:10351A008A6E0B0E8B6EFFEF9FF008040910D8A479
:10352A0099EF9AF09BEF9AF0ABEF9AF01804191002
:10353A00D8A4A2EF9AF0A4EF9AF0ABEF9AF08968B8
:10354A00600E8A6E070E8B6EFFEF9FF00A040B1057
:10355A00D8A4B2EF9AF0B4EF9AF0C5EF9AF00C043F
:10356A000D10D8A4BBEF9AF0BDEF9AF0C5EF9AF010
:10357A00EF0E896E500E8A6E0F0E8B6EFFEF9FF064
:10358A000A040B10D8A4CCEF9AF0CEEF9AF0DFEF32
:10359A009AF00E040F10D8A4D5EF9AF0D7EF9AF04C
:1035AA00DFEF9AF0BF0E896E500E8A6E0F0E8B6E89
:1035BA00FFEF9FF00A040B10D8A4E6EF9AF0E8EFA9
:1035CA009AF0F8EF9AF010041110D8A4EFEF9AF0DD
:1035DA00F1EF9AF0F8EF9AF08968500E8A6E0E0EA3
:1035EA008B6EFFEF9FF00A040B10D8A4FFEF9AF03E
:1035FA0001EF9BF011EF9BF012041310D8A408EF0F
:10360A009BF00AEF9BF011EF9BF08968500E8A6ECF
:10361A000D0E8B6EFFEF9FF00A040B10D8A418EF63
:10362A009BF01AEF9BF02AEF9BF014041510D8A414
:10363A0021EF9BF023EF9BF02AEF9BF08968100E95
:10364A008A6E0F0E8B6EFFEF9FF00A040B10D8A440
:10365A0031EF9BF033EF9BF043EF9BF0160417100A
:10366A00D8A43AEF9BF03CEF9BF043EF9BF08968BC
:10367A00500E8A6E0B0E8B6EFFEF9FF00A040B1032
:10368A00D8A44AEF9BF04CEF9BF05CEF9BF0180438
:10369A001910D8A453EF9BF055EF9BF05CEF9BF009
:1036AA008968500E8A6E070E8B6EFFEF9FF0040436
:1036BA000510D8A463EF9BF065EF9BF07FEF9BF0BA
:1036CA0006040710D8A46CEF9BF06EEF9BF07FEF17
:1036DA009BF00C040D10D8A475EF9BF077EF9BF0CC
:1036EA007FEF9BF0EF0E896E8C0E8A6E0F0E8B6E3B
:1036FA00FFEF9FF004040510D8A486EF9BF088EF33
:10370A009BF0A2EF9BF006040710D8A48FEF9BF062
:10371A0091EF9BF0A2EF9BF00E040F10D8A498EF44
:10372A009BF09AEF9BF0A2EF9BF0BF0E896E8C0E76
:10373A008A6E0F0E8B6EFFEF9FF004040510D8A45B
:10374A00A9EF9BF0ABEF9BF0C4EF9BF006040710C8
:10375A00D8A4B2EF9BF0B4EF9BF0C4EF9BF0100437
:10376A001110D8A4BBEF9BF0BDEF9BF0C4EF9BF008
:10377A0089688C0E8A6E0E0E8B6EFFEF9FF0040422
:10378A000510D8A4CBEF9BF0CDEF9BF0E6EF9BF0B2
:10379A0006040710D8A4D4EF9BF0D6EF9BF0E6EF0F
:1037AA009BF012041310D8A4DDEF9BF0DFEF9BF01F
:1037BA00E6EF9BF089688C0E8A6E0D0E8B6EFFEF1A
:1037CA009FF004040510D8A4EDEF9BF0EFEF9BF0F7
:1037DA0009EF9CF006040710D8A4F6EF9BF0F8EF67
:1037EA009BF009EF9CF014041510D8A4FFEF9BF08E
:1037FA0001EF9CF009EF9CF07F0E896E8C0E8A6EA9
:10380A000F0E8B6EFFEF9FF004040510D8A410EF83
:10381A009CF012EF9CF02BEF9CF006040710D8A442
:10382A0019EF9CF01BEF9CF02BEF9CF0160417107D
:10383A00D8A422EF9CF024EF9CF02BEF9CF089682F
:10384A008C0E8A6E0B0E8B6EFFEF9FF00404051030
:10385A00D8A432EF9CF034EF9CF04DEF9CF00604B4
:10386A000710D8A43BEF9CF03DEF9CF04DEF9CF085
:10387A0018041910D8A444EF9CF046EF9CF04DEFC1
:10388A009CF089688C0E8A6E070E8B6EFFEF9FF094
:10389A0004040510D8A454EF9CF056EF9CF067EF8F
:1038AA009CF00C040D10D8A45DEF9CF05FEF9CF027
:1038BA0067EF9CF0EF0E896E840E8A6E0F0E8B6E88
:1038CA00FFEF9FF004040510D8A46EEF9CF070EF90
:1038DA009CF081EF9CF00E040F10D8A477EF9CF0B7
:1038EA0079EF9CF081EF9CF0BF0E896E840E8A6E90
:1038FA000F0E8B6EFFEF9FF004040510D8A488EF1B
:10390A009CF08AEF9CF09AEF9CF010041110D8A456
:10391A0091EF9CF093EF9CF09AEF9CF08968840EEB
:10392A008A6E0E0E8B6EFFEF9FF004040510D8A46A
:10393A00A1EF9CF0A3EF9CF0B3EF9CF012041310DC
:10394A00D8A4AAEF9CF0ACEF9CF0B3EF9CF0896886
:10395A00840E8A6E0D0E8B6EFFEF9FF00404051025
:10396A00D8A4BAEF9CF0BCEF9CF0CCEF9CF0140406
:10397A001510D8A4C3EF9CF0C5EF9CF0CCEF9CF0D7
:10398A008968040E8A6E0F0E8B6EFFEF9FF0040497
:10399A000510D8A4D3EF9CF0D5EF9CF0E5EF9CF08E
:1039AA0016041710D8A4DCEF9CF0DEEF9CF0E5EFCC
:1039BA009CF08968840E8A6E0B0E8B6EFFEF9FF067
:1039CA0004040510D8A4ECEF9CF0EEEF9CF0FEEF97
:1039DA009CF018041910D8A4F5EF9CF0F7EF9CF0AE
:1039EA00FEEF9CF08968840E8A6E070E8B6EFFEFDD
:1039FA009FF006040710D8A405EF9DF007EF9DF08D
:103A0A0018EF9DF00C040D10D8A40EEF9DF010EFE6
:103A1A009DF018EF9DF0EF0E896E880E8A6E0F0EDC
:103A2A008B6EFFEF9FF006040710D8A41FEF9DF0DE
:103A3A0021EF9DF032EF9DF00E040F10D8A428EF6D
:103A4A009DF02AEF9DF032EF9DF0BF0E896E880E31
:103A5A008A6E0F0E8B6EFFEF9FF006040710D8A434
:103A6A0039EF9DF03BEF9DF04BEF9DF010041110E4
:103A7A00D8A442EF9DF044EF9DF04BEF9DF089688A
:103A8A00880E8A6E0E0E8B6EFFEF9FF006040710EB
:103A9A00D8A452EF9DF054EF9DF064EF9DF012040C
:103AAA001310D8A45BEF9DF05DEF9DF064EF9DF0DD
:103ABA008968880E8A6E0D0E8B6EFFEF9FF00604E2
:103ACA000710D8A46BEF9DF06DEF9DF07DEF9DF090
:103ADA0014041510D8A474EF9DF076EF9DF07DEFD5
:103AEA009DF08968080E8A6E0F0E8B6EFFEF9FF0AD
:103AFA0006040710D8A484EF9DF086EF9DF096EF98
:103B0A009DF016041710D8A48DEF9DF08FEF9DF04D
:103B1A0096EF9DF08968880E8A6E0B0E8B6EFFEF0A
:103B2A009FF006040710D8A49DEF9DF09FEF9DF02B
:103B3A00AFEF9DF018041910D8A4A6EF9DF0A8EFD6
:103B4A009DF0AFEF9DF08968880E8A6E070E8B6E26
:103B5A00FFEF9FF000040110D8A4B6EF9DF0B8EF74
:103B6A009DF0D2EF9DF002040310D8A4BFEF9DF0A0
:103B7A00C1EF9DF0D2EF9DF00C040D10D8A4C8EF50
:103B8A009DF0CAEF9DF0D2EF9DF0EF0E896E800E88
:103B9A008A6E3F0E8B6EFFEF9FF000040110D8A4CF
:103BAA00D9EF9DF0DBEF9DF0F5EF9DF002040310D5
:103BBA00D8A4E2EF9DF0E4EF9DF0F5EF9DF00E043E
:103BCA000F10D8A4EBEF9DF0EDEF9DF0F5EF9DF00F
:103BDA00BF0E896E800E8A6E3F0E8B6EFFEF9FF0CE
:103BEA0000040110D8A4FCEF9DF0FEEF9DF017EF42
:103BFA009EF002040310D8A405EF9EF007EF9EF092
:103C0A0017EF9EF010041110D8A40EEF9EF010EFDB
:103C1A009EF017EF9EF08968800E8A6E3E0E8B6EBC
:103C2A00FFEF9FF000040110D8A41EEF9EF020EFD2
:103C3A009EF039EF9EF002040310D8A427EF9EF0FD
:103C4A0029EF9EF039EF9EF012041310D8A430EF3A
:103C5A009EF032EF9EF039EF9EF08968800E8A6EF0
:103C6A003D0E8B6EFFEF9FF000040110D8A440EFC9
:103C7A009EF042EF9EF05BEF9EF002040310D8A480
:103C8A0049EF9EF04BEF9EF05BEF9EF01404151087
:103C9A00D8A452EF9EF054EF9EF05BEF9EF0896835
:103CAA00000E8A6E3F0E8B6EFFEF9FF0000401102C
:103CBA00D8A462EF9EF064EF9EF07DEF9EF00204BE
:103CCA000310D8A46BEF9EF06DEF9EF07DEF9EF08F
:103CDA0016041710D8A474EF9EF076EF9EF07DEFCD
:103CEA009EF08968800E8A6E3B0E8B6EFFEF9FF006
:103CFA0000040110D8A484EF9EF086EF9EF09FEF97
:103D0A009EF002040310D8A48DEF9EF08FEF9EF070
:103D1A009FEF9EF018041910D8A496EF9EF098EF22
:103D2A009EF09FEF9EF08968800E8A6E370E8B6E2A
:103D3A00FFEF9FF000040110D8A4A6EF9EF0A8EFB1
:103D4A009EF0B9EF9EF00C040D10D8A4AFEF9EF0D0
:103D5A00B1EF9EF0B9EF9EF0EF0E896E800E8A6E7B
:103D6A001F0E8B6EFFEF9FF000040110D8A4C0EF66
:103D7A009EF0C2EF9EF0D3EF9EF00E040F10D8A46F
:103D8A00C9EF9EF0CBEF9EF0D3EF9EF0BF0E896E87
:103D9A00800E8A6E1F0E8B6EFFEF9FF000040110DB
:103DAA00D8A4DAEF9EF0DCEF9EF0ECEF9EF0100460
:103DBA001110D8A4E3EF9EF0E5EF9EF0ECEF9EF031
:103DCA008968800E8A6E1E0E8B6EFFEF9FF00004CC
:103DDA000110D8A4F3EF9EF0F5EF9EF005EF9FF0E7
:103DEA0012041310D8A4FCEF9EF0FEEF9EF005EF2C
:103DFA009FF08968800E8A6E1D0E8B6EFFEF9FF012
:103E0A0000040110D8A40CEF9FF00EEF9FF01EEFF4
:103E1A009FF014041510D8A415EF9FF017EF9FF028
:103E2A001EEF9FF08968000E8A6E1F0E8B6EFFEFE1
:103E3A009FF000040110D8A425EF9FF027EF9FF010
:103E4A0037EF9FF016041710D8A42EEF9FF030EF2B
:103E5A009FF037EF9FF08968800E8A6E1B0E8B6E7B
:103E6A00FFEF9FF000040110D8A43EEF9FF040EF4F
:103E7A009FF050EF9FF018041910D8A447EF9FF055
:103E8A0049EF9FF050EF9FF08968800E8A6E170EF7
:103E9A008B6EFFEF9FF002040310D8A457EF9FF038
:103EAA0059EF9FF06AEF9FF00C040D10D8A460EF51
:103EBA009FF062EF9FF06AEF9FF0EF0E896E800E1F
:103ECA008A6E2F0E8B6EFFEF9FF002040310D8A4A8
:103EDA0071EF9FF073EF9FF084EF9FF00E040F10C5
:103EEA00D8A47AEF9FF07CEF9FF084EF9FF0BF0E8B
:103EFA00896E800E8A6E2F0E8B6EFFEF9FF0020482
:103F0A000310D8A48BEF9FF08DEF9FF09DEF9FF0E9
:103F1A0010041110D8A494EF9FF096EF9FF09DEF34
:103F2A009FF08968800E8A6E2E0E8B6EFFEF9FF0CF
:103F3A0002040310D8A4A4EF9FF0A6EF9FF0B6EFF7
:103F4A009FF012041310D8A4ADEF9FF0AFEF9FF0CB
:103F5A00B6EF9FF08968800E8A6E2D0E8B6EFFEF8A
:103F6A009FF002040310D8A4BDEF9FF0BFEF9FF0AB
:103F7A00CFEF9FF014041510D8A4C6EF9FF0C8EF36
:103F8A009FF0CFEF9FF08968000E8A6E2F0E8B6E1E
:103F9A00FFEF9FF002040310D8A4D6EF9FF0D8EFEA
:103FAA009FF0E8EF9FF016041710D8A4DFEF9FF0F8
:103FBA00E1EF9FF0E8EF9FF08968800E8A6E2B0E82
:103FCA008B6EFFEF9FF002040310D8A4EFEF9FF06F
:103FDA00F1EF9FF0FFEF9FF018041910D8A4F8EF43
:103FEA009FF0FAEF9FF0FFEF9FF08968800E8A6ECC
:063FFA00270E8B6E120081
:020000040030CA
:0E000000FF081F1EFF0281FF3FC03FE03F4090
:00000001FF
