:040000000CEF00F011
:10000800FACF05F1FBCF06F1E9CF07F1C1EF10F008
:1000180000EE00F010EE46F014EC00F06FEF12F076
:10002800EE6AE550E150FCE1E250FAE112001D668B
:1000380020EF00F022EF00F081EF01F00101010153
:10004800166729EF00F02BEF00F035EF00F0010103
:10005800196F000E01010101186F010119517FEF9D
:1000680001F0010101011605D8A43DEF00F03FEFB2
:1000780000F0A3EF00F0BD0E01010101176547EF85
:1000880000F049EF00F05DEF00F0D30E010101012F
:10009800176151EF00F053EF00F05DEF00F0010140
:1000A800196F510E01010101186F01011951A1EFDA
:1000B80000F0C20E01010101176565EF00F067EF5E
:1000C80000F07BEF00F0D90E0101010117616FEF1D
:1000D80000F071EF00F07BEF00F00101196F410EA5
:1000E80001010101186F01011951A1EF00F07F0E04
:1000F80001010101176583EF00F085EF00F099EF2A
:1001080000F09B0E0101010117618DEF00F08FEFE8
:1001180000F099EF00F00101196F490E010101018A
:10012800186F01011951A1EF00F00101196F000EBC
:1001380001010101186F010119517FEF01F001015F
:1001480001011651020AD8A4ACEF00F0AEEF00F09E
:1001580012EF01F0DD0E010101011765B6EF00F0A5
:10016800B8EF00F0CCEF00F0FD0E010101011761BE
:10017800C0EF00F0C2EF00F0CCEF00F00101196F02
:10018800310E01010101186F0101195110EF01F041
:10019800680E010101011765D4EF00F0D6EF00F0F9
:1001A800EAEF00F0B00E010101011761DEEF00F087
:1001B800E0EF00F0EAEF00F00101196F210E0101F4
:1001C8000101186F0101195110EF01F0680E0101CA
:1001D80001011765F2EF00F0F4EF00F008EF01F00D
:1001E800950E010101011761FCEF00F0FEEF00F030
:1001F80008EF01F00101196F290E01010101186FC3
:100208000101195110EF01F00101196F000E0101F0
:100218000101186F010119517FEF01F0010101017E
:100228001651030AD8A41BEF01F01DEF01F07FEF70
:1002380001F00E0E01010101176525EF01F027EF0E
:1002480001F03BEF01F06D0E0101010117612FEF85
:1002580001F031EF01F03BEF01F00101196F110ED0
:1002680001010101186F010119517FEF01F0730EAF
:1002780001010101176543EF01F045EF01F059EF66
:1002880001F0B80E0101010117614DEF01F04FEFC8
:1002980001F059EF01F00101196F010E010101018F
:1002A800186F010119517FEF01F0BF0E0101010123
:1002B800176561EF01F063EF01F077EF01F0E40EED
:1002C8000101010117616BEF01F06DEF01F077EFAC
:1002D80001F00101196F090E01010101186F0101F7
:1002E80019517FEF01F00101196F000E01010101A1
:1002F800186F01011951C6EF09F01D04D8A487EF42
:1003080001F089EF01F0DEEF02F00101010116674B
:1003180090EF01F092EF01F09CEF01F00101196FED
:10032800000E01010101186F01011951DCEF02F003
:10033800010101011605D8A4A4EF01F0A6EF01F010
:100348000AEF02F0BA0E010101011765AEEF01F0E4
:10035800B0EF01F0C4EF01F0D60E01010101176101
:10036800B8EF01F0BAEF01F0C4EF01F00101196F25
:10037800520E01010101186F0101195108EF02F035
:10038800A00E010101011765CCEF01F0CEEF01F0DD
:10039800E2EF01F0B70E010101011761D6EF01F09C
:1003A800D8EF01F0E2EF01F00101196F420E0101EF
:1003B8000101186F0101195108EF02F0770E0101D0
:1003C80001011765EAEF01F0ECEF01F000EF02F030
:1003D800970E010101011761F4EF01F0F6EF01F04A
:1003E80000EF02F00101196F4A0E01010101186FB7
:1003F8000101195108EF02F00101196F000E010106
:100408000101186F01011951DCEF02F0010101012E
:100418001651020AD8A413EF02F015EF02F079EF93
:1004280002F0CD0E0101010117651DEF02F01FEF6B
:1004380002F033EF02F0E90E01010101176127EF25
:1004480002F029EF02F033EF02F00101196F320ECA
:1004580001010101186F0101195177EF02F0A40E93
:100468000101010117653BEF02F03DEF02F051EF8A
:1004780002F0EF0E01010101176145EF02F047EFAD
:1004880002F051EF02F00101196F220E0101010182
:10049800186F0101195177EF02F06C0E010101018B
:1004A800176559EF02F05BEF02F06FEF02F08D0E67
:1004B80001010101176163EF02F065EF02F06FEFD0
:1004C80002F00101196F2A0E01010101186F0101E3
:1004D800195177EF02F00101196F000E01010101B6
:1004E800186F01011951DCEF02F0010101011651E9
:1004F800030AD8A482EF02F084EF02F0DCEF02F0E6
:10050800AF0E0101010117618CEF02F08EEF02F0CE
:1005180098EF02F00101196F120E01010101186F25
:1005280001011951DCEF02F0C00E0101010117654C
:10053800A0EF02F0A2EF02F0B6EF02F0D30E010135
:1005480001011761AAEF02F0ACEF02F0B6EF02F07A
:100558000101196F020E01010101186F0101195102
:10056800DCEF02F0DC0E010101011765BEEF02F0BD
:10057800C0EF02F0D4EF02F0E60E010101011761AD
:10058800C8EF02F0CAEF02F0D4EF02F00101196FD0
:100598000A0E01010101186F01011951DCEF02F087
:1005A8000101196F000E01010101186F01011951B4
:1005B800C6EF09F01D50020AD8A4E5EF02F0E7EFF4
:1005C80002F046EF04F0010101011667EEEF02F0B8
:1005D800F0EF02F0FAEF02F00101196F000E0101CD
:1005E8000101186F0101195144EF04F001010101E3
:1005F8001605D8A402EF03F004EF03F068EF03F048
:10060800D90E0101010117650CEF03F00EEF03F09D
:1006180022EF03F0F30E01010101176116EF03F059
:1006280018EF03F022EF03F00101196F530E0101D7
:100638000101186F0101195166EF03F0A60E0101BF
:10064800010117652AEF03F02CEF03F040EF03F0E8
:10065800C90E01010101176134EF03F036EF03F011
:1006680040EF03F00101196F430E01010101186FFA
:100678000101195166EF03F0250E0101010117650B
:1006880048EF03F04AEF03F05EEF03F0A10E01011B
:100698000101176152EF03F054EF03F05EEF03F02E
:1006A8000101196F4B0E01010101186F0101195168
:1006B80066EF03F00101196F000E01010101186FC7
:1006C8000101195144EF04F0010101011651020A18
:1006D800D8A471EF03F073EF03F0D7EF03F0C80E5F
:1006E8000101010117657BEF03F07DEF03F091EF46
:1006F80003F0EC0E01010101176185EF03F087EFAC
:1007080003F091EF03F00101196F330E01010101AC
:10071800186F01011951D5EF03F07B0E010101019A
:10072800176599EF03F09BEF03F0AFEF03F0B80EF6
:10073800010101011761A3EF03F0A5EF03F0AFEF8B
:1007480003F00101196F230E01010101186F010166
:100758001951D5EF03F0450E010101011765B7EFF7
:1007680003F0B9EF03F0CDEF03F06F0E01010101C3
:100778001761C1EF03F0C3EF03F0CDEF03F0010100
:10078800196F2B0E01010101186F01011951D5EFE5
:1007980003F00101196F000E01010101186F010139
:1007A800195144EF04F0010101011651030AD8A4BC
:1007B800E0EF03F0E2EF03F044EF04F03B0E010139
:1007C80001011765EAEF03F0ECEF03F000EF04F026
:1007D800580E010101011761F4EF03F0F6EF03F081
:1007E80000EF04F00101196F130E01010101186FE8
:1007F8000101195144EF04F0890E01010101176547
:1008080008EF04F00AEF04F01EEF04F0C90E01012E
:100818000101176112EF04F014EF04F01EEF04F069
:100828000101196F030E01010101186F010119512E
:1008380044EF04F0D30E01010101176526EF04F01F
:1008480028EF04F03CEF04F0E90E01010101176103
:1008580030EF04F032EF04F03CEF04F00101196FBF
:100868000B0E01010101186F0101195144EF04F049
:100878000101196F000E01010101186F01011951E1
:10088800C6EF09F01D50030AD8A44DEF04F04FEF4E
:1008980004F0A4EF05F001010101166756EF04F01A
:1008A80058EF04F062EF04F00101196F000E010126
:1008B8000101186F01011951A2EF05F001010101B1
:1008C8001605D8A46AEF04F06CEF04F0D0EF04F03A
:1008D800C70E01010101176574EF04F076EF04F00B
:1008E8008AEF04F0E70E0101010117617EEF04F0C1
:1008F80080EF04F08AEF04F00101196F540E010132
:100908000101186F01011951CEEF04F0810E0101A8
:100918000101176592EF04F094EF04F0A8EF04F0DA
:10092800B50E0101010117619CEF04F09EEF04F080
:10093800A8EF04F00101196F440E01010101186FBD
:1009480001011951CEEF04F0590E0101010117659B
:10095800B0EF04F0B2EF04F0C6EF04F0790E010135
:1009680001011761BAEF04F0BCEF04F0C6EF04F020
:100978000101196F4C0E01010101186F0101195194
:10098800CEEF04F00101196F000E01010101186F8B
:1009980001011951A2EF05F0010101011651020AE6
:1009A800D8A4D9EF04F0DBEF04F035EF05F0CA0E58
:1009B800010101011765E3EF04F0E5EF04F0EFEF43
:1009C80004F00101196F340E01010101186F0101D2
:1009D800195133EF05F0810E010101011765F7EF99
:1009E80004F0F9EF04F00DEF05F0A80E0101010184
:1009F800176101EF05F003EF05F00DEF05F00101B8
:100A0800196F240E01010101186F0101195133EF0B
:100A180005F0560E01010101176515EF05F017EFF6
:100A280005F02BEF05F07D0E0101010117611FEFA5
:100A380005F021EF05F02BEF05F00101196F2C0EE1
:100A480001010101186F0101195133EF05F001018E
:100A5800196F000E01010101186F01011951A2EF70
:100A680005F0010101011651030AD8A43EEF05F073
:100A780040EF05F0A2EF05F03B0E010101011765FB
:100A880048EF05F04AEF05F05EEF05F0A10E010111
:100A98000101176152EF05F054EF05F05EEF05F024
:100AA8000101196F140E01010101186F010119519B
:100AB800A2EF05F0900E01010101176566EF05F040
:100AC80068EF05F07CEF05F0CE0E0101010117611A
:100AD80070EF05F072EF05F07CEF05F00101196F7A
:100AE800040E01010101186F01011951A2EF05F06F
:100AF800E20E01010101176584EF05F086EF05F0AC
:100B08009AEF05F0F00E0101010117618EEF05F073
:100B180090EF05F09AEF05F00101196F0C0E010135
:100B28000101186F01011951A2EF05F00101196FB8
:100B3800000E01010101186F01011951C6EF09F0FA
:100B48001D50040AD8A4ABEF05F0ADEF05F002EF95
:100B580007F0010101011667B4EF05F0B6EF05F0E3
:100B6800C0EF05F00101196F000E01010101186FB6
:100B78000101195100EF07F0010101011605D8A480
:100B8800C8EF05F0CAEF05F02EEF06F0070E0101D9
:100B980001011765D2EF05F0D4EF05F0E8EF05F095
:100BA800460E010101011761DCEF05F0DEEF05F0EB
:100BB800E8EF05F00101196F550E01010101186FE9
:100BC800010119512CEF06F05F0E010101011765B3
:100BD800F0EF05F0F2EF05F006EF06F0D30E010195
:100BE80001011761FAEF05F0FCEF05F006EF06F0DA
:100BF8000101196F450E01010101186F0101195119
:100C08002CEF06F0D50E0101010117650EEF06F075
:100C180010EF06F024EF06F0E40E01010101176160
:100C280018EF06F01AEF06F024EF06F00101196F2D
:100C38004D0E01010101186F010119512CEF06F049
:100C48000101196F000E01010101186F010119510D
:100C580000EF07F0010101011651020AD8A437EF8D
:100C680006F039EF06F093EF06F0D80E0101010106
:100C7800176541EF06F043EF06F04DEF06F001016E
:100C8800196F350E01010101186F0101195191EF1A
:100C980006F0990E01010101176555EF06F057EFAF
:100CA80006F06BEF06F0CB0E0101010117615FEF53
:100CB80006F061EF06F06BEF06F00101196F250EE3
:100CC80001010101186F0101195191EF06F0720E2F
:100CD80001010101176573EF06F075EF06F089EF62
:100CE80006F0920E0101010117617DEF06F07FEF1A
:100CF80006F089EF06F00101196F2D0E01010101BF
:100D0800186F0101195191EF06F00101196F000EDA
:100D180001010101186F0101195100EF07F00101EC
:100D280001011651030AD8A49CEF06F09EEF06F0C5
:100D380000EF07F0E20E010101011765A6EF06F0CA
:100D4800A8EF06F0BCEF06F0F10E010101011761F2
:100D5800B0EF06F0B2EF06F0BCEF06F00101196F34
:100D6800150E01010101186F0101195100EF07F07B
:100D7800B30E010101011765C4EF06F0C6EF06F0D6
:100D8800DAEF06F0D30E010101011761CEEF06F08C
:100D9800D0EF06F0DAEF06F00101196F050E010138
:100DA8000101186F0101195100EF07F0590E0101F7
:100DB80001011765E2EF06F0E4EF06F0F8EF06F040
:100DC800A60E010101011761ECEF06F0EEEF06F047
:100DD800F8EF06F00101196F0D0E01010101186FFE
:100DE8000101195100EF07F00101196F000E01010F
:100DF8000101186F01011951C6EF09F01D50050ACC
:100E0800D8A409EF07F00BEF07F060EF08F0010135
:100E18000101166712EF07F014EF07F01EEF07F055
:100E28000101196F000E01010101186F010119512B
:100E38005EEF08F0010101011605D8A426EF07F0BE
:100E480028EF07F08CEF07F0930E010101011765F9
:100E580030EF07F032EF07F046EF07F0AF0E010171
:100E6800010117613AEF07F03CEF07F046EF07F092
:100E78000101196F560E01010101186F0101195185
:100E88008AEF07F0580E0101010117654EEF07F0D0
:100E980050EF07F064EF07F0790E010101011761C7
:100EA80058EF07F05AEF07F064EF07F00101196FE8
:100EB800460E01010101186F010119518AEF07F06F
:100EC800130E0101010117656CEF07F06EEF07F0D3
:100ED80082EF07F0490E01010101176176EF07F073
:100EE80078EF07F082EF07F00101196F4E0E01014C
:100EF8000101186F010119518AEF07F00101196FFB
:100F0800000E01010101186F010119515EEF08F08F
:100F1800010101011651020AD8A495EF07F097EFD5
:100F280007F0F1EF07F0DE0E0101010117659FEFF1
:100F380007F0A1EF07F0ABEF07F00101196F360ECC
:100F480001010101186F01011951EFEF07F0A40E1B
:100F5800010101011765B3EF07F0B5EF07F0C9EF1D
:100F680007F0D00E010101011761BDEF07F0BFEFD7
:100F780007F0C9EF07F00101196F260E0101010101
:100F8800186F01011951EFEF07F0830E01010101FC
:100F98001765D1EF07F0D3EF07F0E7EF07F0A10EE1
:100FA800010101011761DBEF07F0DDEF07F0E7EF63
:100FB80007F00101196F2E0E01010101186F0101DF
:100FC8001951EFEF07F00101196F000E010101013E
:100FD800186F010119515EEF08F001010101165166
:100FE800030AD8A4FAEF07F0FCEF07F05EEF08F069
:100FF800930E01010101176504EF08F006EF08F0F0
:101008001AEF08F0AF0E0101010117610EEF08F0A9
:1010180010EF08F01AEF08F00101196F160E010120
:101028000101186F010119515EEF08F0580E010116
:101038000101176522EF08F024EF08F038EF08F0F7
:10104800790E0101010117612CEF08F02EEF08F06D
:1010580038EF08F00101196F060E01010101186F40
:10106800010119515EEF08F0130E01010101176526
:1010780040EF08F042EF08F056EF08F0490E010182
:10108800010117614AEF08F04CEF08F056EF08F03D
:101098000101196F0E0E01010101186F01011951AB
:1010A8005EEF08F00101196F000E01010101186FD0
:1010B80001011951C6EF09F01D50060AD8A467EFBF
:1010C80008F069EF08F0C6EF09F0010101011667A1
:1010D80070EF08F072EF08F07CEF08F00101196F6B
:1010E800000E01010101186F01011951C6EF09F045
:1010F800010101011605D8A484EF08F086EF08F075
:10110800EAEF08F0560E0101010117658EEF08F0AD
:1011180090EF08F0A4EF08F0A10E0101010117619A
:1011280098EF08F09AEF08F0A4EF08F00101196FA2
:10113800570E01010101186F01011951E8EF08F07C
:10114800AE0E010101011765ACEF08F0AEEF08F033
:10115800C2EF08F0D80E010101011761B6EF08F0DF
:10116800B8EF08F0C2EF08F00101196F470E01014E
:101178000101186F01011951E8EF08F0DF0E0101B4
:1011880001011765CAEF08F0CCEF08F0E0EF08F0AE
:10119800E50E010101011761D4EF08F0D6EF08F060
:1011A800E0EF08F00101196F4F0E01010101186FFE
:1011B80001011951E8EF08F00101196F000E010152
:1011C8000101186F01011951C6EF09F00101010170
:1011D8001651020AD8A4F3EF08F0F5EF08F059EF1A
:1011E80009F0C70E010101011765FDEF08F0FFEFD7
:1011F80008F013EF09F0E60E01010101176107EF8E
:1012080009F009EF09F013EF09F00101196F370E22
:1012180001010101186F0101195157EF09F08A0EF8
:101228000101010117651BEF09F01DEF09F031EF0E
:1012380009F0C10E01010101176125EF09F027EF3F
:1012480009F031EF09F00101196F270E01010101C1
:10125800186F0101195157EF09F06A0E01010101D8
:10126800176539EF09F03BEF09F04FEF09F08D0EE4
:1012780001010101176143EF09F045EF09F04FEF54
:1012880009F00101196F2F0E01010101186F010109
:10129800195157EF09F00101196F000E0101010101
:1012A800186F01011951C6EF09F00101010116512A
:1012B800030AD8A462EF09F064EF09F0C6EF09F059
:1012C800A40E0101010117656CEF09F06EEF09F03A
:1012D80082EF09F0BF0E01010101176176EF09F0F5
:1012E80078EF09F082EF09F00101196F170E01017B
:1012F8000101186F01011951C6EF09F0810E0101B2
:10130800010117658AEF09F08CEF09F0A0EF09F0E9
:10131800A10E01010101176194EF09F096EF09F0A0
:10132800A0EF09F00101196F070E01010101186F03
:1013380001011951C6EF09F06A0E01010101176593
:10134800A8EF09F0AAEF09F0BEEF09F07E0E01013F
:1013580001011761B2EF09F0B4EF09F0BEEF09F02F
:101368000101196F0F0E01010101186F01011951D7
:10137800C6EF09F00101196F000E01010101186F94
:1013880001011951010101011851CBEF09F01200B7
:1013980009040A10D8A4D3EF09F0D5EF09F0EFEF4C
:1013A80009F00B040C10D8A4DCEF09F0DEEF09F00B
:1013B800EFEF09F00D040E10D8A4E5EF09F0E7EF00
:1013C80009F0EFEF09F0EF0E896EE00E8A6E0F0E4E
:1013D8008B6EC0EF10F009040A10D8A4F6EF09F0DC
:1013E800F8EF09F012EF0AF00B040C10D8A4FFEF85
:1013F80009F001EF0AF012EF0AF00F041010D8A458
:1014080008EF0AF00AEF0AF012EF0AF0BF0E896E31
:10141800E00E8A6E0F0E8B6EC0EF10F009040A10F2
:10142800D8A419EF0AF01BEF0AF034EF0AF00B0406
:101438000C10D8A422EF0AF024EF0AF034EF0AF0D7
:1014480011041210D8A42BEF0AF02DEF0AF034EF94
:101458000AF08968E00E8A6E0E0E8B6EC0EF10F0EF
:1014680009040A10D8A43BEF0AF03DEF0AF056EF42
:101478000AF00B040C10D8A444EF0AF046EF0AF067
:1014880056EF0AF013041410D8A44DEF0AF04FEFEA
:101498000AF056EF0AF08968E00E8A6E0D0E8B6E20
:1014A800C0EF10F009040A10D8A45DEF0AF05FEF4E
:1014B8000AF078EF0AF00B040C10D8A466EF0AF0D3
:1014C80068EF0AF078EF0AF015041610D8A46FEF49
:1014D8000AF071EF0AF078EF0AF08968600E8A6EF8
:1014E8000F0E8B6EC0EF10F009040A10D8A47FEF1E
:1014F8000AF081EF0AF09AEF0AF00B040C10D8A456
:1015080088EF0AF08AEF0AF09AEF0AF01704181029
:10151800D8A491EF0AF093EF0AF09AEF0AF08968DD
:10152800E00E8A6E0B0E8B6EC0EF10F009040A10E5
:10153800D8A4A1EF0AF0A3EF0AF0BCEF0AF00B045D
:101548000C10D8A4AAEF0AF0ACEF0AF0BCEF0AF02E
:1015580019041A10D8A4B3EF0AF0B5EF0AF0BCEFDB
:101568000AF08968E00E8A6E070E8B6EC0EF10F0E5
:1015780009040A10D8A4C3EF0AF0C5EF0AF0D6EFA1
:101588000AF00D040E10D8A4CCEF0AF0CEEF0AF042
:10159800D6EF0AF0EF0E896EC00E8A6E0F0E8B6EB4
:1015A800C0EF10F009040A10D8A4DDEF0AF0DFEF4D
:1015B8000AF0F0EF0AF00F041010D8A4E6EF0AF0D2
:1015C800E8EF0AF0F0EF0AF0BF0E896EC00E8A6EDF
:1015D8000F0E8B6EC0EF10F009040A10D8A4F7EFB5
:1015E8000AF0F9EF0AF009EF0BF011041210D8A471
:1015F80000EF0BF002EF0BF009EF0BF08968C00E5B
:101608008A6E0E0E8B6EC0EF10F009040A10D8A473
:1016180010EF0BF012EF0BF022EF0BF01304141085
:10162800D8A419EF0BF01BEF0BF022EF0BF0896831
:10163800C00E8A6E0D0E8B6EC0EF10F009040A10F2
:10164800D8A429EF0BF02BEF0BF03BEF0BF01504B0
:101658001610D8A432EF0BF034EF0BF03BEF0BF081
:101668008968400E8A6E0F0E8B6EC0EF10F0090469
:101678000A10D8A442EF0BF044EF0BF054EF0BF034
:1016880017041810D8A44BEF0BF04DEF0BF054EFE4
:101698000BF08968C00E8A6E0B0E8B6EC0EF10F0CF
:1016A80009040A10D8A45BEF0BF05DEF0BF06DEFA7
:1016B8000BF019041A10D8A464EF0BF066EF0BF0C6
:1016C8006DEF0BF08968C00E8A6E070E8B6EC0EF47
:1016D80010F00B040C10D8A474EF0BF076EF0BF09D
:1016E80087EF0BF00D040E10D8A47DEF0BF07FEF01
:1016F8000BF087EF0BF0EF0E896EA00E8A6E0F0EBF
:101708008B6EC0EF10F00B040C10D8A48EEF0BF00A
:1017180090EF0BF0A1EF0BF00F041010D8A497EF87
:101728000BF099EF0BF0A1EF0BF0BF0E896EA00E36
:101738008A6E0F0E8B6EC0EF10F00B040C10D8A43D
:10174800A8EF0BF0AAEF0BF0BAEF0BF01104121090
:10175800D8A4B1EF0BF0B3EF0BF0BAEF0BF0896838
:10176800A00E8A6E0E0E8B6EC0EF10F00B040C10DC
:10177800D8A4C1EF0BF0C3EF0BF0D3EF0BF01304B9
:101788001410D8A4CAEF0BF0CCEF0BF0D3EF0BF08A
:101798008968A00E8A6E0D0E8B6EC0EF10F00B04D8
:1017A8000C10D8A4DAEF0BF0DCEF0BF0ECEF0BF039
:1017B80015041610D8A4E3EF0BF0E5EF0BF0ECEFEF
:1017C8000BF08968200E8A6E0F0E8B6EC0EF10F03A
:1017D8000B040C10D8A4F3EF0BF0F5EF0BF005EFAA
:1017E8000CF017041810D8A4FCEF0BF0FEEF0BF068
:1017F80005EF0CF08968A00E8A6E0B0E8B6EC0EF99
:1018080010F00B040C10D8A40CEF0CF00EEF0CF039
:101818001EEF0CF019041A10D8A415EF0CF017EFEE
:101828000CF01EEF0CF08968A00E8A6E070E8B6E06
:10183800C0EF10F005040610D8A425EF0CF027EF30
:101848000CF041EF0CF007040810D8A42EEF0CF0B0
:1018580030EF0CF041EF0CF00D040E10D8A437EF68
:101868000CF039EF0CF041EF0CF0EF0E896E8C0E96
:101878008A6E0F0E8B6EC0EF10F005040610D8A408
:1018880048EF0CF04AEF0CF064EF0CF00704081076
:10189800D8A451EF0CF053EF0CF064EF0CF00F04E8
:1018A8001010D8A45AEF0CF05CEF0CF064EF0CF0B9
:1018B800BF0E896E8C0E8A6E0F0E8B6EC0EF10F005
:1018C80005040610D8A46BEF0CF06DEF0CF086EF52
:1018D8000CF007040810D8A474EF0CF076EF0CF0A5
:1018E80086EF0CF011041210D8A47DEF0CF07FEFF6
:1018F8000CF086EF0CF089688C0E8A6E0E0E8B6EDB
:10190800C0EF10F005040610D8A48DEF0CF08FEF8F
:101918000CF0A8EF0CF007040810D8A496EF0CF010
:1019280098EF0CF0A8EF0CF013041410D8A49FEF54
:101938000CF0A1EF0CF0A8EF0CF089688C0E8A6E01
:101948000D0E8B6EC0EF10F005040610D8A4AFEF93
:101958000CF0B1EF0CF0CAEF0CF007040810D8A493
:10196800B8EF0CF0BAEF0CF0CAEF0CF01504161033
:10197800D8A4C1EF0CF0C3EF0CF0CAEF0CF08968E3
:101988000C0E8A6E0F0E8B6EC0EF10F00504061059
:10199800D8A4D1EF0CF0D3EF0CF0ECEF0CF0070467
:1019A8000810D8A4DAEF0CF0DCEF0CF0ECEF0CF038
:1019B80017041810D8A4E3EF0CF0E5EF0CF0ECEFE7
:1019C8000CF089688C0E8A6E0B0E8B6EC0EF10F0CF
:1019D80005040610D8A4F3EF0CF0F5EF0CF00EEFA9
:1019E8000DF007040810D8A4FCEF0CF0FEEF0CF083
:1019F8000EEF0DF019041A10D8A405EF0DF007EF3B
:101A08000DF00EEF0DF089688C0E8A6E070E8B6E46
:101A1800C0EF10F005040610D8A415EF0DF017EF6D
:101A28000DF028EF0DF00D040E10D8A41EEF0DF0E8
:101A380020EF0DF028EF0DF0EF0E896E840E8A6E00
:101A48000F0E8B6EC0EF10F005040610D8A42FEF10
:101A58000DF031EF0DF042EF0DF00F041010D8A487
:101A680038EF0DF03AEF0DF042EF0DF0BF0E896E32
:101A7800840E8A6E0F0E8B6EC0EF10F005040610F0
:101A8800D8A449EF0DF04BEF0DF05BEF0DF011040A
:101A98001210D8A452EF0DF054EF0DF05BEF0DF0DB
:101AA8008968840E8A6E0E0E8B6EC0EF10F00504E6
:101AB8000610D8A462EF0DF064EF0DF074EF0DF08E
:101AC80013041410D8A46BEF0DF06DEF0DF074EF44
:101AD8000DF08968840E8A6E0D0E8B6EC0EF10F0C3
:101AE80005040610D8A47BEF0DF07DEF0DF08DEF07
:101AF8000DF015041610D8A484EF0DF086EF0DF044
:101B08008DEF0DF08968040E8A6E0F0E8B6EC0EF94
:101B180010F005040610D8A494EF0DF096EF0DF020
:101B2800A6EF0DF017041810D8A49DEF0DF09FEF45
:101B38000DF0A6EF0DF08968840E8A6E0B0E8B6E81
:101B4800C0EF10F005040610D8A4ADEF0DF0AFEF0C
:101B58000DF0BFEF0DF019041A10D8A4B6EF0DF070
:101B6800B8EF0DF0BFEF0DF08968840E8A6E070E8E
:101B78008B6EC0EF10F007040810D8A4C6EF0DF064
:101B8800C8EF0DF0D9EF0DF00D040E10D8A4CFEF6B
:101B98000DF0D1EF0DF0D9EF0DF0EF0E896E880E34
:101BA8008A6E0F0E8B6EC0EF10F007040810D8A4D1
:101BB800E0EF0DF0E2EF0DF0F3EF0DF00F04101071
:101BC800D8A4E9EF0DF0EBEF0DF0F3EF0DF0BF0E39
:101BD800896E880E8A6E0F0E8B6EC0EF10F00704A8
:101BE8000810D8A4FAEF0DF0FCEF0DF00CEF0EF092
:101BF80011041210D8A403EF0EF005EF0EF00CEF4D
:101C08000EF08968880E8A6E0E0E8B6EC0EF10F08B
:101C180007040810D8A413EF0EF015EF0EF025EF07
:101C28000EF013041410D8A41CEF0EF01EEF0EF0E3
:101C380025EF0EF08968880E8A6E0D0E8B6EC0EF48
:101C480010F007040810D8A42CEF0EF02EEF0EF0B9
:101C58003EEF0EF015041610D8A435EF0EF037EF4E
:101C68000EF03EEF0EF08968080E8A6E0F0E8B6E2E
:101C7800C0EF10F007040810D8A445EF0EF047EFA6
:101C88000EF057EF0EF017041810D8A44EEF0EF010
:101C980050EF0EF057EF0EF08968880E8A6E0B0E23
:101CA8008B6EC0EF10F007040810D8A45EEF0EF09A
:101CB80060EF0EF070EF0EF019041A10D8A467EF59
:101CC8000EF069EF0EF070EF0EF08968880E8A6EDC
:101CD800070E8B6EC0EF10F001040210D8A477EF46
:101CE8000EF079EF0EF093EF0EF003040410D8A471
:101CF80080EF0EF082EF0EF093EF0EF00D040E1051
:101D0800D8A489EF0EF08BEF0EF093EF0EF0EF0EE4
:101D1800896E800E8A6E3F0E8B6EC0EF10F0010444
:101D28000210D8A49AEF0EF09CEF0EF0B6EF0EF06A
:101D380003040410D8A4A3EF0EF0A5EF0EF0B6EF3D
:101D48000EF00F041010D8A4ACEF0EF0AEEF0EF0AA
:101D5800B6EF0EF0BF0E896E800E8A6E3F0E8B6E48
:101D6800C0EF10F001040210D8A4BDEF0EF0BFEFD1
:101D78000EF0D8EF0EF003040410D8A4C6EF0EF04E
:101D8800C8EF0EF0D8EF0EF011041210D8A4CFEF60
:101D98000EF0D1EF0EF0D8EF0EF08968800E8A6E43
:101DA8003E0E8B6EC0EF10F001040210D8A4DFEFD6
:101DB8000EF0E1EF0EF0FAEF0EF003040410D8A4D1
:101DC800E8EF0EF0EAEF0EF0FAEF0EF0130414103D
:101DD800D8A4F1EF0EF0F3EF0EF0FAEF0EF08968E9
:101DE800800E8A6E3D0E8B6EC0EF10F0010402105B
:101DF800D8A401EF0FF003EF0FF01CEF0FF003046E
:101E08000410D8A40AEF0FF00CEF0FF01CEF0FF03E
:101E180015041610D8A413EF0FF015EF0FF01CEFF0
:101E28000FF08968000E8A6E3F0E8B6EC0EF10F0BF
:101E380001040210D8A423EF0FF025EF0FF03EEFB6
:101E48000FF003040410D8A42CEF0FF02EEF0FF0BE
:101E58003EEF0FF017041810D8A435EF0FF037EF46
:101E68000FF03EEF0FF08968800E8A6E3B0E8B6E86
:101E7800C0EF10F001040210D8A445EF0FF047EFAF
:101E88000FF060EF0FF003040410D8A44EEF0FF02A
:101E980050EF0FF060EF0FF019041A10D8A457EFA5
:101EA8000FF059EF0FF060EF0FF08968800E8A6E1F
:101EB800370E8B6EC0EF10F001040210D8A467EF44
:101EC8000FF069EF0FF07AEF0FF00D040E10D8A4A1
:101ED80070EF0FF072EF0FF07AEF0FF0EF0E896EE0
:101EE800800E8A6E1F0E8B6EC0EF10F00104021078
:101EF800D8A481EF0FF083EF0FF094EF0FF00F04E9
:101F08001010D8A48AEF0FF08CEF0FF094EF0FF0B9
:101F1800BF0E896E800E8A6E1F0E8B6EC0EF10F09A
:101F280001040210D8A49BEF0FF09DEF0FF0ADEF66
:101F38000FF011041210D8A4A4EF0FF0A6EF0FF0C1
:101F4800ADEF0FF08968800E8A6E1E0E8B6EC0EFA3
:101F580010F001040210D8A4B4EF0FF0B6EF0FF0A0
:101F6800C6EF0FF013041410D8A4BDEF0FF0BFEFA5
:101F78000FF0C6EF0FF08968800E8A6E1D0E8B6E0B
:101F8800C0EF10F001040210D8A4CDEF0FF0CFEF8E
:101F98000FF0DFEF0FF015041610D8A4D6EF0FF0EE
:101FA800D8EF0FF0DFEF0FF08968000E8A6E1F0E72
:101FB8008B6EC0EF10F001040210D8A4E6EF0FF00A
:101FC800E8EF0FF0F8EF0FF017041810D8A4EFEFB0
:101FD8000FF0F1EF0FF0F8EF0FF08968800E8A6EBE
:101FE8001B0E8B6EC0EF10F001040210D8A4FFEF97
:101FF8000FF001EF10F011EF10F019041A10D8A427
:1020080008EF10F00AEF10F011EF10F08968800E59
:102018008A6E170E8B6EC0EF10F003040410D8A45C
:1020280018EF10F01AEF10F02BEF10F00D040E104F
:10203800D8A421EF10F023EF10F02BEF10F0EF0EE3
:10204800896E800E8A6E2F0E8B6EC0EF10F003041F
:102058000410D8A432EF10F034EF10F045EF10F070
:102068000F041010D8A43BEF10F03DEF10F045EF2F
:1020780010F0BF0E896E800E8A6E2F0E8B6EC0EF29
:1020880010F003040410D8A44CEF10F04EEF10F039
:102098005EEF10F011041210D8A455EF10F057EFAE
:1020A80010F05EEF10F08968800E8A6E2E0E8B6E2F
:1020B800C0EF10F003040410D8A465EF10F067EF28
:1020C80010F077EF10F013041410D8A46EEF10F08E
:1020D80070EF10F077EF10F08968800E8A6E2D0E81
:1020E8008B6EC0EF10F003040410D8A47EEF10F03C
:1020F80080EF10F090EF10F015041610D8A487EFB9
:1021080010F089EF10F090EF10F08968000E8A6ED9
:102118002F0E8B6EC0EF10F003040410D8A497EFB5
:1021280010F099EF10F0A9EF10F017041810D8A4C8
:10213800A0EF10F0A2EF10F0A9EF10F08968800E60
:102148008A6E2B0E8B6EC0EF10F003040410D8A417
:10215800B0EF10F0B2EF10F0C0EF10F019041A1041
:10216800D8A4B9EF10F0BBEF10F0C0EF10F08968F9
:10217800800E8A6E270E8B6E1200EACF08F1E1CF2F
:1021880009F1E2CF0AF1D9CF0BF1DACF0CF1F3CF95
:102198000DF1F4CF0EF1F6CF0FF1F7CF10F1F8CF24
:1021A80011F1F5CF12F1F29EF2AADDEF10F0DFEF98
:1021B80010F0F5EF11F0F2A4E4EF10F0E6EF10F0F4
:1021C800F5EF11F0F1A4EBEF10F0EDEF10F0F5EFF3
:1021D80011F013EC12F01C66F4EF10F0F6EF10F0AB
:1021E80013EF11F02A501B141B18D8A4FEEF10F09F
:1021F80000EF11F00FEF11F01BC0ADFF04EF11F06D
:102208009EA809EF11F00BEF11F004EF11F0CCECE0
:1022180009F00FEF11F01BC02AF0F4EF11F01C04C5
:10222800D8A419EF11F01BEF11F038EF11F02D5071
:102238001B141B18D8A423EF11F025EF11F034EF6D
:1022480011F01BC0ADFF29EF11F09EA82EEF11F081
:1022580030EF11F029EF11F0CCEC09F034EF11F068
:102268001BC02DF0F4EF11F01C50020AD8A43FEF68
:1022780011F041EF11F05EEF11F030501B141B18F4
:10228800D8A449EF11F04BEF11F05AEF11F01BC031
:10229800ADFF4FEF11F09EA854EF11F056EF11F07B
:1022A8004FEF11F0CCEC09F05AEF11F01BC030F0F1
:1022B800F4EF11F01C50030AD8A465EF11F067EF92
:1022C80011F084EF11F027501B141B18D8A46FEFDE
:1022D80011F071EF11F080EF11F01BC0ADFF75EF39
:1022E80011F09EA87AEF11F07CEF11F075EF11F064
:1022F800CCEC09F080EF11F01BC027F0F4EF11F0DF
:102308001C50040AD8A48BEF11F08DEF11F0AAEF3E
:1023180011F01E501B141B18D8A495EF11F097EF5D
:1023280011F0A6EF11F01BC0ADFF9BEF11F09EA8B6
:10233800A0EF11F0A2EF11F09BEF11F0CCEC09F037
:10234800A6EF11F01BC01EF0F4EF11F01C50050AA7
:10235800D8A4B1EF11F0B3EF11F0D0EF11F0215084
:102368001B141B18D8A4BBEF11F0BDEF11F0CCEF74
:1023780011F01BC0ADFFC1EF11F09EA8C6EF11F020
:10238800C8EF11F0C1EF11F0CCEC09F0CCEF11F06F
:102398001BC021F0F4EF11F01C50060AD8A4D7EFA7
:1023A80011F0D9EF11F0F4EF11F024501B141B18A1
:1023B800D8A4E1EF11F0E3EF11F0F2EF11F01BC038
:1023C800ADFFE7EF11F09EA8ECEF11F0EEEF11F082
:1023D800E7EF11F0CCEC09F0F2EF11F01BC024F09C
:1023E800F294F28E12C1F5FF11C1F8FF10C1F7FF88
:1023F8000FC1F6FF0EC1F4FF0DC1F3FF0CC1DAFFE8
:102408000BC1D9FF0AC1E2FF09C1E1FF08C1EAFF18
:1024180007C1E9FF06C1FBFF05C1FAFF1100C29021
:10242800000EC46E000EC36E36EF12F0200EC26EA0
:1024380047EF12F0240EC26E47EF12F0000EC26E84
:1024480047EF12F0040EC26E47EF12F0080EC26E8C
:1024580047EF12F00C0EC26E47EF12F0100EC26E6C
:1024680047EF12F01D50000AE1E0010AE3E0030A19
:10247800E5E0010AE7E0070AE9E0010AEBE0030A00
:10248800EDE047EF12F0C280C2824BEF12F0C2B209
:1024980050EF12F052EF12F04BEF12F0C4CF13F1DD
:1024A800C3CF14F114C117F113C116F11BEC00F0DE
:1024B80001010101156F15C11BF01DC01CF01D2A7B
:1024C800060E1D646AEF12F06CEF12F06EEF12F058
:1024D800000E1D6E1200720ED312AF0E926E120E07
:1024E800936E800E946E000EC26E050EC16E8D0E38
:1024F800C06E000E1D6E800ED56E200EF26E000EA0
:10250800B06E190EAF6E080EB86E900EAB6E200E40
:10251800AC6E8968800E8A6E0F0E8B6EF28E01018A
:10252800046F000E006E0101045193EF12F00CEFDE
:0225380000F0B1
:020000040030CA
:0E000000FF081F1EFF0281FF3FC03FE03F4090
:00000001FF
