:040000000CEF00F011
:10000800FACF04F1FBCF05F1E9CF06F1E8EF0FF0E5
:1000180000EE00F010EE46F014EC00F096EF11F050
:10002800EE6AE550E150FCE1E250FAE112000266A6
:1000380020EF00F022EF00F081EF01F00101010153
:10004800156729EF00F02BEF00F035EF00F0010104
:10005800186F000E01010101176F010118517FEFA0
:1000680001F0010101011505D8A43DEF00F03FEFB3
:1000780000F0A3EF00F0BD0E01010101166547EF86
:1000880000F049EF00F05DEF00F0D30E010101012F
:10009800166151EF00F053EF00F05DEF00F0010141
:1000A800186F510E01010101176F01011851A1EFDD
:1000B80000F0C20E01010101166565EF00F067EF5F
:1000C80000F07BEF00F0D90E0101010116616FEF1E
:1000D80000F071EF00F07BEF00F00101186F410EA6
:1000E80001010101176F01011851A1EF00F07F0E06
:1000F80001010101166583EF00F085EF00F099EF2B
:1001080000F09B0E0101010116618DEF00F08FEFE9
:1001180000F099EF00F00101186F490E010101018B
:10012800176F01011851A1EF00F00101186F000EBF
:1001380001010101176F010118517FEF01F0010161
:1001480001011551020AD8A4ACEF00F0AEEF00F09F
:1001580012EF01F0DD0E010101011665B6EF00F0A6
:10016800B8EF00F0CCEF00F0FD0E010101011661BF
:10017800C0EF00F0C2EF00F0CCEF00F00101186F03
:10018800310E01010101176F0101185110EF01F043
:10019800680E010101011665D4EF00F0D6EF00F0FA
:1001A800EAEF00F0B00E010101011661DEEF00F088
:1001B800E0EF00F0EAEF00F00101186F210E0101F5
:1001C8000101176F0101185110EF01F0680E0101CC
:1001D80001011665F2EF00F0F4EF00F008EF01F00E
:1001E800950E010101011661FCEF00F0FEEF00F031
:1001F80008EF01F00101186F290E01010101176FC5
:100208000101185110EF01F00101186F000E0101F2
:100218000101176F010118517FEF01F00101010180
:100228001551030AD8A41BEF01F01DEF01F07FEF71
:1002380001F00E0E01010101166525EF01F027EF0F
:1002480001F03BEF01F06D0E0101010116612FEF86
:1002580001F031EF01F03BEF01F00101186F110ED1
:1002680001010101176F010118517FEF01F0730EB1
:1002780001010101166543EF01F045EF01F059EF67
:1002880001F0B80E0101010116614DEF01F04FEFC9
:1002980001F059EF01F00101186F010E0101010190
:1002A800176F010118517FEF01F0BF0E0101010125
:1002B800166561EF01F063EF01F077EF01F0E40EEE
:1002C8000101010116616BEF01F06DEF01F077EFAD
:1002D80001F00101186F090E01010101176F0101F9
:1002E80018517FEF01F00101186F000E01010101A3
:1002F800176F01011851C6EF09F00204D8A487EF5F
:1003080001F089EF01F0DEEF02F00101010115674C
:1003180090EF01F092EF01F09CEF01F00101186FEE
:10032800000E01010101176F01011851DCEF02F005
:10033800010101011505D8A4A4EF01F0A6EF01F011
:100348000AEF02F0BA0E010101011665AEEF01F0E5
:10035800B0EF01F0C4EF01F0D60E01010101166102
:10036800B8EF01F0BAEF01F0C4EF01F00101186F26
:10037800520E01010101176F0101185108EF02F037
:10038800A00E010101011665CCEF01F0CEEF01F0DE
:10039800E2EF01F0B70E010101011661D6EF01F09D
:1003A800D8EF01F0E2EF01F00101186F420E0101F0
:1003B8000101176F0101185108EF02F0770E0101D2
:1003C80001011665EAEF01F0ECEF01F000EF02F031
:1003D800970E010101011661F4EF01F0F6EF01F04B
:1003E80000EF02F00101186F4A0E01010101176FB9
:1003F8000101185108EF02F00101186F000E010108
:100408000101176F01011851DCEF02F00101010130
:100418001551020AD8A413EF02F015EF02F079EF94
:1004280002F0CD0E0101010116651DEF02F01FEF6C
:1004380002F033EF02F0E90E01010101166127EF26
:1004480002F029EF02F033EF02F00101186F320ECB
:1004580001010101176F0101185177EF02F0A40E95
:100468000101010116653BEF02F03DEF02F051EF8B
:1004780002F0EF0E01010101166145EF02F047EFAE
:1004880002F051EF02F00101186F220E0101010183
:10049800176F0101185177EF02F06C0E010101018D
:1004A800166559EF02F05BEF02F06FEF02F08D0E68
:1004B80001010101166163EF02F065EF02F06FEFD1
:1004C80002F00101186F2A0E01010101176F0101E5
:1004D800185177EF02F00101186F000E01010101B8
:1004E800176F01011851DCEF02F0010101011551EC
:1004F800030AD8A482EF02F084EF02F0DCEF02F0E6
:10050800AF0E0101010116618CEF02F08EEF02F0CF
:1005180098EF02F00101186F120E01010101176F27
:1005280001011851DCEF02F0C00E0101010116654E
:10053800A0EF02F0A2EF02F0B6EF02F0D30E010135
:1005480001011661AAEF02F0ACEF02F0B6EF02F07B
:100558000101186F020E01010101176F0101185105
:10056800DCEF02F0DC0E010101011665BEEF02F0BE
:10057800C0EF02F0D4EF02F0E60E010101011661AE
:10058800C8EF02F0CAEF02F0D4EF02F00101186FD1
:100598000A0E01010101176F01011851DCEF02F089
:1005A8000101186F000E01010101176F01011851B7
:1005B800C6EF09F00250020AD8A4E5EF02F0E7EF0F
:1005C80002F046EF04F0010101011567EEEF02F0B9
:1005D800F0EF02F0FAEF02F00101186F000E0101CE
:1005E8000101176F0101185144EF04F001010101E5
:1005F8001505D8A402EF03F004EF03F068EF03F049
:10060800D90E0101010116650CEF03F00EEF03F09E
:1006180022EF03F0F30E01010101166116EF03F05A
:1006280018EF03F022EF03F00101186F530E0101D8
:100638000101176F0101185166EF03F0A60E0101C1
:10064800010116652AEF03F02CEF03F040EF03F0E9
:10065800C90E01010101166134EF03F036EF03F012
:1006680040EF03F00101186F430E01010101176FFC
:100678000101185166EF03F0250E0101010116650D
:1006880048EF03F04AEF03F05EEF03F0A10E01011B
:100698000101166152EF03F054EF03F05EEF03F02F
:1006A8000101186F4B0E01010101176F010118516B
:1006B80066EF03F00101186F000E01010101176FC9
:1006C8000101185144EF04F0010101011551020A1A
:1006D800D8A471EF03F073EF03F0D7EF03F0C80E5F
:1006E8000101010116657BEF03F07DEF03F091EF47
:1006F80003F0EC0E01010101166185EF03F087EFAD
:1007080003F091EF03F00101186F330E01010101AD
:10071800176F01011851D5EF03F07B0E010101019C
:10072800166599EF03F09BEF03F0AFEF03F0B80EF7
:10073800010101011661A3EF03F0A5EF03F0AFEF8C
:1007480003F00101186F230E01010101176F010168
:100758001851D5EF03F0450E010101011665B7EFF9
:1007680003F0B9EF03F0CDEF03F06F0E01010101C3
:100778001661C1EF03F0C3EF03F0CDEF03F0010101
:10078800186F2B0E01010101176F01011851D5EFE8
:1007980003F00101186F000E01010101176F01013B
:1007A800185144EF04F0010101011551030AD8A4BE
:1007B800E0EF03F0E2EF03F044EF04F03B0E010139
:1007C80001011665EAEF03F0ECEF03F000EF04F027
:1007D800580E010101011661F4EF03F0F6EF03F082
:1007E80000EF04F00101186F130E01010101176FEA
:1007F8000101185144EF04F0890E01010101166549
:1008080008EF04F00AEF04F01EEF04F0C90E01012E
:100818000101166112EF04F014EF04F01EEF04F06A
:100828000101186F030E01010101176F0101185131
:1008380044EF04F0D30E01010101166526EF04F020
:1008480028EF04F03CEF04F0E90E01010101166104
:1008580030EF04F032EF04F03CEF04F00101186FC0
:100868000B0E01010101176F0101185144EF04F04B
:100878000101186F000E01010101176F01011851E4
:10088800C6EF09F00250030AD8A44DEF04F04FEF69
:1008980004F0A4EF05F001010101156756EF04F01B
:1008A80058EF04F062EF04F00101186F000E010127
:1008B8000101176F01011851A2EF05F001010101B3
:1008C8001505D8A46AEF04F06CEF04F0D0EF04F03B
:1008D800C70E01010101166574EF04F076EF04F00C
:1008E8008AEF04F0E70E0101010116617EEF04F0C2
:1008F80080EF04F08AEF04F00101186F540E010133
:100908000101176F01011851CEEF04F0810E0101AA
:100918000101166592EF04F094EF04F0A8EF04F0DB
:10092800B50E0101010116619CEF04F09EEF04F081
:10093800A8EF04F00101186F440E01010101176FBF
:1009480001011851CEEF04F0590E0101010116659D
:10095800B0EF04F0B2EF04F0C6EF04F0790E010135
:1009680001011661BAEF04F0BCEF04F0C6EF04F021
:100978000101186F4C0E01010101176F0101185197
:10098800CEEF04F00101186F000E01010101176F8D
:1009980001011851A2EF05F0010101011551020AE8
:1009A800D8A4D9EF04F0DBEF04F035EF05F0CA0E58
:1009B800010101011665E3EF04F0E5EF04F0EFEF44
:1009C80004F00101186F340E01010101176F0101D4
:1009D800185133EF05F0810E010101011665F7EF9B
:1009E80004F0F9EF04F00DEF05F0A80E0101010184
:1009F800166101EF05F003EF05F00DEF05F00101B9
:100A0800186F240E01010101176F0101185133EF0E
:100A180005F0560E01010101166515EF05F017EFF7
:100A280005F02BEF05F07D0E0101010116611FEFA6
:100A380005F021EF05F02BEF05F00101186F2C0EE2
:100A480001010101176F0101185133EF05F0010190
:100A5800186F000E01010101176F01011851A2EF73
:100A680005F0010101011551030AD8A43EEF05F074
:100A780040EF05F0A2EF05F03B0E010101011665FC
:100A880048EF05F04AEF05F05EEF05F0A10E010111
:100A98000101166152EF05F054EF05F05EEF05F025
:100AA8000101186F140E01010101176F010118519E
:100AB800A2EF05F0900E01010101166566EF05F041
:100AC80068EF05F07CEF05F0CE0E0101010116611B
:100AD80070EF05F072EF05F07CEF05F00101186F7B
:100AE800040E01010101176F01011851A2EF05F071
:100AF800E20E01010101166584EF05F086EF05F0AD
:100B08009AEF05F0F00E0101010116618EEF05F074
:100B180090EF05F09AEF05F00101186F0C0E010136
:100B28000101176F01011851A2EF05F00101186FBB
:100B3800000E01010101176F01011851C6EF09F0FC
:100B48000250040AD8A4ABEF05F0ADEF05F002EFB0
:100B580007F0010101011567B4EF05F0B6EF05F0E4
:100B6800C0EF05F00101186F000E01010101176FB8
:100B78000101185100EF07F0010101011505D8A482
:100B8800C8EF05F0CAEF05F02EEF06F0070E0101D9
:100B980001011665D2EF05F0D4EF05F0E8EF05F096
:100BA800460E010101011661DCEF05F0DEEF05F0EC
:100BB800E8EF05F00101186F550E01010101176FEB
:100BC800010118512CEF06F05F0E010101011665B5
:100BD800F0EF05F0F2EF05F006EF06F0D30E010195
:100BE80001011661FAEF05F0FCEF05F006EF06F0DB
:100BF8000101186F450E01010101176F010118511C
:100C08002CEF06F0D50E0101010116650EEF06F076
:100C180010EF06F024EF06F0E40E01010101166161
:100C280018EF06F01AEF06F024EF06F00101186F2E
:100C38004D0E01010101176F010118512CEF06F04B
:100C48000101186F000E01010101176F0101185110
:100C580000EF07F0010101011551020AD8A437EF8E
:100C680006F039EF06F093EF06F0D80E0101010106
:100C7800166541EF06F043EF06F04DEF06F001016F
:100C8800186F350E01010101176F0101185191EF1D
:100C980006F0990E01010101166555EF06F057EFB0
:100CA80006F06BEF06F0CB0E0101010116615FEF54
:100CB80006F061EF06F06BEF06F00101186F250EE4
:100CC80001010101176F0101185191EF06F0720E31
:100CD80001010101166573EF06F075EF06F089EF63
:100CE80006F0920E0101010116617DEF06F07FEF1B
:100CF80006F089EF06F00101186F2D0E01010101C0
:100D0800176F0101185191EF06F00101186F000EDD
:100D180001010101176F0101185100EF07F00101EE
:100D280001011551030AD8A49CEF06F09EEF06F0C6
:100D380000EF07F0E20E010101011665A6EF06F0CB
:100D4800A8EF06F0BCEF06F0F10E010101011661F3
:100D5800B0EF06F0B2EF06F0BCEF06F00101186F35
:100D6800150E01010101176F0101185100EF07F07D
:100D7800B30E010101011665C4EF06F0C6EF06F0D7
:100D8800DAEF06F0D30E010101011661CEEF06F08D
:100D9800D0EF06F0DAEF06F00101186F050E010139
:100DA8000101176F0101185100EF07F0590E0101F9
:100DB80001011665E2EF06F0E4EF06F0F8EF06F041
:100DC800A60E010101011661ECEF06F0EEEF06F048
:100DD800F8EF06F00101186F0D0E01010101176F00
:100DE8000101185100EF07F00101186F000E010111
:100DF8000101176F01011851C6EF09F00250050AE9
:100E0800D8A409EF07F00BEF07F060EF08F0010135
:100E18000101156712EF07F014EF07F01EEF07F056
:100E28000101186F000E01010101176F010118512E
:100E38005EEF08F0010101011505D8A426EF07F0BF
:100E480028EF07F08CEF07F0930E010101011665FA
:100E580030EF07F032EF07F046EF07F0AF0E010171
:100E6800010116613AEF07F03CEF07F046EF07F093
:100E78000101186F560E01010101176F0101185188
:100E88008AEF07F0580E0101010116654EEF07F0D1
:100E980050EF07F064EF07F0790E010101011661C8
:100EA80058EF07F05AEF07F064EF07F00101186FE9
:100EB800460E01010101176F010118518AEF07F071
:100EC800130E0101010116656CEF07F06EEF07F0D4
:100ED80082EF07F0490E01010101166176EF07F074
:100EE80078EF07F082EF07F00101186F4E0E01014D
:100EF8000101176F010118518AEF07F00101186FFE
:100F0800000E01010101176F010118515EEF08F091
:100F1800010101011551020AD8A495EF07F097EFD6
:100F280007F0F1EF07F0DE0E0101010116659FEFF2
:100F380007F0A1EF07F0ABEF07F00101186F360ECD
:100F480001010101176F01011851EFEF07F0A40E1D
:100F5800010101011665B3EF07F0B5EF07F0C9EF1E
:100F680007F0D00E010101011661BDEF07F0BFEFD8
:100F780007F0C9EF07F00101186F260E0101010102
:100F8800176F01011851EFEF07F0830E01010101FE
:100F98001665D1EF07F0D3EF07F0E7EF07F0A10EE2
:100FA800010101011661DBEF07F0DDEF07F0E7EF64
:100FB80007F00101186F2E0E01010101176F0101E1
:100FC8001851EFEF07F00101186F000E0101010140
:100FD800176F010118515EEF08F001010101155169
:100FE800030AD8A4FAEF07F0FCEF07F05EEF08F069
:100FF800930E01010101166504EF08F006EF08F0F1
:101008001AEF08F0AF0E0101010116610EEF08F0AA
:1010180010EF08F01AEF08F00101186F160E010121
:101028000101176F010118515EEF08F0580E010118
:101038000101166522EF08F024EF08F038EF08F0F8
:10104800790E0101010116612CEF08F02EEF08F06E
:1010580038EF08F00101186F060E01010101176F42
:10106800010118515EEF08F0130E01010101166528
:1010780040EF08F042EF08F056EF08F0490E010182
:10108800010116614AEF08F04CEF08F056EF08F03E
:101098000101186F0E0E01010101176F01011851AE
:1010A8005EEF08F00101186F000E01010101176FD2
:1010B80001011851C6EF09F00250060AD8A467EFDB
:1010C80008F069EF08F0C6EF09F0010101011567A2
:1010D80070EF08F072EF08F07CEF08F00101186F6C
:1010E800000E01010101176F01011851C6EF09F047
:1010F800010101011505D8A484EF08F086EF08F076
:10110800EAEF08F0560E0101010116658EEF08F0AE
:1011180090EF08F0A4EF08F0A10E0101010116619B
:1011280098EF08F09AEF08F0A4EF08F00101186FA3
:10113800570E01010101176F01011851E8EF08F07E
:10114800AE0E010101011665ACEF08F0AEEF08F034
:10115800C2EF08F0D80E010101011661B6EF08F0E0
:10116800B8EF08F0C2EF08F00101186F470E01014F
:101178000101176F01011851E8EF08F0DF0E0101B6
:1011880001011665CAEF08F0CCEF08F0E0EF08F0AF
:10119800E50E010101011661D4EF08F0D6EF08F061
:1011A800E0EF08F00101186F4F0E01010101176F00
:1011B80001011851E8EF08F00101186F000E010154
:1011C8000101176F01011851C6EF09F00101010172
:1011D8001551020AD8A4F3EF08F0F5EF08F059EF1B
:1011E80009F0C70E010101011665FDEF08F0FFEFD8
:1011F80008F013EF09F0E60E01010101166107EF8F
:1012080009F009EF09F013EF09F00101186F370E23
:1012180001010101176F0101185157EF09F08A0EFA
:101228000101010116651BEF09F01DEF09F031EF0F
:1012380009F0C10E01010101166125EF09F027EF40
:1012480009F031EF09F00101186F270E01010101C2
:10125800176F0101185157EF09F06A0E01010101DA
:10126800166539EF09F03BEF09F04FEF09F08D0EE5
:1012780001010101166143EF09F045EF09F04FEF55
:1012880009F00101186F2F0E01010101176F01010B
:10129800185157EF09F00101186F000E0101010103
:1012A800176F01011851C6EF09F00101010115512D
:1012B800030AD8A462EF09F064EF09F0C6EF09F059
:1012C800A40E0101010116656CEF09F06EEF09F03B
:1012D80082EF09F0BF0E01010101166176EF09F0F6
:1012E80078EF09F082EF09F00101186F170E01017C
:1012F8000101176F01011851C6EF09F0810E0101B4
:10130800010116658AEF09F08CEF09F0A0EF09F0EA
:10131800A10E01010101166194EF09F096EF09F0A1
:10132800A0EF09F00101186F070E01010101176F05
:1013380001011851C6EF09F06A0E01010101166595
:10134800A8EF09F0AAEF09F0BEEF09F07E0E01013F
:1013580001011661B2EF09F0B4EF09F0BEEF09F030
:101368000101186F0F0E01010101176F01011851DA
:10137800C6EF09F00101186F000E01010101176F96
:1013880001011851010101011751CBEF09F01200B9
:101398000150020AD8A4D3EF09F0D5EF09F0E6EF1F
:1013A80009F00050030AD8A4DCEF09F0DEEF09F0D9
:1013B800E6EF09F0EF0E896EE00E8A6E0F0E8B6E67
:1013C800E7EF0FF00150030AD8A4EDEF09F0EFEFB3
:1013D80009F000EF0AF00050040AD8A4F6EF09F06B
:1013E800F8EF09F000EF0AF0BF0E896EE00E8A6E82
:1013F8000F0E8B6EE7EF0FF00150040AD8A407EF29
:101408000AF009EF0AF019EF0AF00050050AD8A40B
:1014180010EF0AF012EF0AF019EF0AF08968E00EEF
:101428008A6E0E0E8B6EE7EF0FF00150050AD8A4F6
:1014380020EF0AF022EF0AF032EF0AF00050060A15
:10144800D8A429EF0AF02BEF0AF032EF0AF08968E6
:10145800E00E8A6E0D0E8B6EE7EF0FF00150060A54
:10146800D8A439EF0AF03BEF0AF04BEF0AF000502E
:10147800070AD8A442EF0AF044EF0AF04BEF0AF04B
:101488008968600E8A6E0F0E8B6EE7EF0FF00166AB
:1014980050EF0AF052EF0AF061EF0AF00004D8A406
:1014A80058EF0AF05AEF0AF061EF0AF08968E00E87
:1014B8008A6E0B0E8B6EE7EF0FF00104D8A467EF6E
:1014C8000AF069EF0AF079EF0AF00050020AD8A48E
:1014D80070EF0AF072EF0AF079EF0AF08968E00E0F
:1014E8008A6E070E8B6EE7EF0FF00150020AD8A440
:1014F80080EF0AF082EF0AF093EF0AF000500B0A2F
:10150800D8A489EF0AF08BEF0AF093EF0AF0EF0EF8
:10151800896EC00E8A6E0F0E8B6EE7EF0FF00150CA
:10152800030AD8A49AEF0AF09CEF0AF0ADEF0AF08C
:1015380000500C0AD8A4A3EF0AF0A5EF0AF0ADEF0B
:101548000AF0BF0E896EC00E8A6E0F0E8B6EE7EF23
:101558000FF00150040AD8A4B4EF0AF0B6EF0AF06D
:10156800C6EF0AF000500D0AD8A4BDEF0AF0BFEF8D
:101578000AF0C6EF0AF08968C00E8A6E0E0E8B6EEE
:10158800E7EF0FF00150050AD8A4CDEF0AF0CFEF2E
:101598000AF0DFEF0AF00050160AD8A4D6EF0AF0D6
:1015A800D8EF0AF0DFEF0AF08968C00E8A6E0D0ED8
:1015B8008B6EE7EF0FF00150060AD8A4E6EF0AF0A9
:1015C800E8EF0AF0F8EF0AF000500F0AD8A4EFEF9E
:1015D8000AF0F1EF0AF0F8EF0AF08968400E8A6E17
:1015E8000F0E8B6EE7EF0FF00166FDEF0AF0FFEFCD
:1015F8000AF00FEF0BF00050090AD8A406EF0BF021
:1016080008EF0BF00FEF0BF08968C00E8A6E0B0E17
:101618008B6EE7EF0FF00104D8A415EF0BF017EF6E
:101628000BF027EF0BF000500A0AD8A41EEF0BF0BE
:1016380020EF0BF027EF0BF08968C00E8A6E070EBB
:101648008B6EE7EF0FF00150020AD8A42EEF0BF0D3
:1016580030EF0BF041EF0BF00050130AD8A437EF2E
:101668000BF039EF0BF041EF0BF0EF0E896EA00E87
:101678008A6E0F0E8B6EE7EF0FF00150030AD8A4A5
:1016880048EF0BF04AEF0BF05BEF0BF00050140A39
:10169800D8A451EF0BF053EF0BF05BEF0BF0BF0E3C
:1016A800896EA00E8A6E0F0E8B6EE7EF0FF0015059
:1016B800040AD8A462EF0BF064EF0BF074EF0BF0A0
:1016C8000050150AD8A46BEF0BF06DEF0BF074EF18
:1016D8000BF08968A00E8A6E0E0E8B6EE7EF0FF086
:1016E8000150050AD8A47BEF0BF07DEF0BF08DEFCE
:1016F8000BF000500E0AD8A484EF0BF086EF0BF025
:101708008DEF0BF08968A00E8A6E0D0E8B6EE7EFD9
:101718000FF00150060AD8A494EF0BF096EF0BF0E7
:10172800A6EF0BF00050170AD8A49DEF0BF09FEF1F
:101738000BF0A6EF0BF08968200E8A6E0F0E8B6EE9
:10174800E7EF0FF00166ABEF0BF0ADEF0BF0BDEF7D
:101758000BF00050110AD8A4B4EF0BF0B6EF0BF061
:10176800BDEF0BF08968A00E8A6E0B0E8B6EE7EF4B
:101778000FF00104D8A4C3EF0BF0C5EF0BF0D5EFC1
:101788000BF00050120AD8A4CCEF0BF0CEEF0BF000
:10179800D5EF0BF08968A00E8A6E070E8B6EE7EF07
:1017A8000FF00150020AD8A4DCEF0BF0DEEF0BF0CB
:1017B800EFEF0BF00050230AD8A4E5EF0BF0E7EFAA
:1017C8000BF0EFEF0BF0EF0E896E8C0E8A6E0F0E9A
:1017D8008B6EE7EF0FF00150030AD8A4F6EF0BF079
:1017E800F8EF0BF009EF0CF00050240AD8A4FFEF33
:1017F8000BF001EF0CF009EF0CF0BF0E896E8C0EA8
:101808008A6E0F0E8B6EE7EF0FF00150040AD8A412
:1018180010EF0CF012EF0CF022EF0CF00050250A3C
:10182800D8A419EF0CF01BEF0CF022EF0CF089682C
:101838008C0E8A6E0E0E8B6EE7EF0FF00150050AC4
:10184800D8A429EF0CF02BEF0CF03BEF0CF0005074
:10185800260AD8A432EF0CF034EF0CF03BEF0CF072
:1018680089688C0E8A6E0D0E8B6EE7EF0FF00150B3
:10187800060AD8A442EF0CF044EF0CF054EF0CF039
:101888000050270AD8A44BEF0CF04DEF0CF054EFA2
:101898000CF089680C0E8A6E0F0E8B6EE7EF0FF056
:1018A800016659EF0CF05BEF0CF06BEF0CF0005099
:1018B800210AD8A462EF0CF064EF0CF06BEF0CF087
:1018C80089688C0E8A6E0B0E8B6EE7EF0FF00104A1
:1018D800D8A471EF0CF073EF0CF083EF0CF000500C
:1018E800220AD8A47AEF0CF07CEF0CF083EF0CF00E
:1018F80089688C0E8A6E070E8B6EE7EF0FF0015029
:10190800020AD8A48AEF0CF08CEF0CF09DEF0CF0D3
:1019180000502B0AD8A493EF0CF095EF0CF09DEF34
:101928000CF0EF0E896E840E8A6E0F0E8B6EE7EF49
:101938000FF00150030AD8A4A4EF0CF0A6EF0CF0A6
:10194800B7EF0CF000502C0AD8A4ADEF0CF0AFEFB5
:101958000CF0B7EF0CF0BF0E896E840E8A6E0F0E76
:101968008B6EE7EF0FF00150040AD8A4BEEF0CF01D
:10197800C0EF0CF0D0EF0CF000502D0AD8A4C7EF40
:101988000CF0C9EF0CF0D0EF0CF08968840E8A6E69
:101998000E0E8B6EE7EF0FF00150050AD8A4D7EFB3
:1019A8000CF0D9EF0CF0E9EF0CF000502E0AD8A497
:1019B800E0EF0CF0E2EF0CF0E9EF0CF08968840E30
:1019C8008A6E0D0E8B6EE7EF0FF00150060AD8A451
:1019D800F0EF0CF0F2EF0CF002EF0DF000502F0AD0
:1019E800D8A4F9EF0CF0FBEF0CF002EF0DF08968CA
:1019F800040E8A6E0F0E8B6EE7EF0FF0016607EF8D
:101A08000DF009EF0DF019EF0DF00050290AD8A4D8
:101A180010EF0DF012EF0DF019EF0DF08968840E3C
:101A28008A6E0B0E8B6EE7EF0FF00104D8A41FEF40
:101A38000DF021EF0DF031EF0DF000502A0AD8A477
:101A480028EF0DF02AEF0DF031EF0DF08968840EC4
:101A58008A6E070E8B6EE7EF0FF00150020AD8A4CA
:101A680038EF0DF03AEF0DF04BEF0DF00050330A60
:101A7800D8A441EF0DF043EF0DF04BEF0DF0EF0E52
:101A8800896E880E8A6E0F0E8B6EE7EF0FF001508D
:101A9800030AD8A452EF0DF054EF0DF065EF0DF0E6
:101AA8000050340AD8A45BEF0DF05DEF0DF065EF40
:101AB8000DF0BF0E896E880E8A6E0F0E8B6EE7EFE3
:101AC8000FF00150040AD8A46CEF0DF06EEF0DF082
:101AD8007EEF0DF00050350AD8A475EF0DF077EFC2
:101AE8000DF07EEF0DF08968880E8A6E0E0E8B6EF3
:101AF800E7EF0FF00150050AD8A485EF0DF087EF46
:101B08000DF097EF0DF00050360AD8A48EEF0DF0C7
:101B180090EF0DF097EF0DF08968880E8A6E0D0E24
:101B28008B6EE7EF0FF00150060AD8A49EEF0DF078
:101B3800A0EF0DF0B0EF0DF00050370AD8A4A7EFD2
:101B48000DF0A9EF0DF0B0EF0DF08968080E8A6E60
:101B58000F0E8B6EE7EF0FF00166B5EF0DF0B7EFE4
:101B68000DF0C7EF0DF00050310AD8A4BEEF0DF00C
:101B7800C0EF0DF0C7EF0DF08968880E8A6E0B0E66
:101B88008B6EE7EF0FF00104D8A4CDEF0DF0CFEF87
:101B98000DF0DFEF0DF00050320AD8A4D6EF0DF0AB
:101BA800D8EF0DF0DFEF0DF08968880E8A6E070E0A
:101BB8008B6EE7EF0FF00150020AD8A4E6EF0DF0A4
:101BC800E8EF0DF0F9EF0DF00050430AD8A4EFEF5D
:101BD8000DF0F1EF0DF0F9EF0DF0EF0E896E800EBC
:101BE8008A6E3F0E8B6EE7EF0FF00150030AD8A400
:101BF80000EF0EF002EF0EF013EF0EF00050440A63
:101C0800D8A409EF0EF00BEF0EF013EF0EF0BF0E95
:101C1800896E800E8A6E3F0E8B6EE7EF0FF00150D3
:101C2800040AD8A41AEF0EF01CEF0EF02CEF0EF0F9
:101C38000050450AD8A423EF0EF025EF0EF02CEF44
:101C48000EF08968800E8A6E3E0E8B6EE7EF0FF0FD
:101C58000150050AD8A433EF0EF035EF0EF045EF2A
:101C68000EF00050460AD8A43CEF0EF03EEF0EF0FE
:101C780045EF0EF08968800E8A6E3D0E8B6EE7EF99
:101C88000FF00150060AD8A44CEF0EF04EEF0EF0FC
:101C98005EEF0EF00050470AD8A455EF0EF057EF4C
:101CA8000EF05EEF0EF08968000E8A6E3F0E8B6EA6
:101CB800E7EF0FF0016663EF0EF065EF0EF075EFDA
:101CC8000EF00050410AD8A46CEF0EF06EEF0EF043
:101CD80075EF0EF08968800E8A6E3B0E8B6EE7EF0B
:101CE8000FF00104D8A47BEF0EF07DEF0EF08DEF1E
:101CF8000EF00050420AD8A484EF0EF086EF0EF0E2
:101D08008DEF0EF08968800E8A6E370E8B6EE7EFC6
:101D18000FF00150020AD8A494EF0EF096EF0EF0DF
:101D2800A7EF0EF000504B0AD8A49DEF0EF09FEFDE
:101D38000EF0A7EF0EF0EF0E896E800E8A6E1F0E62
:101D48008B6EE7EF0FF00150030AD8A4AEEF0EF048
:101D5800B0EF0EF0C1EF0EF000504C0AD8A4B7EF68
:101D68000EF0B9EF0EF0C1EF0EF0BF0E896E800EC7
:101D78008A6E1F0E8B6EE7EF0FF00150040AD8A48D
:101D8800C8EF0EF0CAEF0EF0DAEF0EF000504D0A71
:101D9800D8A4D1EF0EF0D3EF0EF0DAEF0EF0896889
:101DA800800E8A6E1E0E8B6EE7EF0FF00150050A4B
:101DB800D8A4E1EF0EF0E3EF0EF0F3EF0EF00050D1
:101DC8004E0AD8A4EAEF0EF0ECEF0EF0F3EF0EF0A7
:101DD8008968800E8A6E1D0E8B6EE7EF0FF001503A
:101DE800060AD8A4FAEF0EF0FCEF0EF00CEF0FF095
:101DF80000504F0AD8A403EF0FF005EF0FF00CEFD7
:101E08000FF08968000E8A6E1F0E8B6EE7EF0FF0D9
:101E1800016611EF0FF013EF0FF023EF0FF00050F2
:101E2800490AD8A41AEF0FF01CEF0FF023EF0FF0B8
:101E38008968800E8A6E1B0E8B6EE7EF0FF0010427
:101E4800D8A429EF0FF02BEF0FF03BEF0FF0005065
:101E58004A0AD8A432EF0FF034EF0FF03BEF0FF03F
:101E68008968800E8A6E170E8B6EE7EF0FF00150AF
:101E7800020AD8A442EF0FF044EF0FF055EF0FF02D
:101E88000050530AD8A44BEF0FF04DEF0FF055EF69
:101E98000FF0EF0E896E800E8A6E2F0E8B6EE7EFB5
:101EA8000FF00150030AD8A45CEF0FF05EEF0FF0BB
:101EB8006FEF0FF00050540AD8A465EF0FF067EFEA
:101EC8000FF06FEF0FF0BF0E896E800E8A6E2F0E27
:101ED8008B6EE7EF0FF00150040AD8A476EF0FF0ED
:101EE80078EF0FF088EF0FF00050550AD8A47FEF75
:101EF8000FF081EF0FF088EF0FF08968800E8A6E7F
:101F08002E0E8B6EE7EF0FF00150050AD8A48FEF65
:101F18000FF091EF0FF0A1EF0FF00050560AD8A480
:101F280098EF0FF09AEF0FF0A1EF0FF08968800E8D
:101F38008A6E2D0E8B6EE7EF0FF00150060AD8A4BB
:101F4800A8EF0FF0AAEF0FF0BAEF0FF00050570A02
:101F5800D8A4B1EF0FF0B3EF0FF0BAEF0FF0896824
:101F6800000E8A6E2F0E8B6EE7EF0FF00166BFEF43
:101F78000FF0C1EF0FF0D1EF0FF00050510AD8A4C5
:101F8800C8EF0FF0CAEF0FF0D1EF0FF08968800E9D
:101F98008A6E2B0E8B6EE7EF0FF00104D8A4D7EFF3
:101FA8000FF0D9EF0FF0E7EF0FF00050520AD8A466
:101FB800E0EF0FF0E2EF0FF0E7EF0FF08968800E27
:101FC8008A6E270E8B6E1200EACF07F1E1CF08F177
:101FD800E2CF09F1D9CF0AF1DACF0BF1F3CF0CF147
:101FE800F4CF0DF1F6CF0EF1F7CF0FF1F8CF10F1D6
:101FF800F5CF11F1F29EF2AA04EF10F006EF10F0FF
:102008001CEF11F0F2A40BEF10F00DEF10F01CEF25
:1020180011F0F1A412EF10F014EF10F01CEF11F012
:102028003AEC11F001661BEF10F01DEF10F03AEFDB
:1020380010F00F5000140018D8A425EF10F027EF67
:1020480010F036EF10F000C0ADFF2BEF10F09EA897
:1020580030EF10F032EF10F02BEF10F0CCEC09F06D
:1020680036EF10F000C00FF01BEF11F00104D8A4F8
:1020780040EF10F042EF10F05FEF10F01250001434
:102088000018D8A44AEF10F04CEF10F05BEF10F0F6
:1020980000C0ADFF50EF10F09EA855EF10F057EFBD
:1020A80010F050EF10F0CCEC09F05BEF10F000C02E
:1020B80012F01BEF11F00150020AD8A466EF10F0DD
:1020C80068EF10F085EF10F0155000140018D8A430
:1020D80070EF10F072EF10F081EF10F000C0ADFF5C
:1020E80076EF10F09EA87BEF10F07DEF10F076EF02
:1020F80010F0CCEC09F081EF10F000C015F01BEFE8
:1021080011F00150030AD8A48CEF10F08EEF10F0F4
:10211800ABEF10F0065000140018D8A496EF10F09A
:1021280098EF10F0A7EF10F000C0ADFF9CEF10F093
:102138009EA8A1EF10F0A3EF10F09CEF10F0CCECEC
:1021480009F0A7EF10F000C006F01BEF11F00150E6
:10215800040AD8A4B2EF10F0B4EF10F0D1EF10F0E9
:10216800035000140018D8A4BCEF10F0BEEF10F014
:10217800CDEF10F000C0ADFFC2EF10F09EA8C7EF82
:1021880010F0C9EF10F0C2EF10F0CCEC09F0CDEF71
:1021980010F000C003F01BEF11F00150050AD8A49D
:1021A800D8EF10F0DAEF10F0F7EF10F00C50001441
:1021B8000018D8A4E2EF10F0E4EF10F0F3EF10F0FD
:1021C80000C0ADFFE8EF10F09EA8EDEF10F0EFEFC4
:1021D80010F0E8EF10F0CCEC09F0F3EF10F000C0CD
:1021E8000CF01BEF11F00150060AD8A4FEEF10F016
:1021F80000EF11F01BEF11F0095000140018D8A4DB
:1022080008EF11F00AEF11F019EF11F000C0ADFF5F
:102218000EEF11F09EA813EF11F015EF11F00EEF6D
:1022280011F0CCEC09F019EF11F000C009F0F294AC
:10223800F28E11C1F5FF10C1F8FF0FC1F7FF0EC1F3
:10224800F6FF0DC1F4FF0CC1F3FF0BC1DAFF0AC1A1
:10225800D9FF09C1E2FF08C1E1FF07C1EAFF06C1D2
:10226800E9FF05C1FBFF04C1FAFF1100C290000E8F
:10227800C46E000EC36E5DEF11F0200EC26E6EEFDD
:1022880011F0240EC26E6EEF11F0000EC26E6EEFEA
:1022980011F0040EC26E6EEF11F0080EC26E6EEFF2
:1022A80011F00C0EC26E6EEF11F0100EC26E6EEFD2
:1022B80011F00250000AE1E0010AE3E0030AE5E058
:1022C800010AE7E0070AE9E0010AEBE0030AEDE0AA
:1022D8006EEF11F0C280C28272EF11F0C2B277EFD6
:1022E80011F079EF11F072EF11F0C4CF12F1C3CFF2
:1022F80013F113C116F112C115F11BEC00F0010125
:102308000101146F14C100F002C001F0022A060E88
:10231800026491EF11F093EF11F095EF11F0000EB8
:10232800026E1200720ED312AF0E926E120E936EE0
:10233800800E946E000EC26E050EC16E8D0EC06EBC
:10234800000E026E800ED56E200EF26E000EB06E7C
:10235800190EAF6E080EB86E900EAB6E200EAC6EF6
:102368008968800E8A6E0F0E8B6EF28EBAEF11F0AE
:042378000CEF00F076
:020000040030CA
:0E000000FF081F1EFF0281FF3FC03FE03F4090
:00000001FF
