:1000000000EE00F010EE41F008EC00F03CEF9FF045
:0E001000EE6AE550E150FCE1E250FAE1120028
:020000040001F9
:103E7800D382120E936E800E946E000EB06E400EBA
:103E8800AF6E080EB86E900EAB6E200EAC6E610E63
:103E9800AD6E4FEF9FF09EA854EF9FF056EF9FF046
:103EA8004FEF9FF04BEF9FF05AEF9FF02F50D8B491
:103EB80060EF9FF062EF9FF058EF9FF0D8902834A2
:103EC8000101076F1A0E01010725E96EEA6A000E63
:103ED800EA220101EECF05F10101EDCF06F128C07C
:103EE80004F100EF00F0000E896E000E8A6E000EDD
:103EF8008B6E00040110D8A484EF9FF086EF9FF02A
:103F080087EF9FF08B8802040310D8A48EEF9FF0F0
:103F180090EF9FF091EF9FF08B8A04040510D8A4CE
:103F280098EF9FF09AEF9FF09BEF9FF08A8006042E
:103F38000710D8A4A2EF9FF0A4EF9FF0A5EF9FF081
:103F48008A8608040910D8A4ACEF9FF0AEEF9FF062
:103F5800AFEF9FF08A8A0A040B10D8A4B6EF9FF03F
:103F6800B8EF9FF0B9EF9FF08A8C0C040D10D8A41D
:103F7800C0EF9FF0C2EF9FF0C3EF9FF08B860E0457
:103F88000F10D8A4CAEF9FF0CCEF9FF0CDEF9FF0B1
:103F98008B8410041110D8A4D4EF9FF0D6EF9FF0B3
:103FA800D7EF9FF08A8E12041310D8A4DEEF9FF08B
:103FB800E0EF9FF0E1EF9FF08B8214041510D8A476
:103FC800E8EF9FF0EAEF9FF0EBEF9FF08B8016048D
:103FD8001710D8A4F2EF9FF0F4EF9FF0F5EF9FF0E1
:103FE800898C18041910D8A4FCEF9FF0FEEF9FF0FD
:083FF800FFEF9FF08988120021
:020000040030CA
:0E000000FF081F1EFF0281FF3FC03FE03F4090
:00000001FF
